{
	"CrowdFund.sol": {
		"CrowdFund": {
			"abi": [
				{
					"inputs": [
						{
							"internalType": "address",
							"name": "_token",
							"type": "address"
						}
					],
					"stateMutability": "nonpayable",
					"type": "constructor"
				},
				{
					"anonymous": false,
					"inputs": [
						{
							"indexed": false,
							"internalType": "uint256",
							"name": "id",
							"type": "uint256"
						}
					],
					"name": "Cancel",
					"type": "event"
				},
				{
					"anonymous": false,
					"inputs": [
						{
							"indexed": false,
							"internalType": "uint256",
							"name": "id",
							"type": "uint256"
						}
					],
					"name": "Claim",
					"type": "event"
				},
				{
					"anonymous": false,
					"inputs": [
						{
							"indexed": false,
							"internalType": "uint256",
							"name": "id",
							"type": "uint256"
						},
						{
							"indexed": true,
							"internalType": "address",
							"name": "creator",
							"type": "address"
						},
						{
							"indexed": false,
							"internalType": "uint256",
							"name": "goal",
							"type": "uint256"
						},
						{
							"indexed": false,
							"internalType": "uint32",
							"name": "startAt",
							"type": "uint32"
						},
						{
							"indexed": false,
							"internalType": "uint32",
							"name": "endAt",
							"type": "uint32"
						}
					],
					"name": "Launch",
					"type": "event"
				},
				{
					"anonymous": false,
					"inputs": [
						{
							"indexed": true,
							"internalType": "uint256",
							"name": "id",
							"type": "uint256"
						},
						{
							"indexed": true,
							"internalType": "address",
							"name": "caller",
							"type": "address"
						},
						{
							"indexed": false,
							"internalType": "uint256",
							"name": "amount",
							"type": "uint256"
						}
					],
					"name": "Pledge",
					"type": "event"
				},
				{
					"anonymous": false,
					"inputs": [
						{
							"indexed": true,
							"internalType": "uint256",
							"name": "id",
							"type": "uint256"
						},
						{
							"indexed": true,
							"internalType": "address",
							"name": "caller",
							"type": "address"
						},
						{
							"indexed": false,
							"internalType": "uint256",
							"name": "amount",
							"type": "uint256"
						}
					],
					"name": "Refund",
					"type": "event"
				},
				{
					"anonymous": false,
					"inputs": [
						{
							"indexed": true,
							"internalType": "uint256",
							"name": "id",
							"type": "uint256"
						},
						{
							"indexed": true,
							"internalType": "address",
							"name": "caller",
							"type": "address"
						},
						{
							"indexed": false,
							"internalType": "uint256",
							"name": "amount",
							"type": "uint256"
						}
					],
					"name": "Unpledge",
					"type": "event"
				},
				{
					"inputs": [
						{
							"internalType": "uint256",
							"name": "",
							"type": "uint256"
						}
					],
					"name": "campaigns",
					"outputs": [
						{
							"internalType": "address",
							"name": "creator",
							"type": "address"
						},
						{
							"internalType": "uint256",
							"name": "goal",
							"type": "uint256"
						},
						{
							"internalType": "uint256",
							"name": "pledged",
							"type": "uint256"
						},
						{
							"internalType": "uint32",
							"name": "startAt",
							"type": "uint32"
						},
						{
							"internalType": "uint32",
							"name": "endAt",
							"type": "uint32"
						},
						{
							"internalType": "bool",
							"name": "claimed",
							"type": "bool"
						}
					],
					"stateMutability": "view",
					"type": "function"
				},
				{
					"inputs": [
						{
							"internalType": "uint256",
							"name": "_id",
							"type": "uint256"
						}
					],
					"name": "cancel",
					"outputs": [],
					"stateMutability": "nonpayable",
					"type": "function"
				},
				{
					"inputs": [
						{
							"internalType": "uint256",
							"name": "_id",
							"type": "uint256"
						}
					],
					"name": "claim",
					"outputs": [],
					"stateMutability": "nonpayable",
					"type": "function"
				},
				{
					"inputs": [],
					"name": "count",
					"outputs": [
						{
							"internalType": "uint256",
							"name": "",
							"type": "uint256"
						}
					],
					"stateMutability": "view",
					"type": "function"
				},
				{
					"inputs": [
						{
							"internalType": "uint256",
							"name": "_goal",
							"type": "uint256"
						},
						{
							"internalType": "uint32",
							"name": "_startAt",
							"type": "uint32"
						},
						{
							"internalType": "uint32",
							"name": "_endAt",
							"type": "uint32"
						}
					],
					"name": "launch",
					"outputs": [],
					"stateMutability": "nonpayable",
					"type": "function"
				},
				{
					"inputs": [
						{
							"internalType": "uint256",
							"name": "_id",
							"type": "uint256"
						},
						{
							"internalType": "uint256",
							"name": "_amount",
							"type": "uint256"
						}
					],
					"name": "pledge",
					"outputs": [],
					"stateMutability": "nonpayable",
					"type": "function"
				},
				{
					"inputs": [
						{
							"internalType": "uint256",
							"name": "",
							"type": "uint256"
						},
						{
							"internalType": "address",
							"name": "",
							"type": "address"
						}
					],
					"name": "pledgedAmount",
					"outputs": [
						{
							"internalType": "uint256",
							"name": "",
							"type": "uint256"
						}
					],
					"stateMutability": "view",
					"type": "function"
				},
				{
					"inputs": [
						{
							"internalType": "uint256",
							"name": "_id",
							"type": "uint256"
						}
					],
					"name": "refund",
					"outputs": [],
					"stateMutability": "nonpayable",
					"type": "function"
				},
				{
					"inputs": [],
					"name": "token",
					"outputs": [
						{
							"internalType": "contract IERC20",
							"name": "",
							"type": "address"
						}
					],
					"stateMutability": "view",
					"type": "function"
				},
				{
					"inputs": [
						{
							"internalType": "uint256",
							"name": "_id",
							"type": "uint256"
						},
						{
							"internalType": "uint256",
							"name": "_amount",
							"type": "uint256"
						}
					],
					"name": "unpledge",
					"outputs": [],
					"stateMutability": "nonpayable",
					"type": "function"
				}
			],
			"devdoc": {
				"kind": "dev",
				"methods": {},
				"version": 1
			},
			"evm": {
				"assembly": "    /* \"CrowdFund.sol\":88:3621  contract CrowdFund {... */\n  mstore(0x40, 0xa0)\n    /* \"CrowdFund.sol\":894:963  constructor(address _token) {... */\n  callvalue\n  dup1\n  iszero\n  tag_1\n  jumpi\n  0x00\n  dup1\n  revert\ntag_1:\n  pop\n  mload(0x40)\n  sub(codesize, bytecodeSize)\n  dup1\n  bytecodeSize\n  dup4\n  codecopy\n  dup2\n  dup2\n  add\n  0x40\n  mstore\n  dup2\n  add\n  swap1\n  tag_2\n  swap2\n  swap1\n  tag_3\n  jump\t// in\ntag_2:\n    /* \"CrowdFund.sol\":948:954  _token */\n  dup1\n    /* \"CrowdFund.sol\":933:955  token = IERC20(_token) */\n  0xffffffffffffffffffffffffffffffffffffffff\n  and\n  0x80\n  dup2\n  0xffffffffffffffffffffffffffffffffffffffff\n  and\n  dup2\n  mstore\n  pop\n  pop\n    /* \"CrowdFund.sol\":894:963  constructor(address _token) {... */\n  pop\n    /* \"CrowdFund.sol\":88:3621  contract CrowdFund {... */\n  jump(tag_6)\n    /* \"#utility.yul\":88:205   */\ntag_8:\n    /* \"#utility.yul\":197:198   */\n  0x00\n    /* \"#utility.yul\":194:195   */\n  dup1\n    /* \"#utility.yul\":187:199   */\n  revert\n    /* \"#utility.yul\":334:460   */\ntag_10:\n    /* \"#utility.yul\":371:378   */\n  0x00\n    /* \"#utility.yul\":411:453   */\n  0xffffffffffffffffffffffffffffffffffffffff\n    /* \"#utility.yul\":404:409   */\n  dup3\n    /* \"#utility.yul\":400:454   */\n  and\n    /* \"#utility.yul\":389:454   */\n  swap1\n  pop\n    /* \"#utility.yul\":334:460   */\n  swap2\n  swap1\n  pop\n  jump\t// out\n    /* \"#utility.yul\":466:562   */\ntag_11:\n    /* \"#utility.yul\":503:510   */\n  0x00\n    /* \"#utility.yul\":532:556   */\n  tag_20\n    /* \"#utility.yul\":550:555   */\n  dup3\n    /* \"#utility.yul\":532:556   */\n  tag_10\n  jump\t// in\ntag_20:\n    /* \"#utility.yul\":521:556   */\n  swap1\n  pop\n    /* \"#utility.yul\":466:562   */\n  swap2\n  swap1\n  pop\n  jump\t// out\n    /* \"#utility.yul\":568:690   */\ntag_12:\n    /* \"#utility.yul\":641:665   */\n  tag_22\n    /* \"#utility.yul\":659:664   */\n  dup2\n    /* \"#utility.yul\":641:665   */\n  tag_11\n  jump\t// in\ntag_22:\n    /* \"#utility.yul\":634:639   */\n  dup2\n    /* \"#utility.yul\":631:666   */\n  eq\n    /* \"#utility.yul\":621:684   */\n  tag_23\n  jumpi\n    /* \"#utility.yul\":680:681   */\n  0x00\n    /* \"#utility.yul\":677:678   */\n  dup1\n    /* \"#utility.yul\":670:682   */\n  revert\n    /* \"#utility.yul\":621:684   */\ntag_23:\n    /* \"#utility.yul\":568:690   */\n  pop\n  jump\t// out\n    /* \"#utility.yul\":696:839   */\ntag_13:\n    /* \"#utility.yul\":753:758   */\n  0x00\n    /* \"#utility.yul\":784:790   */\n  dup2\n    /* \"#utility.yul\":778:791   */\n  mload\n    /* \"#utility.yul\":769:791   */\n  swap1\n  pop\n    /* \"#utility.yul\":800:833   */\n  tag_25\n    /* \"#utility.yul\":827:832   */\n  dup2\n    /* \"#utility.yul\":800:833   */\n  tag_12\n  jump\t// in\ntag_25:\n    /* \"#utility.yul\":696:839   */\n  swap3\n  swap2\n  pop\n  pop\n  jump\t// out\n    /* \"#utility.yul\":845:1196   */\ntag_3:\n    /* \"#utility.yul\":915:921   */\n  0x00\n    /* \"#utility.yul\":964:966   */\n  0x20\n    /* \"#utility.yul\":952:961   */\n  dup3\n    /* \"#utility.yul\":943:950   */\n  dup5\n    /* \"#utility.yul\":939:962   */\n  sub\n    /* \"#utility.yul\":935:967   */\n  slt\n    /* \"#utility.yul\":932:1051   */\n  iszero\n  tag_27\n  jumpi\n    /* \"#utility.yul\":970:1049   */\n  tag_28\n  tag_8\n  jump\t// in\ntag_28:\n    /* \"#utility.yul\":932:1051   */\ntag_27:\n    /* \"#utility.yul\":1090:1091   */\n  0x00\n    /* \"#utility.yul\":1115:1179   */\n  tag_29\n    /* \"#utility.yul\":1171:1178   */\n  dup5\n    /* \"#utility.yul\":1162:1168   */\n  dup3\n    /* \"#utility.yul\":1151:1160   */\n  dup6\n    /* \"#utility.yul\":1147:1169   */\n  add\n    /* \"#utility.yul\":1115:1179   */\n  tag_13\n  jump\t// in\ntag_29:\n    /* \"#utility.yul\":1105:1179   */\n  swap2\n  pop\n    /* \"#utility.yul\":1061:1189   */\n  pop\n    /* \"#utility.yul\":845:1196   */\n  swap3\n  swap2\n  pop\n  pop\n  jump\t// out\n    /* \"CrowdFund.sol\":88:3621  contract CrowdFund {... */\ntag_6:\n  mload(0x80)\n  codecopy(0x00, dataOffset(sub_0), dataSize(sub_0))\n  0x00\n  assignImmutable(\"0xd9670a00d025e59e1bd58d53874bea4ab34fea782716e2c168e89a3c8452d3bb\")\n  return(0x00, dataSize(sub_0))\nstop\n\nsub_0: assembly {\n        /* \"CrowdFund.sol\":88:3621  contract CrowdFund {... */\n      mstore(0x40, 0x80)\n      callvalue\n      dup1\n      iszero\n      tag_1\n      jumpi\n      0x00\n      dup1\n      revert\n    tag_1:\n      pop\n      jumpi(tag_2, lt(calldatasize, 0x04))\n      shr(0xe0, calldataload(0x00))\n      dup1\n      0x40e58ee5\n      gt\n      tag_13\n      jumpi\n      dup1\n      0x40e58ee5\n      eq\n      tag_8\n      jumpi\n      dup1\n      0x711853ab\n      eq\n      tag_9\n      jumpi\n      dup1\n      0xaa4fb63a\n      eq\n      tag_10\n      jumpi\n      dup1\n      0xfc0c546a\n      eq\n      tag_11\n      jumpi\n      dup1\n      0xfde327be\n      eq\n      tag_12\n      jumpi\n      jump(tag_2)\n    tag_13:\n      dup1\n      0x06661abd\n      eq\n      tag_3\n      jumpi\n      dup1\n      0x141961bc\n      eq\n      tag_4\n      jumpi\n      dup1\n      0x278ecde1\n      eq\n      tag_5\n      jumpi\n      dup1\n      0x2c63f146\n      eq\n      tag_6\n      jumpi\n      dup1\n      0x379607f5\n      eq\n      tag_7\n      jumpi\n    tag_2:\n      0x00\n      dup1\n      revert\n        /* \"CrowdFund.sol\":750:767  uint public count */\n    tag_3:\n      tag_14\n      tag_15\n      jump\t// in\n    tag_14:\n      mload(0x40)\n      tag_16\n      swap2\n      swap1\n      tag_17\n      jump\t// in\n    tag_16:\n      mload(0x40)\n      dup1\n      swap2\n      sub\n      swap1\n      return\n        /* \"CrowdFund.sol\":774:816  mapping(uint => Campaign) public campaigns */\n    tag_4:\n      tag_18\n      0x04\n      dup1\n      calldatasize\n      sub\n      dup2\n      add\n      swap1\n      tag_19\n      swap2\n      swap1\n      tag_20\n      jump\t// in\n    tag_19:\n      tag_21\n      jump\t// in\n    tag_18:\n      mload(0x40)\n      tag_22\n      swap7\n      swap6\n      swap5\n      swap4\n      swap3\n      swap2\n      swap1\n      tag_23\n      jump\t// in\n    tag_22:\n      mload(0x40)\n      dup1\n      swap2\n      sub\n      swap1\n      return\n        /* \"CrowdFund.sol\":3221:3618  function refund(uint _id) external {... */\n    tag_5:\n      tag_24\n      0x04\n      dup1\n      calldatasize\n      sub\n      dup2\n      add\n      swap1\n      tag_25\n      swap2\n      swap1\n      tag_20\n      jump\t// in\n    tag_25:\n      tag_26\n      jump\t// in\n    tag_24:\n      stop\n        /* \"CrowdFund.sol\":971:1605  function launch(... */\n    tag_6:\n      tag_27\n      0x04\n      dup1\n      calldatasize\n      sub\n      dup2\n      add\n      swap1\n      tag_28\n      swap2\n      swap1\n      tag_29\n      jump\t// in\n    tag_28:\n      tag_30\n      jump\t// in\n    tag_27:\n      stop\n        /* \"CrowdFund.sol\":2742:3213  function claim(uint _id) external {... */\n    tag_7:\n      tag_31\n      0x04\n      dup1\n      calldatasize\n      sub\n      dup2\n      add\n      swap1\n      tag_32\n      swap2\n      swap1\n      tag_20\n      jump\t// in\n    tag_32:\n      tag_33\n      jump\t// in\n    tag_31:\n      stop\n        /* \"CrowdFund.sol\":1617:1901  function cancel(uint _id) external {... */\n    tag_8:\n      tag_34\n      0x04\n      dup1\n      calldatasize\n      sub\n      dup2\n      add\n      swap1\n      tag_35\n      swap2\n      swap1\n      tag_20\n      jump\t// in\n    tag_35:\n      tag_36\n      jump\t// in\n    tag_34:\n      stop\n        /* \"CrowdFund.sol\":2370:2734  function unpledge(uint _id, uint _amount) external {... */\n    tag_9:\n      tag_37\n      0x04\n      dup1\n      calldatasize\n      sub\n      dup2\n      add\n      swap1\n      tag_38\n      swap2\n      swap1\n      tag_39\n      jump\t// in\n    tag_38:\n      tag_40\n      jump\t// in\n    tag_37:\n      stop\n        /* \"CrowdFund.sol\":823:885  mapping(uint => mapping(address => uint)) public pledgedAmount */\n    tag_10:\n      tag_41\n      0x04\n      dup1\n      calldatasize\n      sub\n      dup2\n      add\n      swap1\n      tag_42\n      swap2\n      swap1\n      tag_43\n      jump\t// in\n    tag_42:\n      tag_44\n      jump\t// in\n    tag_41:\n      mload(0x40)\n      tag_45\n      swap2\n      swap1\n      tag_17\n      jump\t// in\n    tag_45:\n      mload(0x40)\n      dup1\n      swap2\n      sub\n      swap1\n      return\n        /* \"CrowdFund.sol\":714:743  IERC20 public immutable token */\n    tag_11:\n      tag_46\n      tag_47\n      jump\t// in\n    tag_46:\n      mload(0x40)\n      tag_48\n      swap2\n      swap1\n      tag_49\n      jump\t// in\n    tag_48:\n      mload(0x40)\n      dup1\n      swap2\n      sub\n      swap1\n      return\n        /* \"CrowdFund.sol\":1913:2362  function pledge(uint _id, uint _amount) external {... */\n    tag_12:\n      tag_50\n      0x04\n      dup1\n      calldatasize\n      sub\n      dup2\n      add\n      swap1\n      tag_51\n      swap2\n      swap1\n      tag_39\n      jump\t// in\n    tag_51:\n      tag_52\n      jump\t// in\n    tag_50:\n      stop\n        /* \"CrowdFund.sol\":750:767  uint public count */\n    tag_15:\n      sload(0x00)\n      dup2\n      jump\t// out\n        /* \"CrowdFund.sol\":774:816  mapping(uint => Campaign) public campaigns */\n    tag_21:\n      mstore(0x20, 0x01)\n      dup1\n      0x00\n      mstore\n      keccak256(0x00, 0x40)\n      0x00\n      swap2\n      pop\n      swap1\n      pop\n      dup1\n      0x00\n      add\n      0x00\n      swap1\n      sload\n      swap1\n      0x0100\n      exp\n      swap1\n      div\n      0xffffffffffffffffffffffffffffffffffffffff\n      and\n      swap1\n      dup1\n      0x01\n      add\n      sload\n      swap1\n      dup1\n      0x02\n      add\n      sload\n      swap1\n      dup1\n      0x03\n      add\n      0x00\n      swap1\n      sload\n      swap1\n      0x0100\n      exp\n      swap1\n      div\n      0xffffffff\n      and\n      swap1\n      dup1\n      0x03\n      add\n      0x04\n      swap1\n      sload\n      swap1\n      0x0100\n      exp\n      swap1\n      div\n      0xffffffff\n      and\n      swap1\n      dup1\n      0x03\n      add\n      0x08\n      swap1\n      sload\n      swap1\n      0x0100\n      exp\n      swap1\n      div\n      0xff\n      and\n      swap1\n      pop\n      dup7\n      jump\t// out\n        /* \"CrowdFund.sol\":3221:3618  function refund(uint _id) external {... */\n    tag_26:\n        /* \"CrowdFund.sol\":3267:3292  Campaign storage campaign */\n      0x00\n        /* \"CrowdFund.sol\":3295:3304  campaigns */\n      0x01\n        /* \"CrowdFund.sol\":3295:3309  campaigns[_id] */\n      0x00\n        /* \"CrowdFund.sol\":3305:3308  _id */\n      dup4\n        /* \"CrowdFund.sol\":3295:3309  campaigns[_id] */\n      dup2\n      mstore\n      0x20\n      add\n      swap1\n      dup2\n      mstore\n      0x20\n      add\n      0x00\n      keccak256\n        /* \"CrowdFund.sol\":3267:3309  Campaign storage campaign = campaigns[_id] */\n      swap1\n      pop\n        /* \"CrowdFund.sol\":3347:3355  campaign */\n      dup1\n        /* \"CrowdFund.sol\":3347:3361  campaign.endAt */\n      0x03\n      add\n      0x04\n      swap1\n      sload\n      swap1\n      0x0100\n      exp\n      swap1\n      div\n      0xffffffff\n      and\n        /* \"CrowdFund.sol\":3329:3361  block.timestamp > campaign.endAt */\n      0xffffffff\n      and\n        /* \"CrowdFund.sol\":3329:3344  block.timestamp */\n      timestamp\n        /* \"CrowdFund.sol\":3329:3361  block.timestamp > campaign.endAt */\n      gt\n        /* \"CrowdFund.sol\":3321:3375  require(block.timestamp > campaign.endAt, \"not ended\") */\n      tag_54\n      jumpi\n      mload(0x40)\n      0x08c379a000000000000000000000000000000000000000000000000000000000\n      dup2\n      mstore\n      0x04\n      add\n      tag_55\n      swap1\n      tag_56\n      jump\t// in\n    tag_55:\n      mload(0x40)\n      dup1\n      swap2\n      sub\n      swap1\n      revert\n    tag_54:\n        /* \"CrowdFund.sol\":3414:3422  campaign */\n      dup1\n        /* \"CrowdFund.sol\":3414:3427  campaign.goal */\n      0x01\n      add\n      sload\n        /* \"CrowdFund.sol\":3395:3403  campaign */\n      dup2\n        /* \"CrowdFund.sol\":3395:3411  campaign.pledged */\n      0x02\n      add\n      sload\n        /* \"CrowdFund.sol\":3395:3427  campaign.pledged < campaign.goal */\n      lt\n        /* \"CrowdFund.sol\":3387:3446  require(campaign.pledged < campaign.goal, \"pledged < goal\") */\n      tag_57\n      jumpi\n      mload(0x40)\n      0x08c379a000000000000000000000000000000000000000000000000000000000\n      dup2\n      mstore\n      0x04\n      add\n      tag_58\n      swap1\n      tag_59\n      jump\t// in\n    tag_58:\n      mload(0x40)\n      dup1\n      swap2\n      sub\n      swap1\n      revert\n    tag_57:\n        /* \"CrowdFund.sol\":3460:3468  uint bal */\n      0x00\n        /* \"CrowdFund.sol\":3471:3484  pledgedAmount */\n      0x02\n        /* \"CrowdFund.sol\":3471:3489  pledgedAmount[_id] */\n      0x00\n        /* \"CrowdFund.sol\":3485:3488  _id */\n      dup5\n        /* \"CrowdFund.sol\":3471:3489  pledgedAmount[_id] */\n      dup2\n      mstore\n      0x20\n      add\n      swap1\n      dup2\n      mstore\n      0x20\n      add\n      0x00\n      keccak256\n        /* \"CrowdFund.sol\":3471:3501  pledgedAmount[_id][msg.sender] */\n      0x00\n        /* \"CrowdFund.sol\":3490:3500  msg.sender */\n      caller\n        /* \"CrowdFund.sol\":3471:3501  pledgedAmount[_id][msg.sender] */\n      0xffffffffffffffffffffffffffffffffffffffff\n      and\n      0xffffffffffffffffffffffffffffffffffffffff\n      and\n      dup2\n      mstore\n      0x20\n      add\n      swap1\n      dup2\n      mstore\n      0x20\n      add\n      0x00\n      keccak256\n      sload\n        /* \"CrowdFund.sol\":3460:3501  uint bal = pledgedAmount[_id][msg.sender] */\n      swap1\n      pop\n        /* \"CrowdFund.sol\":3519:3520  0 */\n      0x00\n        /* \"CrowdFund.sol\":3513:3520  bal = 0 */\n      swap1\n      pop\n        /* \"CrowdFund.sol\":3532:3537  token */\n      immutable(\"0xd9670a00d025e59e1bd58d53874bea4ab34fea782716e2c168e89a3c8452d3bb\")\n        /* \"CrowdFund.sol\":3532:3546  token.transfer */\n      0xffffffffffffffffffffffffffffffffffffffff\n      and\n      0xa9059cbb\n        /* \"CrowdFund.sol\":3547:3557  msg.sender */\n      caller\n        /* \"CrowdFund.sol\":3559:3562  bal */\n      dup4\n        /* \"CrowdFund.sol\":3532:3563  token.transfer(msg.sender, bal) */\n      mload(0x40)\n      dup4\n      0xffffffff\n      and\n      0xe0\n      shl\n      dup2\n      mstore\n      0x04\n      add\n      tag_60\n      swap3\n      swap2\n      swap1\n      tag_61\n      jump\t// in\n    tag_60:\n      0x20\n      mload(0x40)\n      dup1\n      dup4\n      sub\n      dup2\n      0x00\n      dup8\n      gas\n      call\n      iszero\n      dup1\n      iszero\n      tag_63\n      jumpi\n      returndatasize\n      0x00\n      dup1\n      returndatacopy\n      revert(0x00, returndatasize)\n    tag_63:\n      pop\n      pop\n      pop\n      pop\n      mload(0x40)\n      returndatasize\n      not(0x1f)\n      0x1f\n      dup3\n      add\n      and\n      dup3\n      add\n      dup1\n      0x40\n      mstore\n      pop\n      dup2\n      add\n      swap1\n      tag_64\n      swap2\n      swap1\n      tag_65\n      jump\t// in\n    tag_64:\n      pop\n        /* \"CrowdFund.sol\":3594:3604  msg.sender */\n      caller\n        /* \"CrowdFund.sol\":3582:3610  Refund(_id, msg.sender, bal) */\n      0xffffffffffffffffffffffffffffffffffffffff\n      and\n        /* \"CrowdFund.sol\":3589:3592  _id */\n      dup4\n        /* \"CrowdFund.sol\":3582:3610  Refund(_id, msg.sender, bal) */\n      0x21e12a7cad0da5928167e1084ea4d5fdf8d9af66657a2543a9ac76a0ca081477\n        /* \"CrowdFund.sol\":3606:3609  bal */\n      dup4\n        /* \"CrowdFund.sol\":3582:3610  Refund(_id, msg.sender, bal) */\n      mload(0x40)\n      tag_66\n      swap2\n      swap1\n      tag_17\n      jump\t// in\n    tag_66:\n      mload(0x40)\n      dup1\n      swap2\n      sub\n      swap1\n      log3\n        /* \"CrowdFund.sol\":3256:3618  {... */\n      pop\n      pop\n        /* \"CrowdFund.sol\":3221:3618  function refund(uint _id) external {... */\n      pop\n      jump\t// out\n        /* \"CrowdFund.sol\":971:1605  function launch(... */\n    tag_30:\n        /* \"CrowdFund.sol\":1105:1120  block.timestamp */\n      timestamp\n        /* \"CrowdFund.sol\":1093:1101  _startAt */\n      dup3\n        /* \"CrowdFund.sol\":1093:1120  _startAt >= block.timestamp */\n      0xffffffff\n      and\n      lt\n      iszero\n        /* \"CrowdFund.sol\":1085:1139  require(_startAt >= block.timestamp, \"start at < now\") */\n      tag_68\n      jumpi\n      mload(0x40)\n      0x08c379a000000000000000000000000000000000000000000000000000000000\n      dup2\n      mstore\n      0x04\n      add\n      tag_69\n      swap1\n      tag_70\n      jump\t// in\n    tag_69:\n      mload(0x40)\n      dup1\n      swap2\n      sub\n      swap1\n      revert\n    tag_68:\n        /* \"CrowdFund.sol\":1168:1176  _startAt */\n      dup2\n        /* \"CrowdFund.sol\":1158:1176  _endAt >= _startAt */\n      0xffffffff\n      and\n        /* \"CrowdFund.sol\":1158:1164  _endAt */\n      dup2\n        /* \"CrowdFund.sol\":1158:1176  _endAt >= _startAt */\n      0xffffffff\n      and\n      lt\n      iszero\n        /* \"CrowdFund.sol\":1150:1198  require(_endAt >= _startAt, \"end at < start at\") */\n      tag_71\n      jumpi\n      mload(0x40)\n      0x08c379a000000000000000000000000000000000000000000000000000000000\n      dup2\n      mstore\n      0x04\n      add\n      tag_72\n      swap1\n      tag_73\n      jump\t// in\n    tag_72:\n      mload(0x40)\n      dup1\n      swap2\n      sub\n      swap1\n      revert\n    tag_71:\n        /* \"CrowdFund.sol\":1245:1252  90 days */\n      0x76a700\n        /* \"CrowdFund.sol\":1227:1242  block.timestamp */\n      timestamp\n        /* \"CrowdFund.sol\":1227:1252  block.timestamp + 90 days */\n      tag_74\n      swap2\n      swap1\n      tag_75\n      jump\t// in\n    tag_74:\n        /* \"CrowdFund.sol\":1217:1223  _endAt */\n      dup2\n        /* \"CrowdFund.sol\":1217:1252  _endAt <= block.timestamp + 90 days */\n      0xffffffff\n      and\n      gt\n      iszero\n        /* \"CrowdFund.sol\":1209:1278  require(_endAt <= block.timestamp + 90 days, \"end at > max duration\") */\n      tag_76\n      jumpi\n      mload(0x40)\n      0x08c379a000000000000000000000000000000000000000000000000000000000\n      dup2\n      mstore\n      0x04\n      add\n      tag_77\n      swap1\n      tag_78\n      jump\t// in\n    tag_77:\n      mload(0x40)\n      dup1\n      swap2\n      sub\n      swap1\n      revert\n    tag_76:\n        /* \"CrowdFund.sol\":1300:1301  1 */\n      0x01\n        /* \"CrowdFund.sol\":1291:1296  count */\n      0x00\n      dup1\n        /* \"CrowdFund.sol\":1291:1301  count += 1 */\n      dup3\n      dup3\n      sload\n      tag_79\n      swap2\n      swap1\n      tag_75\n      jump\t// in\n    tag_79:\n      swap3\n      pop\n      pop\n      dup2\n      swap1\n      sstore\n      pop\n        /* \"CrowdFund.sol\":1331:1525  Campaign({... */\n      mload(0x40)\n      dup1\n      0xc0\n      add\n      0x40\n      mstore\n      dup1\n        /* \"CrowdFund.sol\":1364:1374  msg.sender */\n      caller\n        /* \"CrowdFund.sol\":1331:1525  Campaign({... */\n      0xffffffffffffffffffffffffffffffffffffffff\n      and\n      dup2\n      mstore\n      0x20\n      add\n        /* \"CrowdFund.sol\":1395:1400  _goal */\n      dup5\n        /* \"CrowdFund.sol\":1331:1525  Campaign({... */\n      dup2\n      mstore\n      0x20\n      add\n        /* \"CrowdFund.sol\":1423:1424  0 */\n      0x00\n        /* \"CrowdFund.sol\":1331:1525  Campaign({... */\n      dup2\n      mstore\n      0x20\n      add\n        /* \"CrowdFund.sol\":1448:1456  _startAt */\n      dup4\n        /* \"CrowdFund.sol\":1331:1525  Campaign({... */\n      0xffffffff\n      and\n      dup2\n      mstore\n      0x20\n      add\n        /* \"CrowdFund.sol\":1478:1484  _endAt */\n      dup3\n        /* \"CrowdFund.sol\":1331:1525  Campaign({... */\n      0xffffffff\n      and\n      dup2\n      mstore\n      0x20\n      add\n        /* \"CrowdFund.sol\":1508:1513  false */\n      0x00\n        /* \"CrowdFund.sol\":1331:1525  Campaign({... */\n      iszero\n      iszero\n      dup2\n      mstore\n      pop\n        /* \"CrowdFund.sol\":1312:1321  campaigns */\n      0x01\n        /* \"CrowdFund.sol\":1312:1328  campaigns[count] */\n      0x00\n        /* \"CrowdFund.sol\":1322:1327  count */\n      dup1\n      sload\n        /* \"CrowdFund.sol\":1312:1328  campaigns[count] */\n      dup2\n      mstore\n      0x20\n      add\n      swap1\n      dup2\n      mstore\n      0x20\n      add\n      0x00\n      keccak256\n        /* \"CrowdFund.sol\":1312:1525  campaigns[count] = Campaign({... */\n      0x00\n      dup3\n      add\n      mload\n      dup2\n      0x00\n      add\n      exp(0x0100, 0x00)\n      dup2\n      sload\n      dup2\n      0xffffffffffffffffffffffffffffffffffffffff\n      mul\n      not\n      and\n      swap1\n      dup4\n      0xffffffffffffffffffffffffffffffffffffffff\n      and\n      mul\n      or\n      swap1\n      sstore\n      pop\n      0x20\n      dup3\n      add\n      mload\n      dup2\n      0x01\n      add\n      sstore\n      0x40\n      dup3\n      add\n      mload\n      dup2\n      0x02\n      add\n      sstore\n      0x60\n      dup3\n      add\n      mload\n      dup2\n      0x03\n      add\n      exp(0x0100, 0x00)\n      dup2\n      sload\n      dup2\n      0xffffffff\n      mul\n      not\n      and\n      swap1\n      dup4\n      0xffffffff\n      and\n      mul\n      or\n      swap1\n      sstore\n      pop\n      0x80\n      dup3\n      add\n      mload\n      dup2\n      0x03\n      add\n      exp(0x0100, 0x04)\n      dup2\n      sload\n      dup2\n      0xffffffff\n      mul\n      not\n      and\n      swap1\n      dup4\n      0xffffffff\n      and\n      mul\n      or\n      swap1\n      sstore\n      pop\n      0xa0\n      dup3\n      add\n      mload\n      dup2\n      0x03\n      add\n      exp(0x0100, 0x08)\n      dup2\n      sload\n      dup2\n      0xff\n      mul\n      not\n      and\n      swap1\n      dup4\n      iszero\n      iszero\n      mul\n      or\n      swap1\n      sstore\n      pop\n      swap1\n      pop\n      pop\n        /* \"CrowdFund.sol\":1557:1567  msg.sender */\n      caller\n        /* \"CrowdFund.sol\":1543:1593  Launch(count, msg.sender, _goal, _startAt, _endAt) */\n      0xffffffffffffffffffffffffffffffffffffffff\n      and\n      0x0601cd0d650b473037e838a2696d41e654433d065b3f56b28d1d3302e44a304f\n        /* \"CrowdFund.sol\":1550:1555  count */\n      sload(0x00)\n        /* \"CrowdFund.sol\":1569:1574  _goal */\n      dup6\n        /* \"CrowdFund.sol\":1576:1584  _startAt */\n      dup6\n        /* \"CrowdFund.sol\":1586:1592  _endAt */\n      dup6\n        /* \"CrowdFund.sol\":1543:1593  Launch(count, msg.sender, _goal, _startAt, _endAt) */\n      mload(0x40)\n      tag_80\n      swap5\n      swap4\n      swap3\n      swap2\n      swap1\n      tag_81\n      jump\t// in\n    tag_80:\n      mload(0x40)\n      dup1\n      swap2\n      sub\n      swap1\n      log2\n        /* \"CrowdFund.sol\":971:1605  function launch(... */\n      pop\n      pop\n      pop\n      jump\t// out\n        /* \"CrowdFund.sol\":2742:3213  function claim(uint _id) external {... */\n    tag_33:\n        /* \"CrowdFund.sol\":2788:2813  Campaign storage campaign */\n      0x00\n        /* \"CrowdFund.sol\":2816:2825  campaigns */\n      0x01\n        /* \"CrowdFund.sol\":2816:2830  campaigns[_id] */\n      0x00\n        /* \"CrowdFund.sol\":2826:2829  _id */\n      dup4\n        /* \"CrowdFund.sol\":2816:2830  campaigns[_id] */\n      dup2\n      mstore\n      0x20\n      add\n      swap1\n      dup2\n      mstore\n      0x20\n      add\n      0x00\n      keccak256\n        /* \"CrowdFund.sol\":2788:2830  Campaign storage campaign = campaigns[_id] */\n      swap1\n      pop\n        /* \"CrowdFund.sol\":2864:2872  campaign */\n      dup1\n        /* \"CrowdFund.sol\":2864:2880  campaign.creator */\n      0x00\n      add\n      0x00\n      swap1\n      sload\n      swap1\n      0x0100\n      exp\n      swap1\n      div\n      0xffffffffffffffffffffffffffffffffffffffff\n      and\n        /* \"CrowdFund.sol\":2850:2880  msg.sender == campaign.creator */\n      0xffffffffffffffffffffffffffffffffffffffff\n      and\n        /* \"CrowdFund.sol\":2850:2860  msg.sender */\n      caller\n        /* \"CrowdFund.sol\":2850:2880  msg.sender == campaign.creator */\n      0xffffffffffffffffffffffffffffffffffffffff\n      and\n      eq\n        /* \"CrowdFund.sol\":2842:2896  require(msg.sender == campaign.creator, \"not creator\") */\n      tag_83\n      jumpi\n      mload(0x40)\n      0x08c379a000000000000000000000000000000000000000000000000000000000\n      dup2\n      mstore\n      0x04\n      add\n      tag_84\n      swap1\n      tag_85\n      jump\t// in\n    tag_84:\n      mload(0x40)\n      dup1\n      swap2\n      sub\n      swap1\n      revert\n    tag_83:\n        /* \"CrowdFund.sol\":2934:2942  campaign */\n      dup1\n        /* \"CrowdFund.sol\":2934:2948  campaign.endAt */\n      0x03\n      add\n      0x04\n      swap1\n      sload\n      swap1\n      0x0100\n      exp\n      swap1\n      div\n      0xffffffff\n      and\n        /* \"CrowdFund.sol\":2916:2948  block.timestamp > campaign.endAt */\n      0xffffffff\n      and\n        /* \"CrowdFund.sol\":2916:2931  block.timestamp */\n      timestamp\n        /* \"CrowdFund.sol\":2916:2948  block.timestamp > campaign.endAt */\n      gt\n        /* \"CrowdFund.sol\":2908:2962  require(block.timestamp > campaign.endAt, \"not ended\") */\n      tag_86\n      jumpi\n      mload(0x40)\n      0x08c379a000000000000000000000000000000000000000000000000000000000\n      dup2\n      mstore\n      0x04\n      add\n      tag_87\n      swap1\n      tag_56\n      jump\t// in\n    tag_87:\n      mload(0x40)\n      dup1\n      swap2\n      sub\n      swap1\n      revert\n    tag_86:\n        /* \"CrowdFund.sol\":3002:3010  campaign */\n      dup1\n        /* \"CrowdFund.sol\":3002:3015  campaign.goal */\n      0x01\n      add\n      sload\n        /* \"CrowdFund.sol\":2982:2990  campaign */\n      dup2\n        /* \"CrowdFund.sol\":2982:2998  campaign.pledged */\n      0x02\n      add\n      sload\n        /* \"CrowdFund.sol\":2982:3015  campaign.pledged >= campaign.goal */\n      lt\n      iszero\n        /* \"CrowdFund.sol\":2974:3034  require(campaign.pledged >= campaign.goal, \"pledged < goal\") */\n      tag_88\n      jumpi\n      mload(0x40)\n      0x08c379a000000000000000000000000000000000000000000000000000000000\n      dup2\n      mstore\n      0x04\n      add\n      tag_89\n      swap1\n      tag_59\n      jump\t// in\n    tag_89:\n      mload(0x40)\n      dup1\n      swap2\n      sub\n      swap1\n      revert\n    tag_88:\n        /* \"CrowdFund.sol\":3055:3063  campaign */\n      dup1\n        /* \"CrowdFund.sol\":3055:3071  campaign.claimed */\n      0x03\n      add\n      0x08\n      swap1\n      sload\n      swap1\n      0x0100\n      exp\n      swap1\n      div\n      0xff\n      and\n        /* \"CrowdFund.sol\":3054:3071  !campaign.claimed */\n      iszero\n        /* \"CrowdFund.sol\":3046:3083  require(!campaign.claimed, \"claimed\") */\n      tag_90\n      jumpi\n      mload(0x40)\n      0x08c379a000000000000000000000000000000000000000000000000000000000\n      dup2\n      mstore\n      0x04\n      add\n      tag_91\n      swap1\n      tag_92\n      jump\t// in\n    tag_91:\n      mload(0x40)\n      dup1\n      swap2\n      sub\n      swap1\n      revert\n    tag_90:\n        /* \"CrowdFund.sol\":3116:3120  true */\n      0x01\n        /* \"CrowdFund.sol\":3097:3105  campaign */\n      dup2\n        /* \"CrowdFund.sol\":3097:3113  campaign.claimed */\n      0x03\n      add\n      0x08\n        /* \"CrowdFund.sol\":3097:3120  campaign.claimed = true */\n      0x0100\n      exp\n      dup2\n      sload\n      dup2\n      0xff\n      mul\n      not\n      and\n      swap1\n      dup4\n      iszero\n      iszero\n      mul\n      or\n      swap1\n      sstore\n      pop\n        /* \"CrowdFund.sol\":3132:3137  token */\n      immutable(\"0xd9670a00d025e59e1bd58d53874bea4ab34fea782716e2c168e89a3c8452d3bb\")\n        /* \"CrowdFund.sol\":3132:3146  token.transfer */\n      0xffffffffffffffffffffffffffffffffffffffff\n      and\n      0xa9059cbb\n        /* \"CrowdFund.sol\":3147:3157  msg.sender */\n      caller\n        /* \"CrowdFund.sol\":3159:3167  campaign */\n      dup4\n        /* \"CrowdFund.sol\":3159:3175  campaign.pledged */\n      0x02\n      add\n      sload\n        /* \"CrowdFund.sol\":3132:3176  token.transfer(msg.sender, campaign.pledged) */\n      mload(0x40)\n      dup4\n      0xffffffff\n      and\n      0xe0\n      shl\n      dup2\n      mstore\n      0x04\n      add\n      tag_93\n      swap3\n      swap2\n      swap1\n      tag_61\n      jump\t// in\n    tag_93:\n      0x20\n      mload(0x40)\n      dup1\n      dup4\n      sub\n      dup2\n      0x00\n      dup8\n      gas\n      call\n      iszero\n      dup1\n      iszero\n      tag_95\n      jumpi\n      returndatasize\n      0x00\n      dup1\n      returndatacopy\n      revert(0x00, returndatasize)\n    tag_95:\n      pop\n      pop\n      pop\n      pop\n      mload(0x40)\n      returndatasize\n      not(0x1f)\n      0x1f\n      dup3\n      add\n      and\n      dup3\n      add\n      dup1\n      0x40\n      mstore\n      pop\n      dup2\n      add\n      swap1\n      tag_96\n      swap2\n      swap1\n      tag_65\n      jump\t// in\n    tag_96:\n      pop\n        /* \"CrowdFund.sol\":3195:3205  Claim(_id) */\n      0x7bb2b3c10797baccb6f8c4791f1edd6ca2f0d028ee0eda64b01a9a57e3a653f7\n        /* \"CrowdFund.sol\":3201:3204  _id */\n      dup3\n        /* \"CrowdFund.sol\":3195:3205  Claim(_id) */\n      mload(0x40)\n      tag_97\n      swap2\n      swap1\n      tag_17\n      jump\t// in\n    tag_97:\n      mload(0x40)\n      dup1\n      swap2\n      sub\n      swap1\n      log1\n        /* \"CrowdFund.sol\":2776:3213  {... */\n      pop\n        /* \"CrowdFund.sol\":2742:3213  function claim(uint _id) external {... */\n      pop\n      jump\t// out\n        /* \"CrowdFund.sol\":1617:1901  function cancel(uint _id) external {... */\n    tag_36:\n        /* \"CrowdFund.sol\":1663:1687  Campaign memory campaign */\n      0x00\n        /* \"CrowdFund.sol\":1690:1699  campaigns */\n      0x01\n        /* \"CrowdFund.sol\":1690:1704  campaigns[_id] */\n      0x00\n        /* \"CrowdFund.sol\":1700:1703  _id */\n      dup4\n        /* \"CrowdFund.sol\":1690:1704  campaigns[_id] */\n      dup2\n      mstore\n      0x20\n      add\n      swap1\n      dup2\n      mstore\n      0x20\n      add\n      0x00\n      keccak256\n        /* \"CrowdFund.sol\":1663:1704  Campaign memory campaign = campaigns[_id] */\n      mload(0x40)\n      dup1\n      0xc0\n      add\n      0x40\n      mstore\n      swap1\n      dup2\n      0x00\n      dup3\n      add\n      0x00\n      swap1\n      sload\n      swap1\n      0x0100\n      exp\n      swap1\n      div\n      0xffffffffffffffffffffffffffffffffffffffff\n      and\n      0xffffffffffffffffffffffffffffffffffffffff\n      and\n      0xffffffffffffffffffffffffffffffffffffffff\n      and\n      dup2\n      mstore\n      0x20\n      add\n      0x01\n      dup3\n      add\n      sload\n      dup2\n      mstore\n      0x20\n      add\n      0x02\n      dup3\n      add\n      sload\n      dup2\n      mstore\n      0x20\n      add\n      0x03\n      dup3\n      add\n      0x00\n      swap1\n      sload\n      swap1\n      0x0100\n      exp\n      swap1\n      div\n      0xffffffff\n      and\n      0xffffffff\n      and\n      0xffffffff\n      and\n      dup2\n      mstore\n      0x20\n      add\n      0x03\n      dup3\n      add\n      0x04\n      swap1\n      sload\n      swap1\n      0x0100\n      exp\n      swap1\n      div\n      0xffffffff\n      and\n      0xffffffff\n      and\n      0xffffffff\n      and\n      dup2\n      mstore\n      0x20\n      add\n      0x03\n      dup3\n      add\n      0x08\n      swap1\n      sload\n      swap1\n      0x0100\n      exp\n      swap1\n      div\n      0xff\n      and\n      iszero\n      iszero\n      iszero\n      iszero\n      dup2\n      mstore\n      pop\n      pop\n      swap1\n      pop\n        /* \"CrowdFund.sol\":1737:1745  campaign */\n      dup1\n        /* \"CrowdFund.sol\":1737:1753  campaign.creator */\n      0x00\n      add\n      mload\n        /* \"CrowdFund.sol\":1723:1753  msg.sender == campaign.creator */\n      0xffffffffffffffffffffffffffffffffffffffff\n      and\n        /* \"CrowdFund.sol\":1723:1733  msg.sender */\n      caller\n        /* \"CrowdFund.sol\":1723:1753  msg.sender == campaign.creator */\n      0xffffffffffffffffffffffffffffffffffffffff\n      and\n      eq\n        /* \"CrowdFund.sol\":1715:1769  require(msg.sender == campaign.creator, \"not creator\") */\n      tag_99\n      jumpi\n      mload(0x40)\n      0x08c379a000000000000000000000000000000000000000000000000000000000\n      dup2\n      mstore\n      0x04\n      add\n      tag_100\n      swap1\n      tag_85\n      jump\t// in\n    tag_100:\n      mload(0x40)\n      dup1\n      swap2\n      sub\n      swap1\n      revert\n    tag_99:\n        /* \"CrowdFund.sol\":1806:1814  campaign */\n      dup1\n        /* \"CrowdFund.sol\":1806:1822  campaign.startAt */\n      0x60\n      add\n      mload\n        /* \"CrowdFund.sol\":1788:1822  block.timestamp < campaign.startAt */\n      0xffffffff\n      and\n        /* \"CrowdFund.sol\":1788:1803  block.timestamp */\n      timestamp\n        /* \"CrowdFund.sol\":1788:1822  block.timestamp < campaign.startAt */\n      lt\n        /* \"CrowdFund.sol\":1780:1834  require(block.timestamp < campaign.startAt, \"started\") */\n      tag_101\n      jumpi\n      mload(0x40)\n      0x08c379a000000000000000000000000000000000000000000000000000000000\n      dup2\n      mstore\n      0x04\n      add\n      tag_102\n      swap1\n      tag_103\n      jump\t// in\n    tag_102:\n      mload(0x40)\n      dup1\n      swap2\n      sub\n      swap1\n      revert\n    tag_101:\n        /* \"CrowdFund.sol\":1852:1861  campaigns */\n      0x01\n        /* \"CrowdFund.sol\":1852:1866  campaigns[_id] */\n      0x00\n        /* \"CrowdFund.sol\":1862:1865  _id */\n      dup4\n        /* \"CrowdFund.sol\":1852:1866  campaigns[_id] */\n      dup2\n      mstore\n      0x20\n      add\n      swap1\n      dup2\n      mstore\n      0x20\n      add\n      0x00\n      keccak256\n      0x00\n        /* \"CrowdFund.sol\":1845:1866  delete campaigns[_id] */\n      dup1\n      dup3\n      add\n      exp(0x0100, 0x00)\n      dup2\n      sload\n      swap1\n      0xffffffffffffffffffffffffffffffffffffffff\n      mul\n      not\n      and\n      swap1\n      sstore\n      0x01\n      dup3\n      add\n      0x00\n      swap1\n      sstore\n      0x02\n      dup3\n      add\n      0x00\n      swap1\n      sstore\n      0x03\n      dup3\n      add\n      exp(0x0100, 0x00)\n      dup2\n      sload\n      swap1\n      0xffffffff\n      mul\n      not\n      and\n      swap1\n      sstore\n      0x03\n      dup3\n      add\n      exp(0x0100, 0x04)\n      dup2\n      sload\n      swap1\n      0xffffffff\n      mul\n      not\n      and\n      swap1\n      sstore\n      0x03\n      dup3\n      add\n      exp(0x0100, 0x08)\n      dup2\n      sload\n      swap1\n      0xff\n      mul\n      not\n      and\n      swap1\n      sstore\n      pop\n      pop\n        /* \"CrowdFund.sol\":1882:1893  Cancel(_id) */\n      0x8bf30e7ff26833413be5f69e1d373744864d600b664204b4a2f9844a8eedb9ed\n        /* \"CrowdFund.sol\":1889:1892  _id */\n      dup3\n        /* \"CrowdFund.sol\":1882:1893  Cancel(_id) */\n      mload(0x40)\n      tag_104\n      swap2\n      swap1\n      tag_17\n      jump\t// in\n    tag_104:\n      mload(0x40)\n      dup1\n      swap2\n      sub\n      swap1\n      log1\n        /* \"CrowdFund.sol\":1652:1901  {... */\n      pop\n        /* \"CrowdFund.sol\":1617:1901  function cancel(uint _id) external {... */\n      pop\n      jump\t// out\n        /* \"CrowdFund.sol\":2370:2734  function unpledge(uint _id, uint _amount) external {... */\n    tag_40:\n        /* \"CrowdFund.sol\":2432:2457  Campaign storage campaign */\n      0x00\n        /* \"CrowdFund.sol\":2460:2469  campaigns */\n      0x01\n        /* \"CrowdFund.sol\":2460:2474  campaigns[_id] */\n      0x00\n        /* \"CrowdFund.sol\":2470:2473  _id */\n      dup5\n        /* \"CrowdFund.sol\":2460:2474  campaigns[_id] */\n      dup2\n      mstore\n      0x20\n      add\n      swap1\n      dup2\n      mstore\n      0x20\n      add\n      0x00\n      keccak256\n        /* \"CrowdFund.sol\":2432:2474  Campaign storage campaign = campaigns[_id] */\n      swap1\n      pop\n        /* \"CrowdFund.sol\":2512:2520  campaign */\n      dup1\n        /* \"CrowdFund.sol\":2512:2526  campaign.endAt */\n      0x03\n      add\n      0x04\n      swap1\n      sload\n      swap1\n      0x0100\n      exp\n      swap1\n      div\n      0xffffffff\n      and\n        /* \"CrowdFund.sol\":2493:2526  block.timestamp <= campaign.endAt */\n      0xffffffff\n      and\n        /* \"CrowdFund.sol\":2493:2508  block.timestamp */\n      timestamp\n        /* \"CrowdFund.sol\":2493:2526  block.timestamp <= campaign.endAt */\n      gt\n      iszero\n        /* \"CrowdFund.sol\":2485:2536  require(block.timestamp <= campaign.endAt, \"ended\") */\n      tag_106\n      jumpi\n      mload(0x40)\n      0x08c379a000000000000000000000000000000000000000000000000000000000\n      dup2\n      mstore\n      0x04\n      add\n      tag_107\n      swap1\n      tag_108\n      jump\t// in\n    tag_107:\n      mload(0x40)\n      dup1\n      swap2\n      sub\n      swap1\n      revert\n    tag_106:\n        /* \"CrowdFund.sol\":2569:2576  _amount */\n      dup2\n        /* \"CrowdFund.sol\":2549:2557  campaign */\n      dup2\n        /* \"CrowdFund.sol\":2549:2565  campaign.pledged */\n      0x02\n      add\n      0x00\n        /* \"CrowdFund.sol\":2549:2576  campaign.pledged -= _amount */\n      dup3\n      dup3\n      sload\n      tag_109\n      swap2\n      swap1\n      tag_110\n      jump\t// in\n    tag_109:\n      swap3\n      pop\n      pop\n      dup2\n      swap1\n      sstore\n      pop\n        /* \"CrowdFund.sol\":2621:2628  _amount */\n      dup2\n        /* \"CrowdFund.sol\":2587:2600  pledgedAmount */\n      0x02\n        /* \"CrowdFund.sol\":2587:2605  pledgedAmount[_id] */\n      0x00\n        /* \"CrowdFund.sol\":2601:2604  _id */\n      dup6\n        /* \"CrowdFund.sol\":2587:2605  pledgedAmount[_id] */\n      dup2\n      mstore\n      0x20\n      add\n      swap1\n      dup2\n      mstore\n      0x20\n      add\n      0x00\n      keccak256\n        /* \"CrowdFund.sol\":2587:2617  pledgedAmount[_id][msg.sender] */\n      0x00\n        /* \"CrowdFund.sol\":2606:2616  msg.sender */\n      caller\n        /* \"CrowdFund.sol\":2587:2617  pledgedAmount[_id][msg.sender] */\n      0xffffffffffffffffffffffffffffffffffffffff\n      and\n      0xffffffffffffffffffffffffffffffffffffffff\n      and\n      dup2\n      mstore\n      0x20\n      add\n      swap1\n      dup2\n      mstore\n      0x20\n      add\n      0x00\n      keccak256\n      0x00\n        /* \"CrowdFund.sol\":2587:2628  pledgedAmount[_id][msg.sender] -= _amount */\n      dup3\n      dup3\n      sload\n      tag_111\n      swap2\n      swap1\n      tag_110\n      jump\t// in\n    tag_111:\n      swap3\n      pop\n      pop\n      dup2\n      swap1\n      sstore\n      pop\n        /* \"CrowdFund.sol\":2639:2644  token */\n      immutable(\"0xd9670a00d025e59e1bd58d53874bea4ab34fea782716e2c168e89a3c8452d3bb\")\n        /* \"CrowdFund.sol\":2639:2653  token.transfer */\n      0xffffffffffffffffffffffffffffffffffffffff\n      and\n      0xa9059cbb\n        /* \"CrowdFund.sol\":2654:2664  msg.sender */\n      caller\n        /* \"CrowdFund.sol\":2666:2673  _amount */\n      dup5\n        /* \"CrowdFund.sol\":2639:2674  token.transfer(msg.sender, _amount) */\n      mload(0x40)\n      dup4\n      0xffffffff\n      and\n      0xe0\n      shl\n      dup2\n      mstore\n      0x04\n      add\n      tag_112\n      swap3\n      swap2\n      swap1\n      tag_61\n      jump\t// in\n    tag_112:\n      0x20\n      mload(0x40)\n      dup1\n      dup4\n      sub\n      dup2\n      0x00\n      dup8\n      gas\n      call\n      iszero\n      dup1\n      iszero\n      tag_114\n      jumpi\n      returndatasize\n      0x00\n      dup1\n      returndatacopy\n      revert(0x00, returndatasize)\n    tag_114:\n      pop\n      pop\n      pop\n      pop\n      mload(0x40)\n      returndatasize\n      not(0x1f)\n      0x1f\n      dup3\n      add\n      and\n      dup3\n      add\n      dup1\n      0x40\n      mstore\n      pop\n      dup2\n      add\n      swap1\n      tag_115\n      swap2\n      swap1\n      tag_65\n      jump\t// in\n    tag_115:\n      pop\n        /* \"CrowdFund.sol\":2706:2716  msg.sender */\n      caller\n        /* \"CrowdFund.sol\":2692:2726  Unpledge(_id, msg.sender, _amount) */\n      0xffffffffffffffffffffffffffffffffffffffff\n      and\n        /* \"CrowdFund.sol\":2701:2704  _id */\n      dup4\n        /* \"CrowdFund.sol\":2692:2726  Unpledge(_id, msg.sender, _amount) */\n      0x2eeeab891b26a214d1b25749f88a406bdea852bd8c9bfda977e0ef8114c180ba\n        /* \"CrowdFund.sol\":2718:2725  _amount */\n      dup5\n        /* \"CrowdFund.sol\":2692:2726  Unpledge(_id, msg.sender, _amount) */\n      mload(0x40)\n      tag_116\n      swap2\n      swap1\n      tag_17\n      jump\t// in\n    tag_116:\n      mload(0x40)\n      dup1\n      swap2\n      sub\n      swap1\n      log3\n        /* \"CrowdFund.sol\":2421:2734  {... */\n      pop\n        /* \"CrowdFund.sol\":2370:2734  function unpledge(uint _id, uint _amount) external {... */\n      pop\n      pop\n      jump\t// out\n        /* \"CrowdFund.sol\":823:885  mapping(uint => mapping(address => uint)) public pledgedAmount */\n    tag_44:\n      mstore(0x20, 0x02)\n      dup2\n      0x00\n      mstore\n      mstore(0x20, keccak256(0x00, 0x40))\n      dup1\n      0x00\n      mstore\n      keccak256(0x00, 0x40)\n      0x00\n      swap2\n      pop\n      swap2\n      pop\n      pop\n      sload\n      dup2\n      jump\t// out\n        /* \"CrowdFund.sol\":714:743  IERC20 public immutable token */\n    tag_47:\n      immutable(\"0xd9670a00d025e59e1bd58d53874bea4ab34fea782716e2c168e89a3c8452d3bb\")\n      dup2\n      jump\t// out\n        /* \"CrowdFund.sol\":1913:2362  function pledge(uint _id, uint _amount) external {... */\n    tag_52:\n        /* \"CrowdFund.sol\":1973:1998  Campaign storage campaign */\n      0x00\n        /* \"CrowdFund.sol\":2001:2010  campaigns */\n      0x01\n        /* \"CrowdFund.sol\":2001:2015  campaigns[_id] */\n      0x00\n        /* \"CrowdFund.sol\":2011:2014  _id */\n      dup5\n        /* \"CrowdFund.sol\":2001:2015  campaigns[_id] */\n      dup2\n      mstore\n      0x20\n      add\n      swap1\n      dup2\n      mstore\n      0x20\n      add\n      0x00\n      keccak256\n        /* \"CrowdFund.sol\":1973:2015  Campaign storage campaign = campaigns[_id] */\n      swap1\n      pop\n        /* \"CrowdFund.sol\":2053:2061  campaign */\n      dup1\n        /* \"CrowdFund.sol\":2053:2069  campaign.startAt */\n      0x03\n      add\n      0x00\n      swap1\n      sload\n      swap1\n      0x0100\n      exp\n      swap1\n      div\n      0xffffffff\n      and\n        /* \"CrowdFund.sol\":2034:2069  block.timestamp >= campaign.startAt */\n      0xffffffff\n      and\n        /* \"CrowdFund.sol\":2034:2049  block.timestamp */\n      timestamp\n        /* \"CrowdFund.sol\":2034:2069  block.timestamp >= campaign.startAt */\n      lt\n      iszero\n        /* \"CrowdFund.sol\":2026:2085  require(block.timestamp >= campaign.startAt, \"not started\") */\n      tag_118\n      jumpi\n      mload(0x40)\n      0x08c379a000000000000000000000000000000000000000000000000000000000\n      dup2\n      mstore\n      0x04\n      add\n      tag_119\n      swap1\n      tag_120\n      jump\t// in\n    tag_119:\n      mload(0x40)\n      dup1\n      swap2\n      sub\n      swap1\n      revert\n    tag_118:\n        /* \"CrowdFund.sol\":2123:2131  campaign */\n      dup1\n        /* \"CrowdFund.sol\":2123:2137  campaign.endAt */\n      0x03\n      add\n      0x04\n      swap1\n      sload\n      swap1\n      0x0100\n      exp\n      swap1\n      div\n      0xffffffff\n      and\n        /* \"CrowdFund.sol\":2104:2137  block.timestamp <= campaign.endAt */\n      0xffffffff\n      and\n        /* \"CrowdFund.sol\":2104:2119  block.timestamp */\n      timestamp\n        /* \"CrowdFund.sol\":2104:2137  block.timestamp <= campaign.endAt */\n      gt\n      iszero\n        /* \"CrowdFund.sol\":2096:2147  require(block.timestamp <= campaign.endAt, \"ended\") */\n      tag_121\n      jumpi\n      mload(0x40)\n      0x08c379a000000000000000000000000000000000000000000000000000000000\n      dup2\n      mstore\n      0x04\n      add\n      tag_122\n      swap1\n      tag_108\n      jump\t// in\n    tag_122:\n      mload(0x40)\n      dup1\n      swap2\n      sub\n      swap1\n      revert\n    tag_121:\n        /* \"CrowdFund.sol\":2180:2187  _amount */\n      dup2\n        /* \"CrowdFund.sol\":2160:2168  campaign */\n      dup2\n        /* \"CrowdFund.sol\":2160:2176  campaign.pledged */\n      0x02\n      add\n      0x00\n        /* \"CrowdFund.sol\":2160:2187  campaign.pledged += _amount */\n      dup3\n      dup3\n      sload\n      tag_123\n      swap2\n      swap1\n      tag_75\n      jump\t// in\n    tag_123:\n      swap3\n      pop\n      pop\n      dup2\n      swap1\n      sstore\n      pop\n        /* \"CrowdFund.sol\":2232:2239  _amount */\n      dup2\n        /* \"CrowdFund.sol\":2198:2211  pledgedAmount */\n      0x02\n        /* \"CrowdFund.sol\":2198:2216  pledgedAmount[_id] */\n      0x00\n        /* \"CrowdFund.sol\":2212:2215  _id */\n      dup6\n        /* \"CrowdFund.sol\":2198:2216  pledgedAmount[_id] */\n      dup2\n      mstore\n      0x20\n      add\n      swap1\n      dup2\n      mstore\n      0x20\n      add\n      0x00\n      keccak256\n        /* \"CrowdFund.sol\":2198:2228  pledgedAmount[_id][msg.sender] */\n      0x00\n        /* \"CrowdFund.sol\":2217:2227  msg.sender */\n      caller\n        /* \"CrowdFund.sol\":2198:2228  pledgedAmount[_id][msg.sender] */\n      0xffffffffffffffffffffffffffffffffffffffff\n      and\n      0xffffffffffffffffffffffffffffffffffffffff\n      and\n      dup2\n      mstore\n      0x20\n      add\n      swap1\n      dup2\n      mstore\n      0x20\n      add\n      0x00\n      keccak256\n      0x00\n        /* \"CrowdFund.sol\":2198:2239  pledgedAmount[_id][msg.sender] += _amount */\n      dup3\n      dup3\n      sload\n      tag_124\n      swap2\n      swap1\n      tag_75\n      jump\t// in\n    tag_124:\n      swap3\n      pop\n      pop\n      dup2\n      swap1\n      sstore\n      pop\n        /* \"CrowdFund.sol\":2250:2255  token */\n      immutable(\"0xd9670a00d025e59e1bd58d53874bea4ab34fea782716e2c168e89a3c8452d3bb\")\n        /* \"CrowdFund.sol\":2250:2268  token.transferFrom */\n      0xffffffffffffffffffffffffffffffffffffffff\n      and\n      0x23b872dd\n        /* \"CrowdFund.sol\":2269:2279  msg.sender */\n      caller\n        /* \"CrowdFund.sol\":2289:2293  this */\n      address\n        /* \"CrowdFund.sol\":2296:2303  _amount */\n      dup6\n        /* \"CrowdFund.sol\":2250:2304  token.transferFrom(msg.sender, address(this), _amount) */\n      mload(0x40)\n      dup5\n      0xffffffff\n      and\n      0xe0\n      shl\n      dup2\n      mstore\n      0x04\n      add\n      tag_125\n      swap4\n      swap3\n      swap2\n      swap1\n      tag_126\n      jump\t// in\n    tag_125:\n      0x20\n      mload(0x40)\n      dup1\n      dup4\n      sub\n      dup2\n      0x00\n      dup8\n      gas\n      call\n      iszero\n      dup1\n      iszero\n      tag_128\n      jumpi\n      returndatasize\n      0x00\n      dup1\n      returndatacopy\n      revert(0x00, returndatasize)\n    tag_128:\n      pop\n      pop\n      pop\n      pop\n      mload(0x40)\n      returndatasize\n      not(0x1f)\n      0x1f\n      dup3\n      add\n      and\n      dup3\n      add\n      dup1\n      0x40\n      mstore\n      pop\n      dup2\n      add\n      swap1\n      tag_129\n      swap2\n      swap1\n      tag_65\n      jump\t// in\n    tag_129:\n      pop\n        /* \"CrowdFund.sol\":2334:2344  msg.sender */\n      caller\n        /* \"CrowdFund.sol\":2322:2354  Pledge(_id, msg.sender, _amount) */\n      0xffffffffffffffffffffffffffffffffffffffff\n      and\n        /* \"CrowdFund.sol\":2329:2332  _id */\n      dup4\n        /* \"CrowdFund.sol\":2322:2354  Pledge(_id, msg.sender, _amount) */\n      0x06bdb975df800a73232998e71ed585d536222f1dfeaa622d7f62a23ada686c82\n        /* \"CrowdFund.sol\":2346:2353  _amount */\n      dup5\n        /* \"CrowdFund.sol\":2322:2354  Pledge(_id, msg.sender, _amount) */\n      mload(0x40)\n      tag_130\n      swap2\n      swap1\n      tag_17\n      jump\t// in\n    tag_130:\n      mload(0x40)\n      dup1\n      swap2\n      sub\n      swap1\n      log3\n        /* \"CrowdFund.sol\":1962:2362  {... */\n      pop\n        /* \"CrowdFund.sol\":1913:2362  function pledge(uint _id, uint _amount) external {... */\n      pop\n      pop\n      jump\t// out\n        /* \"#utility.yul\":7:84   */\n    tag_131:\n        /* \"#utility.yul\":44:51   */\n      0x00\n        /* \"#utility.yul\":73:78   */\n      dup2\n        /* \"#utility.yul\":62:78   */\n      swap1\n      pop\n        /* \"#utility.yul\":7:84   */\n      swap2\n      swap1\n      pop\n      jump\t// out\n        /* \"#utility.yul\":90:208   */\n    tag_132:\n        /* \"#utility.yul\":177:201   */\n      tag_181\n        /* \"#utility.yul\":195:200   */\n      dup2\n        /* \"#utility.yul\":177:201   */\n      tag_131\n      jump\t// in\n    tag_181:\n        /* \"#utility.yul\":172:175   */\n      dup3\n        /* \"#utility.yul\":165:202   */\n      mstore\n        /* \"#utility.yul\":90:208   */\n      pop\n      pop\n      jump\t// out\n        /* \"#utility.yul\":214:436   */\n    tag_17:\n        /* \"#utility.yul\":307:311   */\n      0x00\n        /* \"#utility.yul\":345:347   */\n      0x20\n        /* \"#utility.yul\":334:343   */\n      dup3\n        /* \"#utility.yul\":330:348   */\n      add\n        /* \"#utility.yul\":322:348   */\n      swap1\n      pop\n        /* \"#utility.yul\":358:429   */\n      tag_183\n        /* \"#utility.yul\":426:427   */\n      0x00\n        /* \"#utility.yul\":415:424   */\n      dup4\n        /* \"#utility.yul\":411:428   */\n      add\n        /* \"#utility.yul\":402:408   */\n      dup5\n        /* \"#utility.yul\":358:429   */\n      tag_132\n      jump\t// in\n    tag_183:\n        /* \"#utility.yul\":214:436   */\n      swap3\n      swap2\n      pop\n      pop\n      jump\t// out\n        /* \"#utility.yul\":523:640   */\n    tag_134:\n        /* \"#utility.yul\":632:633   */\n      0x00\n        /* \"#utility.yul\":629:630   */\n      dup1\n        /* \"#utility.yul\":622:634   */\n      revert\n        /* \"#utility.yul\":769:891   */\n    tag_136:\n        /* \"#utility.yul\":842:866   */\n      tag_188\n        /* \"#utility.yul\":860:865   */\n      dup2\n        /* \"#utility.yul\":842:866   */\n      tag_131\n      jump\t// in\n    tag_188:\n        /* \"#utility.yul\":835:840   */\n      dup2\n        /* \"#utility.yul\":832:867   */\n      eq\n        /* \"#utility.yul\":822:885   */\n      tag_189\n      jumpi\n        /* \"#utility.yul\":881:882   */\n      0x00\n        /* \"#utility.yul\":878:879   */\n      dup1\n        /* \"#utility.yul\":871:883   */\n      revert\n        /* \"#utility.yul\":822:885   */\n    tag_189:\n        /* \"#utility.yul\":769:891   */\n      pop\n      jump\t// out\n        /* \"#utility.yul\":897:1036   */\n    tag_137:\n        /* \"#utility.yul\":943:948   */\n      0x00\n        /* \"#utility.yul\":981:987   */\n      dup2\n        /* \"#utility.yul\":968:988   */\n      calldataload\n        /* \"#utility.yul\":959:988   */\n      swap1\n      pop\n        /* \"#utility.yul\":997:1030   */\n      tag_191\n        /* \"#utility.yul\":1024:1029   */\n      dup2\n        /* \"#utility.yul\":997:1030   */\n      tag_136\n      jump\t// in\n    tag_191:\n        /* \"#utility.yul\":897:1036   */\n      swap3\n      swap2\n      pop\n      pop\n      jump\t// out\n        /* \"#utility.yul\":1042:1371   */\n    tag_20:\n        /* \"#utility.yul\":1101:1107   */\n      0x00\n        /* \"#utility.yul\":1150:1152   */\n      0x20\n        /* \"#utility.yul\":1138:1147   */\n      dup3\n        /* \"#utility.yul\":1129:1136   */\n      dup5\n        /* \"#utility.yul\":1125:1148   */\n      sub\n        /* \"#utility.yul\":1121:1153   */\n      slt\n        /* \"#utility.yul\":1118:1237   */\n      iszero\n      tag_193\n      jumpi\n        /* \"#utility.yul\":1156:1235   */\n      tag_194\n      tag_134\n      jump\t// in\n    tag_194:\n        /* \"#utility.yul\":1118:1237   */\n    tag_193:\n        /* \"#utility.yul\":1276:1277   */\n      0x00\n        /* \"#utility.yul\":1301:1354   */\n      tag_195\n        /* \"#utility.yul\":1346:1353   */\n      dup5\n        /* \"#utility.yul\":1337:1343   */\n      dup3\n        /* \"#utility.yul\":1326:1335   */\n      dup6\n        /* \"#utility.yul\":1322:1344   */\n      add\n        /* \"#utility.yul\":1301:1354   */\n      tag_137\n      jump\t// in\n    tag_195:\n        /* \"#utility.yul\":1291:1354   */\n      swap2\n      pop\n        /* \"#utility.yul\":1247:1364   */\n      pop\n        /* \"#utility.yul\":1042:1371   */\n      swap3\n      swap2\n      pop\n      pop\n      jump\t// out\n        /* \"#utility.yul\":1377:1503   */\n    tag_138:\n        /* \"#utility.yul\":1414:1421   */\n      0x00\n        /* \"#utility.yul\":1454:1496   */\n      0xffffffffffffffffffffffffffffffffffffffff\n        /* \"#utility.yul\":1447:1452   */\n      dup3\n        /* \"#utility.yul\":1443:1497   */\n      and\n        /* \"#utility.yul\":1432:1497   */\n      swap1\n      pop\n        /* \"#utility.yul\":1377:1503   */\n      swap2\n      swap1\n      pop\n      jump\t// out\n        /* \"#utility.yul\":1509:1605   */\n    tag_139:\n        /* \"#utility.yul\":1546:1553   */\n      0x00\n        /* \"#utility.yul\":1575:1599   */\n      tag_198\n        /* \"#utility.yul\":1593:1598   */\n      dup3\n        /* \"#utility.yul\":1575:1599   */\n      tag_138\n      jump\t// in\n    tag_198:\n        /* \"#utility.yul\":1564:1599   */\n      swap1\n      pop\n        /* \"#utility.yul\":1509:1605   */\n      swap2\n      swap1\n      pop\n      jump\t// out\n        /* \"#utility.yul\":1611:1729   */\n    tag_140:\n        /* \"#utility.yul\":1698:1722   */\n      tag_200\n        /* \"#utility.yul\":1716:1721   */\n      dup2\n        /* \"#utility.yul\":1698:1722   */\n      tag_139\n      jump\t// in\n    tag_200:\n        /* \"#utility.yul\":1693:1696   */\n      dup3\n        /* \"#utility.yul\":1686:1723   */\n      mstore\n        /* \"#utility.yul\":1611:1729   */\n      pop\n      pop\n      jump\t// out\n        /* \"#utility.yul\":1735:1828   */\n    tag_141:\n        /* \"#utility.yul\":1771:1778   */\n      0x00\n        /* \"#utility.yul\":1811:1821   */\n      0xffffffff\n        /* \"#utility.yul\":1804:1809   */\n      dup3\n        /* \"#utility.yul\":1800:1822   */\n      and\n        /* \"#utility.yul\":1789:1822   */\n      swap1\n      pop\n        /* \"#utility.yul\":1735:1828   */\n      swap2\n      swap1\n      pop\n      jump\t// out\n        /* \"#utility.yul\":1834:1949   */\n    tag_142:\n        /* \"#utility.yul\":1919:1942   */\n      tag_203\n        /* \"#utility.yul\":1936:1941   */\n      dup2\n        /* \"#utility.yul\":1919:1942   */\n      tag_141\n      jump\t// in\n    tag_203:\n        /* \"#utility.yul\":1914:1917   */\n      dup3\n        /* \"#utility.yul\":1907:1943   */\n      mstore\n        /* \"#utility.yul\":1834:1949   */\n      pop\n      pop\n      jump\t// out\n        /* \"#utility.yul\":1955:2045   */\n    tag_143:\n        /* \"#utility.yul\":1989:1996   */\n      0x00\n        /* \"#utility.yul\":2032:2037   */\n      dup2\n        /* \"#utility.yul\":2025:2038   */\n      iszero\n        /* \"#utility.yul\":2018:2039   */\n      iszero\n        /* \"#utility.yul\":2007:2039   */\n      swap1\n      pop\n        /* \"#utility.yul\":1955:2045   */\n      swap2\n      swap1\n      pop\n      jump\t// out\n        /* \"#utility.yul\":2051:2160   */\n    tag_144:\n        /* \"#utility.yul\":2132:2153   */\n      tag_206\n        /* \"#utility.yul\":2147:2152   */\n      dup2\n        /* \"#utility.yul\":2132:2153   */\n      tag_143\n      jump\t// in\n    tag_206:\n        /* \"#utility.yul\":2127:2130   */\n      dup3\n        /* \"#utility.yul\":2120:2154   */\n      mstore\n        /* \"#utility.yul\":2051:2160   */\n      pop\n      pop\n      jump\t// out\n        /* \"#utility.yul\":2166:2921   */\n    tag_23:\n        /* \"#utility.yul\":2389:2393   */\n      0x00\n        /* \"#utility.yul\":2427:2430   */\n      0xc0\n        /* \"#utility.yul\":2416:2425   */\n      dup3\n        /* \"#utility.yul\":2412:2431   */\n      add\n        /* \"#utility.yul\":2404:2431   */\n      swap1\n      pop\n        /* \"#utility.yul\":2441:2512   */\n      tag_208\n        /* \"#utility.yul\":2509:2510   */\n      0x00\n        /* \"#utility.yul\":2498:2507   */\n      dup4\n        /* \"#utility.yul\":2494:2511   */\n      add\n        /* \"#utility.yul\":2485:2491   */\n      dup10\n        /* \"#utility.yul\":2441:2512   */\n      tag_140\n      jump\t// in\n    tag_208:\n        /* \"#utility.yul\":2522:2594   */\n      tag_209\n        /* \"#utility.yul\":2590:2592   */\n      0x20\n        /* \"#utility.yul\":2579:2588   */\n      dup4\n        /* \"#utility.yul\":2575:2593   */\n      add\n        /* \"#utility.yul\":2566:2572   */\n      dup9\n        /* \"#utility.yul\":2522:2594   */\n      tag_132\n      jump\t// in\n    tag_209:\n        /* \"#utility.yul\":2604:2676   */\n      tag_210\n        /* \"#utility.yul\":2672:2674   */\n      0x40\n        /* \"#utility.yul\":2661:2670   */\n      dup4\n        /* \"#utility.yul\":2657:2675   */\n      add\n        /* \"#utility.yul\":2648:2654   */\n      dup8\n        /* \"#utility.yul\":2604:2676   */\n      tag_132\n      jump\t// in\n    tag_210:\n        /* \"#utility.yul\":2686:2756   */\n      tag_211\n        /* \"#utility.yul\":2752:2754   */\n      0x60\n        /* \"#utility.yul\":2741:2750   */\n      dup4\n        /* \"#utility.yul\":2737:2755   */\n      add\n        /* \"#utility.yul\":2728:2734   */\n      dup7\n        /* \"#utility.yul\":2686:2756   */\n      tag_142\n      jump\t// in\n    tag_211:\n        /* \"#utility.yul\":2766:2837   */\n      tag_212\n        /* \"#utility.yul\":2832:2835   */\n      0x80\n        /* \"#utility.yul\":2821:2830   */\n      dup4\n        /* \"#utility.yul\":2817:2836   */\n      add\n        /* \"#utility.yul\":2808:2814   */\n      dup6\n        /* \"#utility.yul\":2766:2837   */\n      tag_142\n      jump\t// in\n    tag_212:\n        /* \"#utility.yul\":2847:2914   */\n      tag_213\n        /* \"#utility.yul\":2909:2912   */\n      0xa0\n        /* \"#utility.yul\":2898:2907   */\n      dup4\n        /* \"#utility.yul\":2894:2913   */\n      add\n        /* \"#utility.yul\":2885:2891   */\n      dup5\n        /* \"#utility.yul\":2847:2914   */\n      tag_144\n      jump\t// in\n    tag_213:\n        /* \"#utility.yul\":2166:2921   */\n      swap8\n      swap7\n      pop\n      pop\n      pop\n      pop\n      pop\n      pop\n      pop\n      jump\t// out\n        /* \"#utility.yul\":2927:3047   */\n    tag_145:\n        /* \"#utility.yul\":2999:3022   */\n      tag_215\n        /* \"#utility.yul\":3016:3021   */\n      dup2\n        /* \"#utility.yul\":2999:3022   */\n      tag_141\n      jump\t// in\n    tag_215:\n        /* \"#utility.yul\":2992:2997   */\n      dup2\n        /* \"#utility.yul\":2989:3023   */\n      eq\n        /* \"#utility.yul\":2979:3041   */\n      tag_216\n      jumpi\n        /* \"#utility.yul\":3037:3038   */\n      0x00\n        /* \"#utility.yul\":3034:3035   */\n      dup1\n        /* \"#utility.yul\":3027:3039   */\n      revert\n        /* \"#utility.yul\":2979:3041   */\n    tag_216:\n        /* \"#utility.yul\":2927:3047   */\n      pop\n      jump\t// out\n        /* \"#utility.yul\":3053:3190   */\n    tag_146:\n        /* \"#utility.yul\":3098:3103   */\n      0x00\n        /* \"#utility.yul\":3136:3142   */\n      dup2\n        /* \"#utility.yul\":3123:3143   */\n      calldataload\n        /* \"#utility.yul\":3114:3143   */\n      swap1\n      pop\n        /* \"#utility.yul\":3152:3184   */\n      tag_218\n        /* \"#utility.yul\":3178:3183   */\n      dup2\n        /* \"#utility.yul\":3152:3184   */\n      tag_145\n      jump\t// in\n    tag_218:\n        /* \"#utility.yul\":3053:3190   */\n      swap3\n      swap2\n      pop\n      pop\n      jump\t// out\n        /* \"#utility.yul\":3196:3811   */\n    tag_29:\n        /* \"#utility.yul\":3271:3277   */\n      0x00\n        /* \"#utility.yul\":3279:3285   */\n      dup1\n        /* \"#utility.yul\":3287:3293   */\n      0x00\n        /* \"#utility.yul\":3336:3338   */\n      0x60\n        /* \"#utility.yul\":3324:3333   */\n      dup5\n        /* \"#utility.yul\":3315:3322   */\n      dup7\n        /* \"#utility.yul\":3311:3334   */\n      sub\n        /* \"#utility.yul\":3307:3339   */\n      slt\n        /* \"#utility.yul\":3304:3423   */\n      iszero\n      tag_220\n      jumpi\n        /* \"#utility.yul\":3342:3421   */\n      tag_221\n      tag_134\n      jump\t// in\n    tag_221:\n        /* \"#utility.yul\":3304:3423   */\n    tag_220:\n        /* \"#utility.yul\":3462:3463   */\n      0x00\n        /* \"#utility.yul\":3487:3540   */\n      tag_222\n        /* \"#utility.yul\":3532:3539   */\n      dup7\n        /* \"#utility.yul\":3523:3529   */\n      dup3\n        /* \"#utility.yul\":3512:3521   */\n      dup8\n        /* \"#utility.yul\":3508:3530   */\n      add\n        /* \"#utility.yul\":3487:3540   */\n      tag_137\n      jump\t// in\n    tag_222:\n        /* \"#utility.yul\":3477:3540   */\n      swap4\n      pop\n        /* \"#utility.yul\":3433:3550   */\n      pop\n        /* \"#utility.yul\":3589:3591   */\n      0x20\n        /* \"#utility.yul\":3615:3667   */\n      tag_223\n        /* \"#utility.yul\":3659:3666   */\n      dup7\n        /* \"#utility.yul\":3650:3656   */\n      dup3\n        /* \"#utility.yul\":3639:3648   */\n      dup8\n        /* \"#utility.yul\":3635:3657   */\n      add\n        /* \"#utility.yul\":3615:3667   */\n      tag_146\n      jump\t// in\n    tag_223:\n        /* \"#utility.yul\":3605:3667   */\n      swap3\n      pop\n        /* \"#utility.yul\":3560:3677   */\n      pop\n        /* \"#utility.yul\":3716:3718   */\n      0x40\n        /* \"#utility.yul\":3742:3794   */\n      tag_224\n        /* \"#utility.yul\":3786:3793   */\n      dup7\n        /* \"#utility.yul\":3777:3783   */\n      dup3\n        /* \"#utility.yul\":3766:3775   */\n      dup8\n        /* \"#utility.yul\":3762:3784   */\n      add\n        /* \"#utility.yul\":3742:3794   */\n      tag_146\n      jump\t// in\n    tag_224:\n        /* \"#utility.yul\":3732:3794   */\n      swap2\n      pop\n        /* \"#utility.yul\":3687:3804   */\n      pop\n        /* \"#utility.yul\":3196:3811   */\n      swap3\n      pop\n      swap3\n      pop\n      swap3\n      jump\t// out\n        /* \"#utility.yul\":3817:4291   */\n    tag_39:\n        /* \"#utility.yul\":3885:3891   */\n      0x00\n        /* \"#utility.yul\":3893:3899   */\n      dup1\n        /* \"#utility.yul\":3942:3944   */\n      0x40\n        /* \"#utility.yul\":3930:3939   */\n      dup4\n        /* \"#utility.yul\":3921:3928   */\n      dup6\n        /* \"#utility.yul\":3917:3940   */\n      sub\n        /* \"#utility.yul\":3913:3945   */\n      slt\n        /* \"#utility.yul\":3910:4029   */\n      iszero\n      tag_226\n      jumpi\n        /* \"#utility.yul\":3948:4027   */\n      tag_227\n      tag_134\n      jump\t// in\n    tag_227:\n        /* \"#utility.yul\":3910:4029   */\n    tag_226:\n        /* \"#utility.yul\":4068:4069   */\n      0x00\n        /* \"#utility.yul\":4093:4146   */\n      tag_228\n        /* \"#utility.yul\":4138:4145   */\n      dup6\n        /* \"#utility.yul\":4129:4135   */\n      dup3\n        /* \"#utility.yul\":4118:4127   */\n      dup7\n        /* \"#utility.yul\":4114:4136   */\n      add\n        /* \"#utility.yul\":4093:4146   */\n      tag_137\n      jump\t// in\n    tag_228:\n        /* \"#utility.yul\":4083:4146   */\n      swap3\n      pop\n        /* \"#utility.yul\":4039:4156   */\n      pop\n        /* \"#utility.yul\":4195:4197   */\n      0x20\n        /* \"#utility.yul\":4221:4274   */\n      tag_229\n        /* \"#utility.yul\":4266:4273   */\n      dup6\n        /* \"#utility.yul\":4257:4263   */\n      dup3\n        /* \"#utility.yul\":4246:4255   */\n      dup7\n        /* \"#utility.yul\":4242:4264   */\n      add\n        /* \"#utility.yul\":4221:4274   */\n      tag_137\n      jump\t// in\n    tag_229:\n        /* \"#utility.yul\":4211:4274   */\n      swap2\n      pop\n        /* \"#utility.yul\":4166:4284   */\n      pop\n        /* \"#utility.yul\":3817:4291   */\n      swap3\n      pop\n      swap3\n      swap1\n      pop\n      jump\t// out\n        /* \"#utility.yul\":4297:4419   */\n    tag_147:\n        /* \"#utility.yul\":4370:4394   */\n      tag_231\n        /* \"#utility.yul\":4388:4393   */\n      dup2\n        /* \"#utility.yul\":4370:4394   */\n      tag_139\n      jump\t// in\n    tag_231:\n        /* \"#utility.yul\":4363:4368   */\n      dup2\n        /* \"#utility.yul\":4360:4395   */\n      eq\n        /* \"#utility.yul\":4350:4413   */\n      tag_232\n      jumpi\n        /* \"#utility.yul\":4409:4410   */\n      0x00\n        /* \"#utility.yul\":4406:4407   */\n      dup1\n        /* \"#utility.yul\":4399:4411   */\n      revert\n        /* \"#utility.yul\":4350:4413   */\n    tag_232:\n        /* \"#utility.yul\":4297:4419   */\n      pop\n      jump\t// out\n        /* \"#utility.yul\":4425:4564   */\n    tag_148:\n        /* \"#utility.yul\":4471:4476   */\n      0x00\n        /* \"#utility.yul\":4509:4515   */\n      dup2\n        /* \"#utility.yul\":4496:4516   */\n      calldataload\n        /* \"#utility.yul\":4487:4516   */\n      swap1\n      pop\n        /* \"#utility.yul\":4525:4558   */\n      tag_234\n        /* \"#utility.yul\":4552:4557   */\n      dup2\n        /* \"#utility.yul\":4525:4558   */\n      tag_147\n      jump\t// in\n    tag_234:\n        /* \"#utility.yul\":4425:4564   */\n      swap3\n      swap2\n      pop\n      pop\n      jump\t// out\n        /* \"#utility.yul\":4570:5044   */\n    tag_43:\n        /* \"#utility.yul\":4638:4644   */\n      0x00\n        /* \"#utility.yul\":4646:4652   */\n      dup1\n        /* \"#utility.yul\":4695:4697   */\n      0x40\n        /* \"#utility.yul\":4683:4692   */\n      dup4\n        /* \"#utility.yul\":4674:4681   */\n      dup6\n        /* \"#utility.yul\":4670:4693   */\n      sub\n        /* \"#utility.yul\":4666:4698   */\n      slt\n        /* \"#utility.yul\":4663:4782   */\n      iszero\n      tag_236\n      jumpi\n        /* \"#utility.yul\":4701:4780   */\n      tag_237\n      tag_134\n      jump\t// in\n    tag_237:\n        /* \"#utility.yul\":4663:4782   */\n    tag_236:\n        /* \"#utility.yul\":4821:4822   */\n      0x00\n        /* \"#utility.yul\":4846:4899   */\n      tag_238\n        /* \"#utility.yul\":4891:4898   */\n      dup6\n        /* \"#utility.yul\":4882:4888   */\n      dup3\n        /* \"#utility.yul\":4871:4880   */\n      dup7\n        /* \"#utility.yul\":4867:4889   */\n      add\n        /* \"#utility.yul\":4846:4899   */\n      tag_137\n      jump\t// in\n    tag_238:\n        /* \"#utility.yul\":4836:4899   */\n      swap3\n      pop\n        /* \"#utility.yul\":4792:4909   */\n      pop\n        /* \"#utility.yul\":4948:4950   */\n      0x20\n        /* \"#utility.yul\":4974:5027   */\n      tag_239\n        /* \"#utility.yul\":5019:5026   */\n      dup6\n        /* \"#utility.yul\":5010:5016   */\n      dup3\n        /* \"#utility.yul\":4999:5008   */\n      dup7\n        /* \"#utility.yul\":4995:5017   */\n      add\n        /* \"#utility.yul\":4974:5027   */\n      tag_148\n      jump\t// in\n    tag_239:\n        /* \"#utility.yul\":4964:5027   */\n      swap2\n      pop\n        /* \"#utility.yul\":4919:5037   */\n      pop\n        /* \"#utility.yul\":4570:5044   */\n      swap3\n      pop\n      swap3\n      swap1\n      pop\n      jump\t// out\n        /* \"#utility.yul\":5050:5110   */\n    tag_149:\n        /* \"#utility.yul\":5078:5081   */\n      0x00\n        /* \"#utility.yul\":5099:5104   */\n      dup2\n        /* \"#utility.yul\":5092:5104   */\n      swap1\n      pop\n        /* \"#utility.yul\":5050:5110   */\n      swap2\n      swap1\n      pop\n      jump\t// out\n        /* \"#utility.yul\":5116:5258   */\n    tag_150:\n        /* \"#utility.yul\":5166:5175   */\n      0x00\n        /* \"#utility.yul\":5199:5252   */\n      tag_242\n        /* \"#utility.yul\":5217:5251   */\n      tag_243\n        /* \"#utility.yul\":5226:5250   */\n      tag_244\n        /* \"#utility.yul\":5244:5249   */\n      dup5\n        /* \"#utility.yul\":5226:5250   */\n      tag_138\n      jump\t// in\n    tag_244:\n        /* \"#utility.yul\":5217:5251   */\n      tag_149\n      jump\t// in\n    tag_243:\n        /* \"#utility.yul\":5199:5252   */\n      tag_138\n      jump\t// in\n    tag_242:\n        /* \"#utility.yul\":5186:5252   */\n      swap1\n      pop\n        /* \"#utility.yul\":5116:5258   */\n      swap2\n      swap1\n      pop\n      jump\t// out\n        /* \"#utility.yul\":5264:5390   */\n    tag_151:\n        /* \"#utility.yul\":5314:5323   */\n      0x00\n        /* \"#utility.yul\":5347:5384   */\n      tag_246\n        /* \"#utility.yul\":5378:5383   */\n      dup3\n        /* \"#utility.yul\":5347:5384   */\n      tag_150\n      jump\t// in\n    tag_246:\n        /* \"#utility.yul\":5334:5384   */\n      swap1\n      pop\n        /* \"#utility.yul\":5264:5390   */\n      swap2\n      swap1\n      pop\n      jump\t// out\n        /* \"#utility.yul\":5396:5536   */\n    tag_152:\n        /* \"#utility.yul\":5460:5469   */\n      0x00\n        /* \"#utility.yul\":5493:5530   */\n      tag_248\n        /* \"#utility.yul\":5524:5529   */\n      dup3\n        /* \"#utility.yul\":5493:5530   */\n      tag_151\n      jump\t// in\n    tag_248:\n        /* \"#utility.yul\":5480:5530   */\n      swap1\n      pop\n        /* \"#utility.yul\":5396:5536   */\n      swap2\n      swap1\n      pop\n      jump\t// out\n        /* \"#utility.yul\":5542:5701   */\n    tag_153:\n        /* \"#utility.yul\":5643:5694   */\n      tag_250\n        /* \"#utility.yul\":5688:5693   */\n      dup2\n        /* \"#utility.yul\":5643:5694   */\n      tag_152\n      jump\t// in\n    tag_250:\n        /* \"#utility.yul\":5638:5641   */\n      dup3\n        /* \"#utility.yul\":5631:5695   */\n      mstore\n        /* \"#utility.yul\":5542:5701   */\n      pop\n      pop\n      jump\t// out\n        /* \"#utility.yul\":5707:5957   */\n    tag_49:\n        /* \"#utility.yul\":5814:5818   */\n      0x00\n        /* \"#utility.yul\":5852:5854   */\n      0x20\n        /* \"#utility.yul\":5841:5850   */\n      dup3\n        /* \"#utility.yul\":5837:5855   */\n      add\n        /* \"#utility.yul\":5829:5855   */\n      swap1\n      pop\n        /* \"#utility.yul\":5865:5950   */\n      tag_252\n        /* \"#utility.yul\":5947:5948   */\n      0x00\n        /* \"#utility.yul\":5936:5945   */\n      dup4\n        /* \"#utility.yul\":5932:5949   */\n      add\n        /* \"#utility.yul\":5923:5929   */\n      dup5\n        /* \"#utility.yul\":5865:5950   */\n      tag_153\n      jump\t// in\n    tag_252:\n        /* \"#utility.yul\":5707:5957   */\n      swap3\n      swap2\n      pop\n      pop\n      jump\t// out\n        /* \"#utility.yul\":5963:6132   */\n    tag_154:\n        /* \"#utility.yul\":6047:6058   */\n      0x00\n        /* \"#utility.yul\":6081:6087   */\n      dup3\n        /* \"#utility.yul\":6076:6079   */\n      dup3\n        /* \"#utility.yul\":6069:6088   */\n      mstore\n        /* \"#utility.yul\":6121:6125   */\n      0x20\n        /* \"#utility.yul\":6116:6119   */\n      dup3\n        /* \"#utility.yul\":6112:6126   */\n      add\n        /* \"#utility.yul\":6097:6126   */\n      swap1\n      pop\n        /* \"#utility.yul\":5963:6132   */\n      swap3\n      swap2\n      pop\n      pop\n      jump\t// out\n        /* \"#utility.yul\":6138:6297   */\n    tag_155:\n        /* \"#utility.yul\":6278:6289   */\n      0x6e6f7420656e6465640000000000000000000000000000000000000000000000\n        /* \"#utility.yul\":6274:6275   */\n      0x00\n        /* \"#utility.yul\":6266:6272   */\n      dup3\n        /* \"#utility.yul\":6262:6276   */\n      add\n        /* \"#utility.yul\":6255:6290   */\n      mstore\n        /* \"#utility.yul\":6138:6297   */\n      pop\n      jump\t// out\n        /* \"#utility.yul\":6303:6668   */\n    tag_156:\n        /* \"#utility.yul\":6445:6448   */\n      0x00\n        /* \"#utility.yul\":6466:6532   */\n      tag_256\n        /* \"#utility.yul\":6530:6531   */\n      0x09\n        /* \"#utility.yul\":6525:6528   */\n      dup4\n        /* \"#utility.yul\":6466:6532   */\n      tag_154\n      jump\t// in\n    tag_256:\n        /* \"#utility.yul\":6459:6532   */\n      swap2\n      pop\n        /* \"#utility.yul\":6541:6634   */\n      tag_257\n        /* \"#utility.yul\":6630:6633   */\n      dup3\n        /* \"#utility.yul\":6541:6634   */\n      tag_155\n      jump\t// in\n    tag_257:\n        /* \"#utility.yul\":6659:6661   */\n      0x20\n        /* \"#utility.yul\":6654:6657   */\n      dup3\n        /* \"#utility.yul\":6650:6662   */\n      add\n        /* \"#utility.yul\":6643:6662   */\n      swap1\n      pop\n        /* \"#utility.yul\":6303:6668   */\n      swap2\n      swap1\n      pop\n      jump\t// out\n        /* \"#utility.yul\":6674:7093   */\n    tag_56:\n        /* \"#utility.yul\":6840:6844   */\n      0x00\n        /* \"#utility.yul\":6878:6880   */\n      0x20\n        /* \"#utility.yul\":6867:6876   */\n      dup3\n        /* \"#utility.yul\":6863:6881   */\n      add\n        /* \"#utility.yul\":6855:6881   */\n      swap1\n      pop\n        /* \"#utility.yul\":6927:6936   */\n      dup2\n        /* \"#utility.yul\":6921:6925   */\n      dup2\n        /* \"#utility.yul\":6917:6937   */\n      sub\n        /* \"#utility.yul\":6913:6914   */\n      0x00\n        /* \"#utility.yul\":6902:6911   */\n      dup4\n        /* \"#utility.yul\":6898:6915   */\n      add\n        /* \"#utility.yul\":6891:6938   */\n      mstore\n        /* \"#utility.yul\":6955:7086   */\n      tag_259\n        /* \"#utility.yul\":7081:7085   */\n      dup2\n        /* \"#utility.yul\":6955:7086   */\n      tag_156\n      jump\t// in\n    tag_259:\n        /* \"#utility.yul\":6947:7086   */\n      swap1\n      pop\n        /* \"#utility.yul\":6674:7093   */\n      swap2\n      swap1\n      pop\n      jump\t// out\n        /* \"#utility.yul\":7099:7263   */\n    tag_157:\n        /* \"#utility.yul\":7239:7255   */\n      0x706c6564676564203c20676f616c000000000000000000000000000000000000\n        /* \"#utility.yul\":7235:7236   */\n      0x00\n        /* \"#utility.yul\":7227:7233   */\n      dup3\n        /* \"#utility.yul\":7223:7237   */\n      add\n        /* \"#utility.yul\":7216:7256   */\n      mstore\n        /* \"#utility.yul\":7099:7263   */\n      pop\n      jump\t// out\n        /* \"#utility.yul\":7269:7635   */\n    tag_158:\n        /* \"#utility.yul\":7411:7414   */\n      0x00\n        /* \"#utility.yul\":7432:7499   */\n      tag_262\n        /* \"#utility.yul\":7496:7498   */\n      0x0e\n        /* \"#utility.yul\":7491:7494   */\n      dup4\n        /* \"#utility.yul\":7432:7499   */\n      tag_154\n      jump\t// in\n    tag_262:\n        /* \"#utility.yul\":7425:7499   */\n      swap2\n      pop\n        /* \"#utility.yul\":7508:7601   */\n      tag_263\n        /* \"#utility.yul\":7597:7600   */\n      dup3\n        /* \"#utility.yul\":7508:7601   */\n      tag_157\n      jump\t// in\n    tag_263:\n        /* \"#utility.yul\":7626:7628   */\n      0x20\n        /* \"#utility.yul\":7621:7624   */\n      dup3\n        /* \"#utility.yul\":7617:7629   */\n      add\n        /* \"#utility.yul\":7610:7629   */\n      swap1\n      pop\n        /* \"#utility.yul\":7269:7635   */\n      swap2\n      swap1\n      pop\n      jump\t// out\n        /* \"#utility.yul\":7641:8060   */\n    tag_59:\n        /* \"#utility.yul\":7807:7811   */\n      0x00\n        /* \"#utility.yul\":7845:7847   */\n      0x20\n        /* \"#utility.yul\":7834:7843   */\n      dup3\n        /* \"#utility.yul\":7830:7848   */\n      add\n        /* \"#utility.yul\":7822:7848   */\n      swap1\n      pop\n        /* \"#utility.yul\":7894:7903   */\n      dup2\n        /* \"#utility.yul\":7888:7892   */\n      dup2\n        /* \"#utility.yul\":7884:7904   */\n      sub\n        /* \"#utility.yul\":7880:7881   */\n      0x00\n        /* \"#utility.yul\":7869:7878   */\n      dup4\n        /* \"#utility.yul\":7865:7882   */\n      add\n        /* \"#utility.yul\":7858:7905   */\n      mstore\n        /* \"#utility.yul\":7922:8053   */\n      tag_265\n        /* \"#utility.yul\":8048:8052   */\n      dup2\n        /* \"#utility.yul\":7922:8053   */\n      tag_158\n      jump\t// in\n    tag_265:\n        /* \"#utility.yul\":7914:8053   */\n      swap1\n      pop\n        /* \"#utility.yul\":7641:8060   */\n      swap2\n      swap1\n      pop\n      jump\t// out\n        /* \"#utility.yul\":8066:8398   */\n    tag_61:\n        /* \"#utility.yul\":8187:8191   */\n      0x00\n        /* \"#utility.yul\":8225:8227   */\n      0x40\n        /* \"#utility.yul\":8214:8223   */\n      dup3\n        /* \"#utility.yul\":8210:8228   */\n      add\n        /* \"#utility.yul\":8202:8228   */\n      swap1\n      pop\n        /* \"#utility.yul\":8238:8309   */\n      tag_267\n        /* \"#utility.yul\":8306:8307   */\n      0x00\n        /* \"#utility.yul\":8295:8304   */\n      dup4\n        /* \"#utility.yul\":8291:8308   */\n      add\n        /* \"#utility.yul\":8282:8288   */\n      dup6\n        /* \"#utility.yul\":8238:8309   */\n      tag_140\n      jump\t// in\n    tag_267:\n        /* \"#utility.yul\":8319:8391   */\n      tag_268\n        /* \"#utility.yul\":8387:8389   */\n      0x20\n        /* \"#utility.yul\":8376:8385   */\n      dup4\n        /* \"#utility.yul\":8372:8390   */\n      add\n        /* \"#utility.yul\":8363:8369   */\n      dup5\n        /* \"#utility.yul\":8319:8391   */\n      tag_132\n      jump\t// in\n    tag_268:\n        /* \"#utility.yul\":8066:8398   */\n      swap4\n      swap3\n      pop\n      pop\n      pop\n      jump\t// out\n        /* \"#utility.yul\":8404:8520   */\n    tag_159:\n        /* \"#utility.yul\":8474:8495   */\n      tag_270\n        /* \"#utility.yul\":8489:8494   */\n      dup2\n        /* \"#utility.yul\":8474:8495   */\n      tag_143\n      jump\t// in\n    tag_270:\n        /* \"#utility.yul\":8467:8472   */\n      dup2\n        /* \"#utility.yul\":8464:8496   */\n      eq\n        /* \"#utility.yul\":8454:8514   */\n      tag_271\n      jumpi\n        /* \"#utility.yul\":8510:8511   */\n      0x00\n        /* \"#utility.yul\":8507:8508   */\n      dup1\n        /* \"#utility.yul\":8500:8512   */\n      revert\n        /* \"#utility.yul\":8454:8514   */\n    tag_271:\n        /* \"#utility.yul\":8404:8520   */\n      pop\n      jump\t// out\n        /* \"#utility.yul\":8526:8663   */\n    tag_160:\n        /* \"#utility.yul\":8580:8585   */\n      0x00\n        /* \"#utility.yul\":8611:8617   */\n      dup2\n        /* \"#utility.yul\":8605:8618   */\n      mload\n        /* \"#utility.yul\":8596:8618   */\n      swap1\n      pop\n        /* \"#utility.yul\":8627:8657   */\n      tag_273\n        /* \"#utility.yul\":8651:8656   */\n      dup2\n        /* \"#utility.yul\":8627:8657   */\n      tag_159\n      jump\t// in\n    tag_273:\n        /* \"#utility.yul\":8526:8663   */\n      swap3\n      swap2\n      pop\n      pop\n      jump\t// out\n        /* \"#utility.yul\":8669:9014   */\n    tag_65:\n        /* \"#utility.yul\":8736:8742   */\n      0x00\n        /* \"#utility.yul\":8785:8787   */\n      0x20\n        /* \"#utility.yul\":8773:8782   */\n      dup3\n        /* \"#utility.yul\":8764:8771   */\n      dup5\n        /* \"#utility.yul\":8760:8783   */\n      sub\n        /* \"#utility.yul\":8756:8788   */\n      slt\n        /* \"#utility.yul\":8753:8872   */\n      iszero\n      tag_275\n      jumpi\n        /* \"#utility.yul\":8791:8870   */\n      tag_276\n      tag_134\n      jump\t// in\n    tag_276:\n        /* \"#utility.yul\":8753:8872   */\n    tag_275:\n        /* \"#utility.yul\":8911:8912   */\n      0x00\n        /* \"#utility.yul\":8936:8997   */\n      tag_277\n        /* \"#utility.yul\":8989:8996   */\n      dup5\n        /* \"#utility.yul\":8980:8986   */\n      dup3\n        /* \"#utility.yul\":8969:8978   */\n      dup6\n        /* \"#utility.yul\":8965:8987   */\n      add\n        /* \"#utility.yul\":8936:8997   */\n      tag_160\n      jump\t// in\n    tag_277:\n        /* \"#utility.yul\":8926:8997   */\n      swap2\n      pop\n        /* \"#utility.yul\":8882:9007   */\n      pop\n        /* \"#utility.yul\":8669:9014   */\n      swap3\n      swap2\n      pop\n      pop\n      jump\t// out\n        /* \"#utility.yul\":9020:9184   */\n    tag_161:\n        /* \"#utility.yul\":9160:9176   */\n      0x7374617274206174203c206e6f77000000000000000000000000000000000000\n        /* \"#utility.yul\":9156:9157   */\n      0x00\n        /* \"#utility.yul\":9148:9154   */\n      dup3\n        /* \"#utility.yul\":9144:9158   */\n      add\n        /* \"#utility.yul\":9137:9177   */\n      mstore\n        /* \"#utility.yul\":9020:9184   */\n      pop\n      jump\t// out\n        /* \"#utility.yul\":9190:9556   */\n    tag_162:\n        /* \"#utility.yul\":9332:9335   */\n      0x00\n        /* \"#utility.yul\":9353:9420   */\n      tag_280\n        /* \"#utility.yul\":9417:9419   */\n      0x0e\n        /* \"#utility.yul\":9412:9415   */\n      dup4\n        /* \"#utility.yul\":9353:9420   */\n      tag_154\n      jump\t// in\n    tag_280:\n        /* \"#utility.yul\":9346:9420   */\n      swap2\n      pop\n        /* \"#utility.yul\":9429:9522   */\n      tag_281\n        /* \"#utility.yul\":9518:9521   */\n      dup3\n        /* \"#utility.yul\":9429:9522   */\n      tag_161\n      jump\t// in\n    tag_281:\n        /* \"#utility.yul\":9547:9549   */\n      0x20\n        /* \"#utility.yul\":9542:9545   */\n      dup3\n        /* \"#utility.yul\":9538:9550   */\n      add\n        /* \"#utility.yul\":9531:9550   */\n      swap1\n      pop\n        /* \"#utility.yul\":9190:9556   */\n      swap2\n      swap1\n      pop\n      jump\t// out\n        /* \"#utility.yul\":9562:9981   */\n    tag_70:\n        /* \"#utility.yul\":9728:9732   */\n      0x00\n        /* \"#utility.yul\":9766:9768   */\n      0x20\n        /* \"#utility.yul\":9755:9764   */\n      dup3\n        /* \"#utility.yul\":9751:9769   */\n      add\n        /* \"#utility.yul\":9743:9769   */\n      swap1\n      pop\n        /* \"#utility.yul\":9815:9824   */\n      dup2\n        /* \"#utility.yul\":9809:9813   */\n      dup2\n        /* \"#utility.yul\":9805:9825   */\n      sub\n        /* \"#utility.yul\":9801:9802   */\n      0x00\n        /* \"#utility.yul\":9790:9799   */\n      dup4\n        /* \"#utility.yul\":9786:9803   */\n      add\n        /* \"#utility.yul\":9779:9826   */\n      mstore\n        /* \"#utility.yul\":9843:9974   */\n      tag_283\n        /* \"#utility.yul\":9969:9973   */\n      dup2\n        /* \"#utility.yul\":9843:9974   */\n      tag_162\n      jump\t// in\n    tag_283:\n        /* \"#utility.yul\":9835:9974   */\n      swap1\n      pop\n        /* \"#utility.yul\":9562:9981   */\n      swap2\n      swap1\n      pop\n      jump\t// out\n        /* \"#utility.yul\":9987:10154   */\n    tag_163:\n        /* \"#utility.yul\":10127:10146   */\n      0x656e64206174203c207374617274206174000000000000000000000000000000\n        /* \"#utility.yul\":10123:10124   */\n      0x00\n        /* \"#utility.yul\":10115:10121   */\n      dup3\n        /* \"#utility.yul\":10111:10125   */\n      add\n        /* \"#utility.yul\":10104:10147   */\n      mstore\n        /* \"#utility.yul\":9987:10154   */\n      pop\n      jump\t// out\n        /* \"#utility.yul\":10160:10526   */\n    tag_164:\n        /* \"#utility.yul\":10302:10305   */\n      0x00\n        /* \"#utility.yul\":10323:10390   */\n      tag_286\n        /* \"#utility.yul\":10387:10389   */\n      0x11\n        /* \"#utility.yul\":10382:10385   */\n      dup4\n        /* \"#utility.yul\":10323:10390   */\n      tag_154\n      jump\t// in\n    tag_286:\n        /* \"#utility.yul\":10316:10390   */\n      swap2\n      pop\n        /* \"#utility.yul\":10399:10492   */\n      tag_287\n        /* \"#utility.yul\":10488:10491   */\n      dup3\n        /* \"#utility.yul\":10399:10492   */\n      tag_163\n      jump\t// in\n    tag_287:\n        /* \"#utility.yul\":10517:10519   */\n      0x20\n        /* \"#utility.yul\":10512:10515   */\n      dup3\n        /* \"#utility.yul\":10508:10520   */\n      add\n        /* \"#utility.yul\":10501:10520   */\n      swap1\n      pop\n        /* \"#utility.yul\":10160:10526   */\n      swap2\n      swap1\n      pop\n      jump\t// out\n        /* \"#utility.yul\":10532:10951   */\n    tag_73:\n        /* \"#utility.yul\":10698:10702   */\n      0x00\n        /* \"#utility.yul\":10736:10738   */\n      0x20\n        /* \"#utility.yul\":10725:10734   */\n      dup3\n        /* \"#utility.yul\":10721:10739   */\n      add\n        /* \"#utility.yul\":10713:10739   */\n      swap1\n      pop\n        /* \"#utility.yul\":10785:10794   */\n      dup2\n        /* \"#utility.yul\":10779:10783   */\n      dup2\n        /* \"#utility.yul\":10775:10795   */\n      sub\n        /* \"#utility.yul\":10771:10772   */\n      0x00\n        /* \"#utility.yul\":10760:10769   */\n      dup4\n        /* \"#utility.yul\":10756:10773   */\n      add\n        /* \"#utility.yul\":10749:10796   */\n      mstore\n        /* \"#utility.yul\":10813:10944   */\n      tag_289\n        /* \"#utility.yul\":10939:10943   */\n      dup2\n        /* \"#utility.yul\":10813:10944   */\n      tag_164\n      jump\t// in\n    tag_289:\n        /* \"#utility.yul\":10805:10944   */\n      swap1\n      pop\n        /* \"#utility.yul\":10532:10951   */\n      swap2\n      swap1\n      pop\n      jump\t// out\n        /* \"#utility.yul\":10957:11137   */\n    tag_165:\n        /* \"#utility.yul\":11005:11082   */\n      0x4e487b7100000000000000000000000000000000000000000000000000000000\n        /* \"#utility.yul\":11002:11003   */\n      0x00\n        /* \"#utility.yul\":10995:11083   */\n      mstore\n        /* \"#utility.yul\":11102:11106   */\n      0x11\n        /* \"#utility.yul\":11099:11100   */\n      0x04\n        /* \"#utility.yul\":11092:11107   */\n      mstore\n        /* \"#utility.yul\":11126:11130   */\n      0x24\n        /* \"#utility.yul\":11123:11124   */\n      0x00\n        /* \"#utility.yul\":11116:11131   */\n      revert\n        /* \"#utility.yul\":11143:11448   */\n    tag_75:\n        /* \"#utility.yul\":11183:11186   */\n      0x00\n        /* \"#utility.yul\":11202:11222   */\n      tag_292\n        /* \"#utility.yul\":11220:11221   */\n      dup3\n        /* \"#utility.yul\":11202:11222   */\n      tag_131\n      jump\t// in\n    tag_292:\n        /* \"#utility.yul\":11197:11222   */\n      swap2\n      pop\n        /* \"#utility.yul\":11236:11256   */\n      tag_293\n        /* \"#utility.yul\":11254:11255   */\n      dup4\n        /* \"#utility.yul\":11236:11256   */\n      tag_131\n      jump\t// in\n    tag_293:\n        /* \"#utility.yul\":11231:11256   */\n      swap3\n      pop\n        /* \"#utility.yul\":11390:11391   */\n      dup3\n        /* \"#utility.yul\":11322:11388   */\n      0xffffffffffffffffffffffffffffffffffffffffffffffffffffffffffffffff\n        /* \"#utility.yul\":11318:11392   */\n      sub\n        /* \"#utility.yul\":11315:11316   */\n      dup3\n        /* \"#utility.yul\":11312:11393   */\n      gt\n        /* \"#utility.yul\":11309:11416   */\n      iszero\n      tag_294\n      jumpi\n        /* \"#utility.yul\":11396:11414   */\n      tag_295\n      tag_165\n      jump\t// in\n    tag_295:\n        /* \"#utility.yul\":11309:11416   */\n    tag_294:\n        /* \"#utility.yul\":11440:11441   */\n      dup3\n        /* \"#utility.yul\":11437:11438   */\n      dup3\n        /* \"#utility.yul\":11433:11442   */\n      add\n        /* \"#utility.yul\":11426:11442   */\n      swap1\n      pop\n        /* \"#utility.yul\":11143:11448   */\n      swap3\n      swap2\n      pop\n      pop\n      jump\t// out\n        /* \"#utility.yul\":11454:11625   */\n    tag_166:\n        /* \"#utility.yul\":11594:11617   */\n      0x656e64206174203e206d6178206475726174696f6e0000000000000000000000\n        /* \"#utility.yul\":11590:11591   */\n      0x00\n        /* \"#utility.yul\":11582:11588   */\n      dup3\n        /* \"#utility.yul\":11578:11592   */\n      add\n        /* \"#utility.yul\":11571:11618   */\n      mstore\n        /* \"#utility.yul\":11454:11625   */\n      pop\n      jump\t// out\n        /* \"#utility.yul\":11631:11997   */\n    tag_167:\n        /* \"#utility.yul\":11773:11776   */\n      0x00\n        /* \"#utility.yul\":11794:11861   */\n      tag_298\n        /* \"#utility.yul\":11858:11860   */\n      0x15\n        /* \"#utility.yul\":11853:11856   */\n      dup4\n        /* \"#utility.yul\":11794:11861   */\n      tag_154\n      jump\t// in\n    tag_298:\n        /* \"#utility.yul\":11787:11861   */\n      swap2\n      pop\n        /* \"#utility.yul\":11870:11963   */\n      tag_299\n        /* \"#utility.yul\":11959:11962   */\n      dup3\n        /* \"#utility.yul\":11870:11963   */\n      tag_166\n      jump\t// in\n    tag_299:\n        /* \"#utility.yul\":11988:11990   */\n      0x20\n        /* \"#utility.yul\":11983:11986   */\n      dup3\n        /* \"#utility.yul\":11979:11991   */\n      add\n        /* \"#utility.yul\":11972:11991   */\n      swap1\n      pop\n        /* \"#utility.yul\":11631:11997   */\n      swap2\n      swap1\n      pop\n      jump\t// out\n        /* \"#utility.yul\":12003:12422   */\n    tag_78:\n        /* \"#utility.yul\":12169:12173   */\n      0x00\n        /* \"#utility.yul\":12207:12209   */\n      0x20\n        /* \"#utility.yul\":12196:12205   */\n      dup3\n        /* \"#utility.yul\":12192:12210   */\n      add\n        /* \"#utility.yul\":12184:12210   */\n      swap1\n      pop\n        /* \"#utility.yul\":12256:12265   */\n      dup2\n        /* \"#utility.yul\":12250:12254   */\n      dup2\n        /* \"#utility.yul\":12246:12266   */\n      sub\n        /* \"#utility.yul\":12242:12243   */\n      0x00\n        /* \"#utility.yul\":12231:12240   */\n      dup4\n        /* \"#utility.yul\":12227:12244   */\n      add\n        /* \"#utility.yul\":12220:12267   */\n      mstore\n        /* \"#utility.yul\":12284:12415   */\n      tag_301\n        /* \"#utility.yul\":12410:12414   */\n      dup2\n        /* \"#utility.yul\":12284:12415   */\n      tag_167\n      jump\t// in\n    tag_301:\n        /* \"#utility.yul\":12276:12415   */\n      swap1\n      pop\n        /* \"#utility.yul\":12003:12422   */\n      swap2\n      swap1\n      pop\n      jump\t// out\n        /* \"#utility.yul\":12428:12973   */\n    tag_81:\n        /* \"#utility.yul\":12601:12605   */\n      0x00\n        /* \"#utility.yul\":12639:12642   */\n      0x80\n        /* \"#utility.yul\":12628:12637   */\n      dup3\n        /* \"#utility.yul\":12624:12643   */\n      add\n        /* \"#utility.yul\":12616:12643   */\n      swap1\n      pop\n        /* \"#utility.yul\":12653:12724   */\n      tag_303\n        /* \"#utility.yul\":12721:12722   */\n      0x00\n        /* \"#utility.yul\":12710:12719   */\n      dup4\n        /* \"#utility.yul\":12706:12723   */\n      add\n        /* \"#utility.yul\":12697:12703   */\n      dup8\n        /* \"#utility.yul\":12653:12724   */\n      tag_132\n      jump\t// in\n    tag_303:\n        /* \"#utility.yul\":12734:12806   */\n      tag_304\n        /* \"#utility.yul\":12802:12804   */\n      0x20\n        /* \"#utility.yul\":12791:12800   */\n      dup4\n        /* \"#utility.yul\":12787:12805   */\n      add\n        /* \"#utility.yul\":12778:12784   */\n      dup7\n        /* \"#utility.yul\":12734:12806   */\n      tag_132\n      jump\t// in\n    tag_304:\n        /* \"#utility.yul\":12816:12886   */\n      tag_305\n        /* \"#utility.yul\":12882:12884   */\n      0x40\n        /* \"#utility.yul\":12871:12880   */\n      dup4\n        /* \"#utility.yul\":12867:12885   */\n      add\n        /* \"#utility.yul\":12858:12864   */\n      dup6\n        /* \"#utility.yul\":12816:12886   */\n      tag_142\n      jump\t// in\n    tag_305:\n        /* \"#utility.yul\":12896:12966   */\n      tag_306\n        /* \"#utility.yul\":12962:12964   */\n      0x60\n        /* \"#utility.yul\":12951:12960   */\n      dup4\n        /* \"#utility.yul\":12947:12965   */\n      add\n        /* \"#utility.yul\":12938:12944   */\n      dup5\n        /* \"#utility.yul\":12896:12966   */\n      tag_142\n      jump\t// in\n    tag_306:\n        /* \"#utility.yul\":12428:12973   */\n      swap6\n      swap5\n      pop\n      pop\n      pop\n      pop\n      pop\n      jump\t// out\n        /* \"#utility.yul\":12979:13140   */\n    tag_168:\n        /* \"#utility.yul\":13119:13132   */\n      0x6e6f742063726561746f72000000000000000000000000000000000000000000\n        /* \"#utility.yul\":13115:13116   */\n      0x00\n        /* \"#utility.yul\":13107:13113   */\n      dup3\n        /* \"#utility.yul\":13103:13117   */\n      add\n        /* \"#utility.yul\":13096:13133   */\n      mstore\n        /* \"#utility.yul\":12979:13140   */\n      pop\n      jump\t// out\n        /* \"#utility.yul\":13146:13512   */\n    tag_169:\n        /* \"#utility.yul\":13288:13291   */\n      0x00\n        /* \"#utility.yul\":13309:13376   */\n      tag_309\n        /* \"#utility.yul\":13373:13375   */\n      0x0b\n        /* \"#utility.yul\":13368:13371   */\n      dup4\n        /* \"#utility.yul\":13309:13376   */\n      tag_154\n      jump\t// in\n    tag_309:\n        /* \"#utility.yul\":13302:13376   */\n      swap2\n      pop\n        /* \"#utility.yul\":13385:13478   */\n      tag_310\n        /* \"#utility.yul\":13474:13477   */\n      dup3\n        /* \"#utility.yul\":13385:13478   */\n      tag_168\n      jump\t// in\n    tag_310:\n        /* \"#utility.yul\":13503:13505   */\n      0x20\n        /* \"#utility.yul\":13498:13501   */\n      dup3\n        /* \"#utility.yul\":13494:13506   */\n      add\n        /* \"#utility.yul\":13487:13506   */\n      swap1\n      pop\n        /* \"#utility.yul\":13146:13512   */\n      swap2\n      swap1\n      pop\n      jump\t// out\n        /* \"#utility.yul\":13518:13937   */\n    tag_85:\n        /* \"#utility.yul\":13684:13688   */\n      0x00\n        /* \"#utility.yul\":13722:13724   */\n      0x20\n        /* \"#utility.yul\":13711:13720   */\n      dup3\n        /* \"#utility.yul\":13707:13725   */\n      add\n        /* \"#utility.yul\":13699:13725   */\n      swap1\n      pop\n        /* \"#utility.yul\":13771:13780   */\n      dup2\n        /* \"#utility.yul\":13765:13769   */\n      dup2\n        /* \"#utility.yul\":13761:13781   */\n      sub\n        /* \"#utility.yul\":13757:13758   */\n      0x00\n        /* \"#utility.yul\":13746:13755   */\n      dup4\n        /* \"#utility.yul\":13742:13759   */\n      add\n        /* \"#utility.yul\":13735:13782   */\n      mstore\n        /* \"#utility.yul\":13799:13930   */\n      tag_312\n        /* \"#utility.yul\":13925:13929   */\n      dup2\n        /* \"#utility.yul\":13799:13930   */\n      tag_169\n      jump\t// in\n    tag_312:\n        /* \"#utility.yul\":13791:13930   */\n      swap1\n      pop\n        /* \"#utility.yul\":13518:13937   */\n      swap2\n      swap1\n      pop\n      jump\t// out\n        /* \"#utility.yul\":13943:14100   */\n    tag_170:\n        /* \"#utility.yul\":14083:14092   */\n      0x636c61696d656400000000000000000000000000000000000000000000000000\n        /* \"#utility.yul\":14079:14080   */\n      0x00\n        /* \"#utility.yul\":14071:14077   */\n      dup3\n        /* \"#utility.yul\":14067:14081   */\n      add\n        /* \"#utility.yul\":14060:14093   */\n      mstore\n        /* \"#utility.yul\":13943:14100   */\n      pop\n      jump\t// out\n        /* \"#utility.yul\":14106:14471   */\n    tag_171:\n        /* \"#utility.yul\":14248:14251   */\n      0x00\n        /* \"#utility.yul\":14269:14335   */\n      tag_315\n        /* \"#utility.yul\":14333:14334   */\n      0x07\n        /* \"#utility.yul\":14328:14331   */\n      dup4\n        /* \"#utility.yul\":14269:14335   */\n      tag_154\n      jump\t// in\n    tag_315:\n        /* \"#utility.yul\":14262:14335   */\n      swap2\n      pop\n        /* \"#utility.yul\":14344:14437   */\n      tag_316\n        /* \"#utility.yul\":14433:14436   */\n      dup3\n        /* \"#utility.yul\":14344:14437   */\n      tag_170\n      jump\t// in\n    tag_316:\n        /* \"#utility.yul\":14462:14464   */\n      0x20\n        /* \"#utility.yul\":14457:14460   */\n      dup3\n        /* \"#utility.yul\":14453:14465   */\n      add\n        /* \"#utility.yul\":14446:14465   */\n      swap1\n      pop\n        /* \"#utility.yul\":14106:14471   */\n      swap2\n      swap1\n      pop\n      jump\t// out\n        /* \"#utility.yul\":14477:14896   */\n    tag_92:\n        /* \"#utility.yul\":14643:14647   */\n      0x00\n        /* \"#utility.yul\":14681:14683   */\n      0x20\n        /* \"#utility.yul\":14670:14679   */\n      dup3\n        /* \"#utility.yul\":14666:14684   */\n      add\n        /* \"#utility.yul\":14658:14684   */\n      swap1\n      pop\n        /* \"#utility.yul\":14730:14739   */\n      dup2\n        /* \"#utility.yul\":14724:14728   */\n      dup2\n        /* \"#utility.yul\":14720:14740   */\n      sub\n        /* \"#utility.yul\":14716:14717   */\n      0x00\n        /* \"#utility.yul\":14705:14714   */\n      dup4\n        /* \"#utility.yul\":14701:14718   */\n      add\n        /* \"#utility.yul\":14694:14741   */\n      mstore\n        /* \"#utility.yul\":14758:14889   */\n      tag_318\n        /* \"#utility.yul\":14884:14888   */\n      dup2\n        /* \"#utility.yul\":14758:14889   */\n      tag_171\n      jump\t// in\n    tag_318:\n        /* \"#utility.yul\":14750:14889   */\n      swap1\n      pop\n        /* \"#utility.yul\":14477:14896   */\n      swap2\n      swap1\n      pop\n      jump\t// out\n        /* \"#utility.yul\":14902:15059   */\n    tag_172:\n        /* \"#utility.yul\":15042:15051   */\n      0x7374617274656400000000000000000000000000000000000000000000000000\n        /* \"#utility.yul\":15038:15039   */\n      0x00\n        /* \"#utility.yul\":15030:15036   */\n      dup3\n        /* \"#utility.yul\":15026:15040   */\n      add\n        /* \"#utility.yul\":15019:15052   */\n      mstore\n        /* \"#utility.yul\":14902:15059   */\n      pop\n      jump\t// out\n        /* \"#utility.yul\":15065:15430   */\n    tag_173:\n        /* \"#utility.yul\":15207:15210   */\n      0x00\n        /* \"#utility.yul\":15228:15294   */\n      tag_321\n        /* \"#utility.yul\":15292:15293   */\n      0x07\n        /* \"#utility.yul\":15287:15290   */\n      dup4\n        /* \"#utility.yul\":15228:15294   */\n      tag_154\n      jump\t// in\n    tag_321:\n        /* \"#utility.yul\":15221:15294   */\n      swap2\n      pop\n        /* \"#utility.yul\":15303:15396   */\n      tag_322\n        /* \"#utility.yul\":15392:15395   */\n      dup3\n        /* \"#utility.yul\":15303:15396   */\n      tag_172\n      jump\t// in\n    tag_322:\n        /* \"#utility.yul\":15421:15423   */\n      0x20\n        /* \"#utility.yul\":15416:15419   */\n      dup3\n        /* \"#utility.yul\":15412:15424   */\n      add\n        /* \"#utility.yul\":15405:15424   */\n      swap1\n      pop\n        /* \"#utility.yul\":15065:15430   */\n      swap2\n      swap1\n      pop\n      jump\t// out\n        /* \"#utility.yul\":15436:15855   */\n    tag_103:\n        /* \"#utility.yul\":15602:15606   */\n      0x00\n        /* \"#utility.yul\":15640:15642   */\n      0x20\n        /* \"#utility.yul\":15629:15638   */\n      dup3\n        /* \"#utility.yul\":15625:15643   */\n      add\n        /* \"#utility.yul\":15617:15643   */\n      swap1\n      pop\n        /* \"#utility.yul\":15689:15698   */\n      dup2\n        /* \"#utility.yul\":15683:15687   */\n      dup2\n        /* \"#utility.yul\":15679:15699   */\n      sub\n        /* \"#utility.yul\":15675:15676   */\n      0x00\n        /* \"#utility.yul\":15664:15673   */\n      dup4\n        /* \"#utility.yul\":15660:15677   */\n      add\n        /* \"#utility.yul\":15653:15700   */\n      mstore\n        /* \"#utility.yul\":15717:15848   */\n      tag_324\n        /* \"#utility.yul\":15843:15847   */\n      dup2\n        /* \"#utility.yul\":15717:15848   */\n      tag_173\n      jump\t// in\n    tag_324:\n        /* \"#utility.yul\":15709:15848   */\n      swap1\n      pop\n        /* \"#utility.yul\":15436:15855   */\n      swap2\n      swap1\n      pop\n      jump\t// out\n        /* \"#utility.yul\":15861:16016   */\n    tag_174:\n        /* \"#utility.yul\":16001:16008   */\n      0x656e646564000000000000000000000000000000000000000000000000000000\n        /* \"#utility.yul\":15997:15998   */\n      0x00\n        /* \"#utility.yul\":15989:15995   */\n      dup3\n        /* \"#utility.yul\":15985:15999   */\n      add\n        /* \"#utility.yul\":15978:16009   */\n      mstore\n        /* \"#utility.yul\":15861:16016   */\n      pop\n      jump\t// out\n        /* \"#utility.yul\":16022:16387   */\n    tag_175:\n        /* \"#utility.yul\":16164:16167   */\n      0x00\n        /* \"#utility.yul\":16185:16251   */\n      tag_327\n        /* \"#utility.yul\":16249:16250   */\n      0x05\n        /* \"#utility.yul\":16244:16247   */\n      dup4\n        /* \"#utility.yul\":16185:16251   */\n      tag_154\n      jump\t// in\n    tag_327:\n        /* \"#utility.yul\":16178:16251   */\n      swap2\n      pop\n        /* \"#utility.yul\":16260:16353   */\n      tag_328\n        /* \"#utility.yul\":16349:16352   */\n      dup3\n        /* \"#utility.yul\":16260:16353   */\n      tag_174\n      jump\t// in\n    tag_328:\n        /* \"#utility.yul\":16378:16380   */\n      0x20\n        /* \"#utility.yul\":16373:16376   */\n      dup3\n        /* \"#utility.yul\":16369:16381   */\n      add\n        /* \"#utility.yul\":16362:16381   */\n      swap1\n      pop\n        /* \"#utility.yul\":16022:16387   */\n      swap2\n      swap1\n      pop\n      jump\t// out\n        /* \"#utility.yul\":16393:16812   */\n    tag_108:\n        /* \"#utility.yul\":16559:16563   */\n      0x00\n        /* \"#utility.yul\":16597:16599   */\n      0x20\n        /* \"#utility.yul\":16586:16595   */\n      dup3\n        /* \"#utility.yul\":16582:16600   */\n      add\n        /* \"#utility.yul\":16574:16600   */\n      swap1\n      pop\n        /* \"#utility.yul\":16646:16655   */\n      dup2\n        /* \"#utility.yul\":16640:16644   */\n      dup2\n        /* \"#utility.yul\":16636:16656   */\n      sub\n        /* \"#utility.yul\":16632:16633   */\n      0x00\n        /* \"#utility.yul\":16621:16630   */\n      dup4\n        /* \"#utility.yul\":16617:16634   */\n      add\n        /* \"#utility.yul\":16610:16657   */\n      mstore\n        /* \"#utility.yul\":16674:16805   */\n      tag_330\n        /* \"#utility.yul\":16800:16804   */\n      dup2\n        /* \"#utility.yul\":16674:16805   */\n      tag_175\n      jump\t// in\n    tag_330:\n        /* \"#utility.yul\":16666:16805   */\n      swap1\n      pop\n        /* \"#utility.yul\":16393:16812   */\n      swap2\n      swap1\n      pop\n      jump\t// out\n        /* \"#utility.yul\":16818:17009   */\n    tag_110:\n        /* \"#utility.yul\":16858:16862   */\n      0x00\n        /* \"#utility.yul\":16878:16898   */\n      tag_332\n        /* \"#utility.yul\":16896:16897   */\n      dup3\n        /* \"#utility.yul\":16878:16898   */\n      tag_131\n      jump\t// in\n    tag_332:\n        /* \"#utility.yul\":16873:16898   */\n      swap2\n      pop\n        /* \"#utility.yul\":16912:16932   */\n      tag_333\n        /* \"#utility.yul\":16930:16931   */\n      dup4\n        /* \"#utility.yul\":16912:16932   */\n      tag_131\n      jump\t// in\n    tag_333:\n        /* \"#utility.yul\":16907:16932   */\n      swap3\n      pop\n        /* \"#utility.yul\":16951:16952   */\n      dup3\n        /* \"#utility.yul\":16948:16949   */\n      dup3\n        /* \"#utility.yul\":16945:16953   */\n      lt\n        /* \"#utility.yul\":16942:16976   */\n      iszero\n      tag_334\n      jumpi\n        /* \"#utility.yul\":16956:16974   */\n      tag_335\n      tag_165\n      jump\t// in\n    tag_335:\n        /* \"#utility.yul\":16942:16976   */\n    tag_334:\n        /* \"#utility.yul\":17001:17002   */\n      dup3\n        /* \"#utility.yul\":16998:16999   */\n      dup3\n        /* \"#utility.yul\":16994:17003   */\n      sub\n        /* \"#utility.yul\":16986:17003   */\n      swap1\n      pop\n        /* \"#utility.yul\":16818:17009   */\n      swap3\n      swap2\n      pop\n      pop\n      jump\t// out\n        /* \"#utility.yul\":17015:17176   */\n    tag_176:\n        /* \"#utility.yul\":17155:17168   */\n      0x6e6f742073746172746564000000000000000000000000000000000000000000\n        /* \"#utility.yul\":17151:17152   */\n      0x00\n        /* \"#utility.yul\":17143:17149   */\n      dup3\n        /* \"#utility.yul\":17139:17153   */\n      add\n        /* \"#utility.yul\":17132:17169   */\n      mstore\n        /* \"#utility.yul\":17015:17176   */\n      pop\n      jump\t// out\n        /* \"#utility.yul\":17182:17548   */\n    tag_177:\n        /* \"#utility.yul\":17324:17327   */\n      0x00\n        /* \"#utility.yul\":17345:17412   */\n      tag_338\n        /* \"#utility.yul\":17409:17411   */\n      0x0b\n        /* \"#utility.yul\":17404:17407   */\n      dup4\n        /* \"#utility.yul\":17345:17412   */\n      tag_154\n      jump\t// in\n    tag_338:\n        /* \"#utility.yul\":17338:17412   */\n      swap2\n      pop\n        /* \"#utility.yul\":17421:17514   */\n      tag_339\n        /* \"#utility.yul\":17510:17513   */\n      dup3\n        /* \"#utility.yul\":17421:17514   */\n      tag_176\n      jump\t// in\n    tag_339:\n        /* \"#utility.yul\":17539:17541   */\n      0x20\n        /* \"#utility.yul\":17534:17537   */\n      dup3\n        /* \"#utility.yul\":17530:17542   */\n      add\n        /* \"#utility.yul\":17523:17542   */\n      swap1\n      pop\n        /* \"#utility.yul\":17182:17548   */\n      swap2\n      swap1\n      pop\n      jump\t// out\n        /* \"#utility.yul\":17554:17973   */\n    tag_120:\n        /* \"#utility.yul\":17720:17724   */\n      0x00\n        /* \"#utility.yul\":17758:17760   */\n      0x20\n        /* \"#utility.yul\":17747:17756   */\n      dup3\n        /* \"#utility.yul\":17743:17761   */\n      add\n        /* \"#utility.yul\":17735:17761   */\n      swap1\n      pop\n        /* \"#utility.yul\":17807:17816   */\n      dup2\n        /* \"#utility.yul\":17801:17805   */\n      dup2\n        /* \"#utility.yul\":17797:17817   */\n      sub\n        /* \"#utility.yul\":17793:17794   */\n      0x00\n        /* \"#utility.yul\":17782:17791   */\n      dup4\n        /* \"#utility.yul\":17778:17795   */\n      add\n        /* \"#utility.yul\":17771:17818   */\n      mstore\n        /* \"#utility.yul\":17835:17966   */\n      tag_341\n        /* \"#utility.yul\":17961:17965   */\n      dup2\n        /* \"#utility.yul\":17835:17966   */\n      tag_177\n      jump\t// in\n    tag_341:\n        /* \"#utility.yul\":17827:17966   */\n      swap1\n      pop\n        /* \"#utility.yul\":17554:17973   */\n      swap2\n      swap1\n      pop\n      jump\t// out\n        /* \"#utility.yul\":17979:18421   */\n    tag_126:\n        /* \"#utility.yul\":18128:18132   */\n      0x00\n        /* \"#utility.yul\":18166:18168   */\n      0x60\n        /* \"#utility.yul\":18155:18164   */\n      dup3\n        /* \"#utility.yul\":18151:18169   */\n      add\n        /* \"#utility.yul\":18143:18169   */\n      swap1\n      pop\n        /* \"#utility.yul\":18179:18250   */\n      tag_343\n        /* \"#utility.yul\":18247:18248   */\n      0x00\n        /* \"#utility.yul\":18236:18245   */\n      dup4\n        /* \"#utility.yul\":18232:18249   */\n      add\n        /* \"#utility.yul\":18223:18229   */\n      dup7\n        /* \"#utility.yul\":18179:18250   */\n      tag_140\n      jump\t// in\n    tag_343:\n        /* \"#utility.yul\":18260:18332   */\n      tag_344\n        /* \"#utility.yul\":18328:18330   */\n      0x20\n        /* \"#utility.yul\":18317:18326   */\n      dup4\n        /* \"#utility.yul\":18313:18331   */\n      add\n        /* \"#utility.yul\":18304:18310   */\n      dup6\n        /* \"#utility.yul\":18260:18332   */\n      tag_140\n      jump\t// in\n    tag_344:\n        /* \"#utility.yul\":18342:18414   */\n      tag_345\n        /* \"#utility.yul\":18410:18412   */\n      0x40\n        /* \"#utility.yul\":18399:18408   */\n      dup4\n        /* \"#utility.yul\":18395:18413   */\n      add\n        /* \"#utility.yul\":18386:18392   */\n      dup5\n        /* \"#utility.yul\":18342:18414   */\n      tag_132\n      jump\t// in\n    tag_345:\n        /* \"#utility.yul\":17979:18421   */\n      swap5\n      swap4\n      pop\n      pop\n      pop\n      pop\n      jump\t// out\n\n    auxdata: 0xa26469706673582212207bf8eaec8103eaeb787a2103e5b9867fa0be5e9fc3fdb68d1f7d32585b6a564664736f6c634300080d0033\n}\n",
				"bytecode": {
					"linkReferences": {},
					"object": "60a06040523480156200001157600080fd5b5060405162001b3b38038062001b3b8339818101604052810190620000379190620000dc565b8073ffffffffffffffffffffffffffffffffffffffff1660808173ffffffffffffffffffffffffffffffffffffffff1681525050506200010e565b600080fd5b600073ffffffffffffffffffffffffffffffffffffffff82169050919050565b6000620000a48262000077565b9050919050565b620000b68162000097565b8114620000c257600080fd5b50565b600081519050620000d681620000ab565b92915050565b600060208284031215620000f557620000f462000072565b5b60006200010584828501620000c5565b91505092915050565b6080516119f56200014660003960008181610393015281816108db01528181610d2a01528181610e420152610fb901526119f56000f3fe608060405234801561001057600080fd5b506004361061009e5760003560e01c806340e58ee51161006657806340e58ee51461014a578063711853ab14610166578063aa4fb63a14610182578063fc0c546a146101b2578063fde327be146101d05761009e565b806306661abd146100a3578063141961bc146100c1578063278ecde1146100f65780632c63f14614610112578063379607f51461012e575b600080fd5b6100ab6101ec565b6040516100b891906110c5565b60405180910390f35b6100db60048036038101906100d69190611111565b6101f2565b6040516100ed969594939291906111b9565b60405180910390f35b610110600480360381019061010b9190611111565b61027b565b005b61012c60048036038101906101279190611246565b610484565b005b61014860048036038101906101439190611111565b61071a565b005b610164600480360381019061015f9190611111565b6109b7565b005b610180600480360381019061017b9190611299565b610c32565b005b61019c60048036038101906101979190611305565b610e1b565b6040516101a991906110c5565b60405180910390f35b6101ba610e40565b6040516101c791906113a4565b60405180910390f35b6101ea60048036038101906101e59190611299565b610e64565b005b60005481565b60016020528060005260406000206000915090508060000160009054906101000a900473ffffffffffffffffffffffffffffffffffffffff16908060010154908060020154908060030160009054906101000a900463ffffffff16908060030160049054906101000a900463ffffffff16908060030160089054906101000a900460ff16905086565b60006001600083815260200190815260200160002090508060030160049054906101000a900463ffffffff1663ffffffff1642116102ee576040517f08c379a00000000000000000000000000000000000000000000000000000000081526004016102e59061141c565b60405180910390fd5b8060010154816002015410610338576040517f08c379a000000000000000000000000000000000000000000000000000000000815260040161032f90611488565b60405180910390fd5b60006002600084815260200190815260200160002060003373ffffffffffffffffffffffffffffffffffffffff1673ffffffffffffffffffffffffffffffffffffffff168152602001908152602001600020549050600090507f000000000000000000000000000000000000000000000000000000000000000073ffffffffffffffffffffffffffffffffffffffff1663a9059cbb33836040518363ffffffff1660e01b81526004016103ec9291906114a8565b6020604051808303816000875af115801561040b573d6000803e3d6000fd5b505050506040513d601f19601f8201168201806040525081019061042f91906114fd565b503373ffffffffffffffffffffffffffffffffffffffff16837f21e12a7cad0da5928167e1084ea4d5fdf8d9af66657a2543a9ac76a0ca0814778360405161047791906110c5565b60405180910390a3505050565b428263ffffffff1610156104cd576040517f08c379a00000000000000000000000000000000000000000000000000000000081526004016104c490611576565b60405180910390fd5b8163ffffffff168163ffffffff16101561051c576040517f08c379a0000000000000000000000000000000000000000000000000000000008152600401610513906115e2565b60405180910390fd5b6276a7004261052b9190611631565b8163ffffffff161115610573576040517f08c379a000000000000000000000000000000000000000000000000000000000815260040161056a906116d3565b60405180910390fd5b60016000808282546105859190611631565b925050819055506040518060c001604052803373ffffffffffffffffffffffffffffffffffffffff168152602001848152602001600081526020018363ffffffff1681526020018263ffffffff16815260200160001515815250600160008054815260200190815260200160002060008201518160000160006101000a81548173ffffffffffffffffffffffffffffffffffffffff021916908373ffffffffffffffffffffffffffffffffffffffff160217905550602082015181600101556040820151816002015560608201518160030160006101000a81548163ffffffff021916908363ffffffff16021790555060808201518160030160046101000a81548163ffffffff021916908363ffffffff16021790555060a08201518160030160086101000a81548160ff0219169083151502179055509050503373ffffffffffffffffffffffffffffffffffffffff167f0601cd0d650b473037e838a2696d41e654433d065b3f56b28d1d3302e44a304f60005485858560405161070d94939291906116f3565b60405180910390a2505050565b60006001600083815260200190815260200160002090508060000160009054906101000a900473ffffffffffffffffffffffffffffffffffffffff1673ffffffffffffffffffffffffffffffffffffffff163373ffffffffffffffffffffffffffffffffffffffff16146107c3576040517f08c379a00000000000000000000000000000000000000000000000000000000081526004016107ba90611784565b60405180910390fd5b8060030160049054906101000a900463ffffffff1663ffffffff16421161081f576040517f08c379a00000000000000000000000000000000000000000000000000000000081526004016108169061141c565b60405180910390fd5b80600101548160020154101561086a576040517f08c379a000000000000000000000000000000000000000000000000000000000815260040161086190611488565b60405180910390fd5b8060030160089054906101000a900460ff16156108bc576040517f08c379a00000000000000000000000000000000000000000000000000000000081526004016108b3906117f0565b60405180910390fd5b60018160030160086101000a81548160ff0219169083151502179055507f000000000000000000000000000000000000000000000000000000000000000073ffffffffffffffffffffffffffffffffffffffff1663a9059cbb3383600201546040518363ffffffff1660e01b81526004016109389291906114a8565b6020604051808303816000875af1158015610957573d6000803e3d6000fd5b505050506040513d601f19601f8201168201806040525081019061097b91906114fd565b507f7bb2b3c10797baccb6f8c4791f1edd6ca2f0d028ee0eda64b01a9a57e3a653f7826040516109ab91906110c5565b60405180910390a15050565b6000600160008381526020019081526020016000206040518060c00160405290816000820160009054906101000a900473ffffffffffffffffffffffffffffffffffffffff1673ffffffffffffffffffffffffffffffffffffffff1673ffffffffffffffffffffffffffffffffffffffff16815260200160018201548152602001600282015481526020016003820160009054906101000a900463ffffffff1663ffffffff1663ffffffff1681526020016003820160049054906101000a900463ffffffff1663ffffffff1663ffffffff1681526020016003820160089054906101000a900460ff1615151515815250509050806000015173ffffffffffffffffffffffffffffffffffffffff163373ffffffffffffffffffffffffffffffffffffffff1614610b1c576040517f08c379a0000000000000000000000000000000000000000000000000000000008152600401610b1390611784565b60405180910390fd5b806060015163ffffffff164210610b68576040517f08c379a0000000000000000000000000000000000000000000000000000000008152600401610b5f9061185c565b60405180910390fd5b60016000838152602001908152602001600020600080820160006101000a81549073ffffffffffffffffffffffffffffffffffffffff0219169055600182016000905560028201600090556003820160006101000a81549063ffffffff02191690556003820160046101000a81549063ffffffff02191690556003820160086101000a81549060ff021916905550507f8bf30e7ff26833413be5f69e1d373744864d600b664204b4a2f9844a8eedb9ed82604051610c2691906110c5565b60405180910390a15050565b60006001600084815260200190815260200160002090508060030160049054906101000a900463ffffffff1663ffffffff16421115610ca6576040517f08c379a0000000000000000000000000000000000000000000000000000000008152600401610c9d906118c8565b60405180910390fd5b81816002016000828254610cba91906118e8565b92505081905550816002600085815260200190815260200160002060003373ffffffffffffffffffffffffffffffffffffffff1673ffffffffffffffffffffffffffffffffffffffff1681526020019081526020016000206000828254610d2191906118e8565b925050819055507f000000000000000000000000000000000000000000000000000000000000000073ffffffffffffffffffffffffffffffffffffffff1663a9059cbb33846040518363ffffffff1660e01b8152600401610d839291906114a8565b6020604051808303816000875af1158015610da2573d6000803e3d6000fd5b505050506040513d601f19601f82011682018060405250810190610dc691906114fd565b503373ffffffffffffffffffffffffffffffffffffffff16837f2eeeab891b26a214d1b25749f88a406bdea852bd8c9bfda977e0ef8114c180ba84604051610e0e91906110c5565b60405180910390a3505050565b6002602052816000526040600020602052806000526040600020600091509150505481565b7f000000000000000000000000000000000000000000000000000000000000000081565b60006001600084815260200190815260200160002090508060030160009054906101000a900463ffffffff1663ffffffff16421015610ed8576040517f08c379a0000000000000000000000000000000000000000000000000000000008152600401610ecf90611968565b60405180910390fd5b8060030160049054906101000a900463ffffffff1663ffffffff16421115610f35576040517f08c379a0000000000000000000000000000000000000000000000000000000008152600401610f2c906118c8565b60405180910390fd5b81816002016000828254610f499190611631565b92505081905550816002600085815260200190815260200160002060003373ffffffffffffffffffffffffffffffffffffffff1673ffffffffffffffffffffffffffffffffffffffff1681526020019081526020016000206000828254610fb09190611631565b925050819055507f000000000000000000000000000000000000000000000000000000000000000073ffffffffffffffffffffffffffffffffffffffff166323b872dd3330856040518463ffffffff1660e01b815260040161101493929190611988565b6020604051808303816000875af1158015611033573d6000803e3d6000fd5b505050506040513d601f19601f8201168201806040525081019061105791906114fd565b503373ffffffffffffffffffffffffffffffffffffffff16837f06bdb975df800a73232998e71ed585d536222f1dfeaa622d7f62a23ada686c828460405161109f91906110c5565b60405180910390a3505050565b6000819050919050565b6110bf816110ac565b82525050565b60006020820190506110da60008301846110b6565b92915050565b600080fd5b6110ee816110ac565b81146110f957600080fd5b50565b60008135905061110b816110e5565b92915050565b600060208284031215611127576111266110e0565b5b6000611135848285016110fc565b91505092915050565b600073ffffffffffffffffffffffffffffffffffffffff82169050919050565b60006111698261113e565b9050919050565b6111798161115e565b82525050565b600063ffffffff82169050919050565b6111988161117f565b82525050565b60008115159050919050565b6111b38161119e565b82525050565b600060c0820190506111ce6000830189611170565b6111db60208301886110b6565b6111e860408301876110b6565b6111f5606083018661118f565b611202608083018561118f565b61120f60a08301846111aa565b979650505050505050565b6112238161117f565b811461122e57600080fd5b50565b6000813590506112408161121a565b92915050565b60008060006060848603121561125f5761125e6110e0565b5b600061126d868287016110fc565b935050602061127e86828701611231565b925050604061128f86828701611231565b9150509250925092565b600080604083850312156112b0576112af6110e0565b5b60006112be858286016110fc565b92505060206112cf858286016110fc565b9150509250929050565b6112e28161115e565b81146112ed57600080fd5b50565b6000813590506112ff816112d9565b92915050565b6000806040838503121561131c5761131b6110e0565b5b600061132a858286016110fc565b925050602061133b858286016112f0565b9150509250929050565b6000819050919050565b600061136a6113656113608461113e565b611345565b61113e565b9050919050565b600061137c8261134f565b9050919050565b600061138e82611371565b9050919050565b61139e81611383565b82525050565b60006020820190506113b96000830184611395565b92915050565b600082825260208201905092915050565b7f6e6f7420656e6465640000000000000000000000000000000000000000000000600082015250565b60006114066009836113bf565b9150611411826113d0565b602082019050919050565b60006020820190508181036000830152611435816113f9565b9050919050565b7f706c6564676564203c20676f616c000000000000000000000000000000000000600082015250565b6000611472600e836113bf565b915061147d8261143c565b602082019050919050565b600060208201905081810360008301526114a181611465565b9050919050565b60006040820190506114bd6000830185611170565b6114ca60208301846110b6565b9392505050565b6114da8161119e565b81146114e557600080fd5b50565b6000815190506114f7816114d1565b92915050565b600060208284031215611513576115126110e0565b5b6000611521848285016114e8565b91505092915050565b7f7374617274206174203c206e6f77000000000000000000000000000000000000600082015250565b6000611560600e836113bf565b915061156b8261152a565b602082019050919050565b6000602082019050818103600083015261158f81611553565b9050919050565b7f656e64206174203c207374617274206174000000000000000000000000000000600082015250565b60006115cc6011836113bf565b91506115d782611596565b602082019050919050565b600060208201905081810360008301526115fb816115bf565b9050919050565b7f4e487b7100000000000000000000000000000000000000000000000000000000600052601160045260246000fd5b600061163c826110ac565b9150611647836110ac565b9250827fffffffffffffffffffffffffffffffffffffffffffffffffffffffffffffffff0382111561167c5761167b611602565b5b828201905092915050565b7f656e64206174203e206d6178206475726174696f6e0000000000000000000000600082015250565b60006116bd6015836113bf565b91506116c882611687565b602082019050919050565b600060208201905081810360008301526116ec816116b0565b9050919050565b600060808201905061170860008301876110b6565b61171560208301866110b6565b611722604083018561118f565b61172f606083018461118f565b95945050505050565b7f6e6f742063726561746f72000000000000000000000000000000000000000000600082015250565b600061176e600b836113bf565b915061177982611738565b602082019050919050565b6000602082019050818103600083015261179d81611761565b9050919050565b7f636c61696d656400000000000000000000000000000000000000000000000000600082015250565b60006117da6007836113bf565b91506117e5826117a4565b602082019050919050565b60006020820190508181036000830152611809816117cd565b9050919050565b7f7374617274656400000000000000000000000000000000000000000000000000600082015250565b60006118466007836113bf565b915061185182611810565b602082019050919050565b6000602082019050818103600083015261187581611839565b9050919050565b7f656e646564000000000000000000000000000000000000000000000000000000600082015250565b60006118b26005836113bf565b91506118bd8261187c565b602082019050919050565b600060208201905081810360008301526118e1816118a5565b9050919050565b60006118f3826110ac565b91506118fe836110ac565b92508282101561191157611910611602565b5b828203905092915050565b7f6e6f742073746172746564000000000000000000000000000000000000000000600082015250565b6000611952600b836113bf565b915061195d8261191c565b602082019050919050565b6000602082019050818103600083015261198181611945565b9050919050565b600060608201905061199d6000830186611170565b6119aa6020830185611170565b6119b760408301846110b6565b94935050505056fea26469706673582212207bf8eaec8103eaeb787a2103e5b9867fa0be5e9fc3fdb68d1f7d32585b6a564664736f6c634300080d0033",
					"opcodes": "PUSH1 0xA0 PUSH1 0x40 MSTORE CALLVALUE DUP1 ISZERO PUSH3 0x11 JUMPI PUSH1 0x0 DUP1 REVERT JUMPDEST POP PUSH1 0x40 MLOAD PUSH3 0x1B3B CODESIZE SUB DUP1 PUSH3 0x1B3B DUP4 CODECOPY DUP2 DUP2 ADD PUSH1 0x40 MSTORE DUP2 ADD SWAP1 PUSH3 0x37 SWAP2 SWAP1 PUSH3 0xDC JUMP JUMPDEST DUP1 PUSH20 0xFFFFFFFFFFFFFFFFFFFFFFFFFFFFFFFFFFFFFFFF AND PUSH1 0x80 DUP2 PUSH20 0xFFFFFFFFFFFFFFFFFFFFFFFFFFFFFFFFFFFFFFFF AND DUP2 MSTORE POP POP POP PUSH3 0x10E JUMP JUMPDEST PUSH1 0x0 DUP1 REVERT JUMPDEST PUSH1 0x0 PUSH20 0xFFFFFFFFFFFFFFFFFFFFFFFFFFFFFFFFFFFFFFFF DUP3 AND SWAP1 POP SWAP2 SWAP1 POP JUMP JUMPDEST PUSH1 0x0 PUSH3 0xA4 DUP3 PUSH3 0x77 JUMP JUMPDEST SWAP1 POP SWAP2 SWAP1 POP JUMP JUMPDEST PUSH3 0xB6 DUP2 PUSH3 0x97 JUMP JUMPDEST DUP2 EQ PUSH3 0xC2 JUMPI PUSH1 0x0 DUP1 REVERT JUMPDEST POP JUMP JUMPDEST PUSH1 0x0 DUP2 MLOAD SWAP1 POP PUSH3 0xD6 DUP2 PUSH3 0xAB JUMP JUMPDEST SWAP3 SWAP2 POP POP JUMP JUMPDEST PUSH1 0x0 PUSH1 0x20 DUP3 DUP5 SUB SLT ISZERO PUSH3 0xF5 JUMPI PUSH3 0xF4 PUSH3 0x72 JUMP JUMPDEST JUMPDEST PUSH1 0x0 PUSH3 0x105 DUP5 DUP3 DUP6 ADD PUSH3 0xC5 JUMP JUMPDEST SWAP2 POP POP SWAP3 SWAP2 POP POP JUMP JUMPDEST PUSH1 0x80 MLOAD PUSH2 0x19F5 PUSH3 0x146 PUSH1 0x0 CODECOPY PUSH1 0x0 DUP2 DUP2 PUSH2 0x393 ADD MSTORE DUP2 DUP2 PUSH2 0x8DB ADD MSTORE DUP2 DUP2 PUSH2 0xD2A ADD MSTORE DUP2 DUP2 PUSH2 0xE42 ADD MSTORE PUSH2 0xFB9 ADD MSTORE PUSH2 0x19F5 PUSH1 0x0 RETURN INVALID PUSH1 0x80 PUSH1 0x40 MSTORE CALLVALUE DUP1 ISZERO PUSH2 0x10 JUMPI PUSH1 0x0 DUP1 REVERT JUMPDEST POP PUSH1 0x4 CALLDATASIZE LT PUSH2 0x9E JUMPI PUSH1 0x0 CALLDATALOAD PUSH1 0xE0 SHR DUP1 PUSH4 0x40E58EE5 GT PUSH2 0x66 JUMPI DUP1 PUSH4 0x40E58EE5 EQ PUSH2 0x14A JUMPI DUP1 PUSH4 0x711853AB EQ PUSH2 0x166 JUMPI DUP1 PUSH4 0xAA4FB63A EQ PUSH2 0x182 JUMPI DUP1 PUSH4 0xFC0C546A EQ PUSH2 0x1B2 JUMPI DUP1 PUSH4 0xFDE327BE EQ PUSH2 0x1D0 JUMPI PUSH2 0x9E JUMP JUMPDEST DUP1 PUSH4 0x6661ABD EQ PUSH2 0xA3 JUMPI DUP1 PUSH4 0x141961BC EQ PUSH2 0xC1 JUMPI DUP1 PUSH4 0x278ECDE1 EQ PUSH2 0xF6 JUMPI DUP1 PUSH4 0x2C63F146 EQ PUSH2 0x112 JUMPI DUP1 PUSH4 0x379607F5 EQ PUSH2 0x12E JUMPI JUMPDEST PUSH1 0x0 DUP1 REVERT JUMPDEST PUSH2 0xAB PUSH2 0x1EC JUMP JUMPDEST PUSH1 0x40 MLOAD PUSH2 0xB8 SWAP2 SWAP1 PUSH2 0x10C5 JUMP JUMPDEST PUSH1 0x40 MLOAD DUP1 SWAP2 SUB SWAP1 RETURN JUMPDEST PUSH2 0xDB PUSH1 0x4 DUP1 CALLDATASIZE SUB DUP2 ADD SWAP1 PUSH2 0xD6 SWAP2 SWAP1 PUSH2 0x1111 JUMP JUMPDEST PUSH2 0x1F2 JUMP JUMPDEST PUSH1 0x40 MLOAD PUSH2 0xED SWAP7 SWAP6 SWAP5 SWAP4 SWAP3 SWAP2 SWAP1 PUSH2 0x11B9 JUMP JUMPDEST PUSH1 0x40 MLOAD DUP1 SWAP2 SUB SWAP1 RETURN JUMPDEST PUSH2 0x110 PUSH1 0x4 DUP1 CALLDATASIZE SUB DUP2 ADD SWAP1 PUSH2 0x10B SWAP2 SWAP1 PUSH2 0x1111 JUMP JUMPDEST PUSH2 0x27B JUMP JUMPDEST STOP JUMPDEST PUSH2 0x12C PUSH1 0x4 DUP1 CALLDATASIZE SUB DUP2 ADD SWAP1 PUSH2 0x127 SWAP2 SWAP1 PUSH2 0x1246 JUMP JUMPDEST PUSH2 0x484 JUMP JUMPDEST STOP JUMPDEST PUSH2 0x148 PUSH1 0x4 DUP1 CALLDATASIZE SUB DUP2 ADD SWAP1 PUSH2 0x143 SWAP2 SWAP1 PUSH2 0x1111 JUMP JUMPDEST PUSH2 0x71A JUMP JUMPDEST STOP JUMPDEST PUSH2 0x164 PUSH1 0x4 DUP1 CALLDATASIZE SUB DUP2 ADD SWAP1 PUSH2 0x15F SWAP2 SWAP1 PUSH2 0x1111 JUMP JUMPDEST PUSH2 0x9B7 JUMP JUMPDEST STOP JUMPDEST PUSH2 0x180 PUSH1 0x4 DUP1 CALLDATASIZE SUB DUP2 ADD SWAP1 PUSH2 0x17B SWAP2 SWAP1 PUSH2 0x1299 JUMP JUMPDEST PUSH2 0xC32 JUMP JUMPDEST STOP JUMPDEST PUSH2 0x19C PUSH1 0x4 DUP1 CALLDATASIZE SUB DUP2 ADD SWAP1 PUSH2 0x197 SWAP2 SWAP1 PUSH2 0x1305 JUMP JUMPDEST PUSH2 0xE1B JUMP JUMPDEST PUSH1 0x40 MLOAD PUSH2 0x1A9 SWAP2 SWAP1 PUSH2 0x10C5 JUMP JUMPDEST PUSH1 0x40 MLOAD DUP1 SWAP2 SUB SWAP1 RETURN JUMPDEST PUSH2 0x1BA PUSH2 0xE40 JUMP JUMPDEST PUSH1 0x40 MLOAD PUSH2 0x1C7 SWAP2 SWAP1 PUSH2 0x13A4 JUMP JUMPDEST PUSH1 0x40 MLOAD DUP1 SWAP2 SUB SWAP1 RETURN JUMPDEST PUSH2 0x1EA PUSH1 0x4 DUP1 CALLDATASIZE SUB DUP2 ADD SWAP1 PUSH2 0x1E5 SWAP2 SWAP1 PUSH2 0x1299 JUMP JUMPDEST PUSH2 0xE64 JUMP JUMPDEST STOP JUMPDEST PUSH1 0x0 SLOAD DUP2 JUMP JUMPDEST PUSH1 0x1 PUSH1 0x20 MSTORE DUP1 PUSH1 0x0 MSTORE PUSH1 0x40 PUSH1 0x0 KECCAK256 PUSH1 0x0 SWAP2 POP SWAP1 POP DUP1 PUSH1 0x0 ADD PUSH1 0x0 SWAP1 SLOAD SWAP1 PUSH2 0x100 EXP SWAP1 DIV PUSH20 0xFFFFFFFFFFFFFFFFFFFFFFFFFFFFFFFFFFFFFFFF AND SWAP1 DUP1 PUSH1 0x1 ADD SLOAD SWAP1 DUP1 PUSH1 0x2 ADD SLOAD SWAP1 DUP1 PUSH1 0x3 ADD PUSH1 0x0 SWAP1 SLOAD SWAP1 PUSH2 0x100 EXP SWAP1 DIV PUSH4 0xFFFFFFFF AND SWAP1 DUP1 PUSH1 0x3 ADD PUSH1 0x4 SWAP1 SLOAD SWAP1 PUSH2 0x100 EXP SWAP1 DIV PUSH4 0xFFFFFFFF AND SWAP1 DUP1 PUSH1 0x3 ADD PUSH1 0x8 SWAP1 SLOAD SWAP1 PUSH2 0x100 EXP SWAP1 DIV PUSH1 0xFF AND SWAP1 POP DUP7 JUMP JUMPDEST PUSH1 0x0 PUSH1 0x1 PUSH1 0x0 DUP4 DUP2 MSTORE PUSH1 0x20 ADD SWAP1 DUP2 MSTORE PUSH1 0x20 ADD PUSH1 0x0 KECCAK256 SWAP1 POP DUP1 PUSH1 0x3 ADD PUSH1 0x4 SWAP1 SLOAD SWAP1 PUSH2 0x100 EXP SWAP1 DIV PUSH4 0xFFFFFFFF AND PUSH4 0xFFFFFFFF AND TIMESTAMP GT PUSH2 0x2EE JUMPI PUSH1 0x40 MLOAD PUSH32 0x8C379A000000000000000000000000000000000000000000000000000000000 DUP2 MSTORE PUSH1 0x4 ADD PUSH2 0x2E5 SWAP1 PUSH2 0x141C JUMP JUMPDEST PUSH1 0x40 MLOAD DUP1 SWAP2 SUB SWAP1 REVERT JUMPDEST DUP1 PUSH1 0x1 ADD SLOAD DUP2 PUSH1 0x2 ADD SLOAD LT PUSH2 0x338 JUMPI PUSH1 0x40 MLOAD PUSH32 0x8C379A000000000000000000000000000000000000000000000000000000000 DUP2 MSTORE PUSH1 0x4 ADD PUSH2 0x32F SWAP1 PUSH2 0x1488 JUMP JUMPDEST PUSH1 0x40 MLOAD DUP1 SWAP2 SUB SWAP1 REVERT JUMPDEST PUSH1 0x0 PUSH1 0x2 PUSH1 0x0 DUP5 DUP2 MSTORE PUSH1 0x20 ADD SWAP1 DUP2 MSTORE PUSH1 0x20 ADD PUSH1 0x0 KECCAK256 PUSH1 0x0 CALLER PUSH20 0xFFFFFFFFFFFFFFFFFFFFFFFFFFFFFFFFFFFFFFFF AND PUSH20 0xFFFFFFFFFFFFFFFFFFFFFFFFFFFFFFFFFFFFFFFF AND DUP2 MSTORE PUSH1 0x20 ADD SWAP1 DUP2 MSTORE PUSH1 0x20 ADD PUSH1 0x0 KECCAK256 SLOAD SWAP1 POP PUSH1 0x0 SWAP1 POP PUSH32 0x0 PUSH20 0xFFFFFFFFFFFFFFFFFFFFFFFFFFFFFFFFFFFFFFFF AND PUSH4 0xA9059CBB CALLER DUP4 PUSH1 0x40 MLOAD DUP4 PUSH4 0xFFFFFFFF AND PUSH1 0xE0 SHL DUP2 MSTORE PUSH1 0x4 ADD PUSH2 0x3EC SWAP3 SWAP2 SWAP1 PUSH2 0x14A8 JUMP JUMPDEST PUSH1 0x20 PUSH1 0x40 MLOAD DUP1 DUP4 SUB DUP2 PUSH1 0x0 DUP8 GAS CALL ISZERO DUP1 ISZERO PUSH2 0x40B JUMPI RETURNDATASIZE PUSH1 0x0 DUP1 RETURNDATACOPY RETURNDATASIZE PUSH1 0x0 REVERT JUMPDEST POP POP POP POP PUSH1 0x40 MLOAD RETURNDATASIZE PUSH1 0x1F NOT PUSH1 0x1F DUP3 ADD AND DUP3 ADD DUP1 PUSH1 0x40 MSTORE POP DUP2 ADD SWAP1 PUSH2 0x42F SWAP2 SWAP1 PUSH2 0x14FD JUMP JUMPDEST POP CALLER PUSH20 0xFFFFFFFFFFFFFFFFFFFFFFFFFFFFFFFFFFFFFFFF AND DUP4 PUSH32 0x21E12A7CAD0DA5928167E1084EA4D5FDF8D9AF66657A2543A9AC76A0CA081477 DUP4 PUSH1 0x40 MLOAD PUSH2 0x477 SWAP2 SWAP1 PUSH2 0x10C5 JUMP JUMPDEST PUSH1 0x40 MLOAD DUP1 SWAP2 SUB SWAP1 LOG3 POP POP POP JUMP JUMPDEST TIMESTAMP DUP3 PUSH4 0xFFFFFFFF AND LT ISZERO PUSH2 0x4CD JUMPI PUSH1 0x40 MLOAD PUSH32 0x8C379A000000000000000000000000000000000000000000000000000000000 DUP2 MSTORE PUSH1 0x4 ADD PUSH2 0x4C4 SWAP1 PUSH2 0x1576 JUMP JUMPDEST PUSH1 0x40 MLOAD DUP1 SWAP2 SUB SWAP1 REVERT JUMPDEST DUP2 PUSH4 0xFFFFFFFF AND DUP2 PUSH4 0xFFFFFFFF AND LT ISZERO PUSH2 0x51C JUMPI PUSH1 0x40 MLOAD PUSH32 0x8C379A000000000000000000000000000000000000000000000000000000000 DUP2 MSTORE PUSH1 0x4 ADD PUSH2 0x513 SWAP1 PUSH2 0x15E2 JUMP JUMPDEST PUSH1 0x40 MLOAD DUP1 SWAP2 SUB SWAP1 REVERT JUMPDEST PUSH3 0x76A700 TIMESTAMP PUSH2 0x52B SWAP2 SWAP1 PUSH2 0x1631 JUMP JUMPDEST DUP2 PUSH4 0xFFFFFFFF AND GT ISZERO PUSH2 0x573 JUMPI PUSH1 0x40 MLOAD PUSH32 0x8C379A000000000000000000000000000000000000000000000000000000000 DUP2 MSTORE PUSH1 0x4 ADD PUSH2 0x56A SWAP1 PUSH2 0x16D3 JUMP JUMPDEST PUSH1 0x40 MLOAD DUP1 SWAP2 SUB SWAP1 REVERT JUMPDEST PUSH1 0x1 PUSH1 0x0 DUP1 DUP3 DUP3 SLOAD PUSH2 0x585 SWAP2 SWAP1 PUSH2 0x1631 JUMP JUMPDEST SWAP3 POP POP DUP2 SWAP1 SSTORE POP PUSH1 0x40 MLOAD DUP1 PUSH1 0xC0 ADD PUSH1 0x40 MSTORE DUP1 CALLER PUSH20 0xFFFFFFFFFFFFFFFFFFFFFFFFFFFFFFFFFFFFFFFF AND DUP2 MSTORE PUSH1 0x20 ADD DUP5 DUP2 MSTORE PUSH1 0x20 ADD PUSH1 0x0 DUP2 MSTORE PUSH1 0x20 ADD DUP4 PUSH4 0xFFFFFFFF AND DUP2 MSTORE PUSH1 0x20 ADD DUP3 PUSH4 0xFFFFFFFF AND DUP2 MSTORE PUSH1 0x20 ADD PUSH1 0x0 ISZERO ISZERO DUP2 MSTORE POP PUSH1 0x1 PUSH1 0x0 DUP1 SLOAD DUP2 MSTORE PUSH1 0x20 ADD SWAP1 DUP2 MSTORE PUSH1 0x20 ADD PUSH1 0x0 KECCAK256 PUSH1 0x0 DUP3 ADD MLOAD DUP2 PUSH1 0x0 ADD PUSH1 0x0 PUSH2 0x100 EXP DUP2 SLOAD DUP2 PUSH20 0xFFFFFFFFFFFFFFFFFFFFFFFFFFFFFFFFFFFFFFFF MUL NOT AND SWAP1 DUP4 PUSH20 0xFFFFFFFFFFFFFFFFFFFFFFFFFFFFFFFFFFFFFFFF AND MUL OR SWAP1 SSTORE POP PUSH1 0x20 DUP3 ADD MLOAD DUP2 PUSH1 0x1 ADD SSTORE PUSH1 0x40 DUP3 ADD MLOAD DUP2 PUSH1 0x2 ADD SSTORE PUSH1 0x60 DUP3 ADD MLOAD DUP2 PUSH1 0x3 ADD PUSH1 0x0 PUSH2 0x100 EXP DUP2 SLOAD DUP2 PUSH4 0xFFFFFFFF MUL NOT AND SWAP1 DUP4 PUSH4 0xFFFFFFFF AND MUL OR SWAP1 SSTORE POP PUSH1 0x80 DUP3 ADD MLOAD DUP2 PUSH1 0x3 ADD PUSH1 0x4 PUSH2 0x100 EXP DUP2 SLOAD DUP2 PUSH4 0xFFFFFFFF MUL NOT AND SWAP1 DUP4 PUSH4 0xFFFFFFFF AND MUL OR SWAP1 SSTORE POP PUSH1 0xA0 DUP3 ADD MLOAD DUP2 PUSH1 0x3 ADD PUSH1 0x8 PUSH2 0x100 EXP DUP2 SLOAD DUP2 PUSH1 0xFF MUL NOT AND SWAP1 DUP4 ISZERO ISZERO MUL OR SWAP1 SSTORE POP SWAP1 POP POP CALLER PUSH20 0xFFFFFFFFFFFFFFFFFFFFFFFFFFFFFFFFFFFFFFFF AND PUSH32 0x601CD0D650B473037E838A2696D41E654433D065B3F56B28D1D3302E44A304F PUSH1 0x0 SLOAD DUP6 DUP6 DUP6 PUSH1 0x40 MLOAD PUSH2 0x70D SWAP5 SWAP4 SWAP3 SWAP2 SWAP1 PUSH2 0x16F3 JUMP JUMPDEST PUSH1 0x40 MLOAD DUP1 SWAP2 SUB SWAP1 LOG2 POP POP POP JUMP JUMPDEST PUSH1 0x0 PUSH1 0x1 PUSH1 0x0 DUP4 DUP2 MSTORE PUSH1 0x20 ADD SWAP1 DUP2 MSTORE PUSH1 0x20 ADD PUSH1 0x0 KECCAK256 SWAP1 POP DUP1 PUSH1 0x0 ADD PUSH1 0x0 SWAP1 SLOAD SWAP1 PUSH2 0x100 EXP SWAP1 DIV PUSH20 0xFFFFFFFFFFFFFFFFFFFFFFFFFFFFFFFFFFFFFFFF AND PUSH20 0xFFFFFFFFFFFFFFFFFFFFFFFFFFFFFFFFFFFFFFFF AND CALLER PUSH20 0xFFFFFFFFFFFFFFFFFFFFFFFFFFFFFFFFFFFFFFFF AND EQ PUSH2 0x7C3 JUMPI PUSH1 0x40 MLOAD PUSH32 0x8C379A000000000000000000000000000000000000000000000000000000000 DUP2 MSTORE PUSH1 0x4 ADD PUSH2 0x7BA SWAP1 PUSH2 0x1784 JUMP JUMPDEST PUSH1 0x40 MLOAD DUP1 SWAP2 SUB SWAP1 REVERT JUMPDEST DUP1 PUSH1 0x3 ADD PUSH1 0x4 SWAP1 SLOAD SWAP1 PUSH2 0x100 EXP SWAP1 DIV PUSH4 0xFFFFFFFF AND PUSH4 0xFFFFFFFF AND TIMESTAMP GT PUSH2 0x81F JUMPI PUSH1 0x40 MLOAD PUSH32 0x8C379A000000000000000000000000000000000000000000000000000000000 DUP2 MSTORE PUSH1 0x4 ADD PUSH2 0x816 SWAP1 PUSH2 0x141C JUMP JUMPDEST PUSH1 0x40 MLOAD DUP1 SWAP2 SUB SWAP1 REVERT JUMPDEST DUP1 PUSH1 0x1 ADD SLOAD DUP2 PUSH1 0x2 ADD SLOAD LT ISZERO PUSH2 0x86A JUMPI PUSH1 0x40 MLOAD PUSH32 0x8C379A000000000000000000000000000000000000000000000000000000000 DUP2 MSTORE PUSH1 0x4 ADD PUSH2 0x861 SWAP1 PUSH2 0x1488 JUMP JUMPDEST PUSH1 0x40 MLOAD DUP1 SWAP2 SUB SWAP1 REVERT JUMPDEST DUP1 PUSH1 0x3 ADD PUSH1 0x8 SWAP1 SLOAD SWAP1 PUSH2 0x100 EXP SWAP1 DIV PUSH1 0xFF AND ISZERO PUSH2 0x8BC JUMPI PUSH1 0x40 MLOAD PUSH32 0x8C379A000000000000000000000000000000000000000000000000000000000 DUP2 MSTORE PUSH1 0x4 ADD PUSH2 0x8B3 SWAP1 PUSH2 0x17F0 JUMP JUMPDEST PUSH1 0x40 MLOAD DUP1 SWAP2 SUB SWAP1 REVERT JUMPDEST PUSH1 0x1 DUP2 PUSH1 0x3 ADD PUSH1 0x8 PUSH2 0x100 EXP DUP2 SLOAD DUP2 PUSH1 0xFF MUL NOT AND SWAP1 DUP4 ISZERO ISZERO MUL OR SWAP1 SSTORE POP PUSH32 0x0 PUSH20 0xFFFFFFFFFFFFFFFFFFFFFFFFFFFFFFFFFFFFFFFF AND PUSH4 0xA9059CBB CALLER DUP4 PUSH1 0x2 ADD SLOAD PUSH1 0x40 MLOAD DUP4 PUSH4 0xFFFFFFFF AND PUSH1 0xE0 SHL DUP2 MSTORE PUSH1 0x4 ADD PUSH2 0x938 SWAP3 SWAP2 SWAP1 PUSH2 0x14A8 JUMP JUMPDEST PUSH1 0x20 PUSH1 0x40 MLOAD DUP1 DUP4 SUB DUP2 PUSH1 0x0 DUP8 GAS CALL ISZERO DUP1 ISZERO PUSH2 0x957 JUMPI RETURNDATASIZE PUSH1 0x0 DUP1 RETURNDATACOPY RETURNDATASIZE PUSH1 0x0 REVERT JUMPDEST POP POP POP POP PUSH1 0x40 MLOAD RETURNDATASIZE PUSH1 0x1F NOT PUSH1 0x1F DUP3 ADD AND DUP3 ADD DUP1 PUSH1 0x40 MSTORE POP DUP2 ADD SWAP1 PUSH2 0x97B SWAP2 SWAP1 PUSH2 0x14FD JUMP JUMPDEST POP PUSH32 0x7BB2B3C10797BACCB6F8C4791F1EDD6CA2F0D028EE0EDA64B01A9A57E3A653F7 DUP3 PUSH1 0x40 MLOAD PUSH2 0x9AB SWAP2 SWAP1 PUSH2 0x10C5 JUMP JUMPDEST PUSH1 0x40 MLOAD DUP1 SWAP2 SUB SWAP1 LOG1 POP POP JUMP JUMPDEST PUSH1 0x0 PUSH1 0x1 PUSH1 0x0 DUP4 DUP2 MSTORE PUSH1 0x20 ADD SWAP1 DUP2 MSTORE PUSH1 0x20 ADD PUSH1 0x0 KECCAK256 PUSH1 0x40 MLOAD DUP1 PUSH1 0xC0 ADD PUSH1 0x40 MSTORE SWAP1 DUP2 PUSH1 0x0 DUP3 ADD PUSH1 0x0 SWAP1 SLOAD SWAP1 PUSH2 0x100 EXP SWAP1 DIV PUSH20 0xFFFFFFFFFFFFFFFFFFFFFFFFFFFFFFFFFFFFFFFF AND PUSH20 0xFFFFFFFFFFFFFFFFFFFFFFFFFFFFFFFFFFFFFFFF AND PUSH20 0xFFFFFFFFFFFFFFFFFFFFFFFFFFFFFFFFFFFFFFFF AND DUP2 MSTORE PUSH1 0x20 ADD PUSH1 0x1 DUP3 ADD SLOAD DUP2 MSTORE PUSH1 0x20 ADD PUSH1 0x2 DUP3 ADD SLOAD DUP2 MSTORE PUSH1 0x20 ADD PUSH1 0x3 DUP3 ADD PUSH1 0x0 SWAP1 SLOAD SWAP1 PUSH2 0x100 EXP SWAP1 DIV PUSH4 0xFFFFFFFF AND PUSH4 0xFFFFFFFF AND PUSH4 0xFFFFFFFF AND DUP2 MSTORE PUSH1 0x20 ADD PUSH1 0x3 DUP3 ADD PUSH1 0x4 SWAP1 SLOAD SWAP1 PUSH2 0x100 EXP SWAP1 DIV PUSH4 0xFFFFFFFF AND PUSH4 0xFFFFFFFF AND PUSH4 0xFFFFFFFF AND DUP2 MSTORE PUSH1 0x20 ADD PUSH1 0x3 DUP3 ADD PUSH1 0x8 SWAP1 SLOAD SWAP1 PUSH2 0x100 EXP SWAP1 DIV PUSH1 0xFF AND ISZERO ISZERO ISZERO ISZERO DUP2 MSTORE POP POP SWAP1 POP DUP1 PUSH1 0x0 ADD MLOAD PUSH20 0xFFFFFFFFFFFFFFFFFFFFFFFFFFFFFFFFFFFFFFFF AND CALLER PUSH20 0xFFFFFFFFFFFFFFFFFFFFFFFFFFFFFFFFFFFFFFFF AND EQ PUSH2 0xB1C JUMPI PUSH1 0x40 MLOAD PUSH32 0x8C379A000000000000000000000000000000000000000000000000000000000 DUP2 MSTORE PUSH1 0x4 ADD PUSH2 0xB13 SWAP1 PUSH2 0x1784 JUMP JUMPDEST PUSH1 0x40 MLOAD DUP1 SWAP2 SUB SWAP1 REVERT JUMPDEST DUP1 PUSH1 0x60 ADD MLOAD PUSH4 0xFFFFFFFF AND TIMESTAMP LT PUSH2 0xB68 JUMPI PUSH1 0x40 MLOAD PUSH32 0x8C379A000000000000000000000000000000000000000000000000000000000 DUP2 MSTORE PUSH1 0x4 ADD PUSH2 0xB5F SWAP1 PUSH2 0x185C JUMP JUMPDEST PUSH1 0x40 MLOAD DUP1 SWAP2 SUB SWAP1 REVERT JUMPDEST PUSH1 0x1 PUSH1 0x0 DUP4 DUP2 MSTORE PUSH1 0x20 ADD SWAP1 DUP2 MSTORE PUSH1 0x20 ADD PUSH1 0x0 KECCAK256 PUSH1 0x0 DUP1 DUP3 ADD PUSH1 0x0 PUSH2 0x100 EXP DUP2 SLOAD SWAP1 PUSH20 0xFFFFFFFFFFFFFFFFFFFFFFFFFFFFFFFFFFFFFFFF MUL NOT AND SWAP1 SSTORE PUSH1 0x1 DUP3 ADD PUSH1 0x0 SWAP1 SSTORE PUSH1 0x2 DUP3 ADD PUSH1 0x0 SWAP1 SSTORE PUSH1 0x3 DUP3 ADD PUSH1 0x0 PUSH2 0x100 EXP DUP2 SLOAD SWAP1 PUSH4 0xFFFFFFFF MUL NOT AND SWAP1 SSTORE PUSH1 0x3 DUP3 ADD PUSH1 0x4 PUSH2 0x100 EXP DUP2 SLOAD SWAP1 PUSH4 0xFFFFFFFF MUL NOT AND SWAP1 SSTORE PUSH1 0x3 DUP3 ADD PUSH1 0x8 PUSH2 0x100 EXP DUP2 SLOAD SWAP1 PUSH1 0xFF MUL NOT AND SWAP1 SSTORE POP POP PUSH32 0x8BF30E7FF26833413BE5F69E1D373744864D600B664204B4A2F9844A8EEDB9ED DUP3 PUSH1 0x40 MLOAD PUSH2 0xC26 SWAP2 SWAP1 PUSH2 0x10C5 JUMP JUMPDEST PUSH1 0x40 MLOAD DUP1 SWAP2 SUB SWAP1 LOG1 POP POP JUMP JUMPDEST PUSH1 0x0 PUSH1 0x1 PUSH1 0x0 DUP5 DUP2 MSTORE PUSH1 0x20 ADD SWAP1 DUP2 MSTORE PUSH1 0x20 ADD PUSH1 0x0 KECCAK256 SWAP1 POP DUP1 PUSH1 0x3 ADD PUSH1 0x4 SWAP1 SLOAD SWAP1 PUSH2 0x100 EXP SWAP1 DIV PUSH4 0xFFFFFFFF AND PUSH4 0xFFFFFFFF AND TIMESTAMP GT ISZERO PUSH2 0xCA6 JUMPI PUSH1 0x40 MLOAD PUSH32 0x8C379A000000000000000000000000000000000000000000000000000000000 DUP2 MSTORE PUSH1 0x4 ADD PUSH2 0xC9D SWAP1 PUSH2 0x18C8 JUMP JUMPDEST PUSH1 0x40 MLOAD DUP1 SWAP2 SUB SWAP1 REVERT JUMPDEST DUP2 DUP2 PUSH1 0x2 ADD PUSH1 0x0 DUP3 DUP3 SLOAD PUSH2 0xCBA SWAP2 SWAP1 PUSH2 0x18E8 JUMP JUMPDEST SWAP3 POP POP DUP2 SWAP1 SSTORE POP DUP2 PUSH1 0x2 PUSH1 0x0 DUP6 DUP2 MSTORE PUSH1 0x20 ADD SWAP1 DUP2 MSTORE PUSH1 0x20 ADD PUSH1 0x0 KECCAK256 PUSH1 0x0 CALLER PUSH20 0xFFFFFFFFFFFFFFFFFFFFFFFFFFFFFFFFFFFFFFFF AND PUSH20 0xFFFFFFFFFFFFFFFFFFFFFFFFFFFFFFFFFFFFFFFF AND DUP2 MSTORE PUSH1 0x20 ADD SWAP1 DUP2 MSTORE PUSH1 0x20 ADD PUSH1 0x0 KECCAK256 PUSH1 0x0 DUP3 DUP3 SLOAD PUSH2 0xD21 SWAP2 SWAP1 PUSH2 0x18E8 JUMP JUMPDEST SWAP3 POP POP DUP2 SWAP1 SSTORE POP PUSH32 0x0 PUSH20 0xFFFFFFFFFFFFFFFFFFFFFFFFFFFFFFFFFFFFFFFF AND PUSH4 0xA9059CBB CALLER DUP5 PUSH1 0x40 MLOAD DUP4 PUSH4 0xFFFFFFFF AND PUSH1 0xE0 SHL DUP2 MSTORE PUSH1 0x4 ADD PUSH2 0xD83 SWAP3 SWAP2 SWAP1 PUSH2 0x14A8 JUMP JUMPDEST PUSH1 0x20 PUSH1 0x40 MLOAD DUP1 DUP4 SUB DUP2 PUSH1 0x0 DUP8 GAS CALL ISZERO DUP1 ISZERO PUSH2 0xDA2 JUMPI RETURNDATASIZE PUSH1 0x0 DUP1 RETURNDATACOPY RETURNDATASIZE PUSH1 0x0 REVERT JUMPDEST POP POP POP POP PUSH1 0x40 MLOAD RETURNDATASIZE PUSH1 0x1F NOT PUSH1 0x1F DUP3 ADD AND DUP3 ADD DUP1 PUSH1 0x40 MSTORE POP DUP2 ADD SWAP1 PUSH2 0xDC6 SWAP2 SWAP1 PUSH2 0x14FD JUMP JUMPDEST POP CALLER PUSH20 0xFFFFFFFFFFFFFFFFFFFFFFFFFFFFFFFFFFFFFFFF AND DUP4 PUSH32 0x2EEEAB891B26A214D1B25749F88A406BDEA852BD8C9BFDA977E0EF8114C180BA DUP5 PUSH1 0x40 MLOAD PUSH2 0xE0E SWAP2 SWAP1 PUSH2 0x10C5 JUMP JUMPDEST PUSH1 0x40 MLOAD DUP1 SWAP2 SUB SWAP1 LOG3 POP POP POP JUMP JUMPDEST PUSH1 0x2 PUSH1 0x20 MSTORE DUP2 PUSH1 0x0 MSTORE PUSH1 0x40 PUSH1 0x0 KECCAK256 PUSH1 0x20 MSTORE DUP1 PUSH1 0x0 MSTORE PUSH1 0x40 PUSH1 0x0 KECCAK256 PUSH1 0x0 SWAP2 POP SWAP2 POP POP SLOAD DUP2 JUMP JUMPDEST PUSH32 0x0 DUP2 JUMP JUMPDEST PUSH1 0x0 PUSH1 0x1 PUSH1 0x0 DUP5 DUP2 MSTORE PUSH1 0x20 ADD SWAP1 DUP2 MSTORE PUSH1 0x20 ADD PUSH1 0x0 KECCAK256 SWAP1 POP DUP1 PUSH1 0x3 ADD PUSH1 0x0 SWAP1 SLOAD SWAP1 PUSH2 0x100 EXP SWAP1 DIV PUSH4 0xFFFFFFFF AND PUSH4 0xFFFFFFFF AND TIMESTAMP LT ISZERO PUSH2 0xED8 JUMPI PUSH1 0x40 MLOAD PUSH32 0x8C379A000000000000000000000000000000000000000000000000000000000 DUP2 MSTORE PUSH1 0x4 ADD PUSH2 0xECF SWAP1 PUSH2 0x1968 JUMP JUMPDEST PUSH1 0x40 MLOAD DUP1 SWAP2 SUB SWAP1 REVERT JUMPDEST DUP1 PUSH1 0x3 ADD PUSH1 0x4 SWAP1 SLOAD SWAP1 PUSH2 0x100 EXP SWAP1 DIV PUSH4 0xFFFFFFFF AND PUSH4 0xFFFFFFFF AND TIMESTAMP GT ISZERO PUSH2 0xF35 JUMPI PUSH1 0x40 MLOAD PUSH32 0x8C379A000000000000000000000000000000000000000000000000000000000 DUP2 MSTORE PUSH1 0x4 ADD PUSH2 0xF2C SWAP1 PUSH2 0x18C8 JUMP JUMPDEST PUSH1 0x40 MLOAD DUP1 SWAP2 SUB SWAP1 REVERT JUMPDEST DUP2 DUP2 PUSH1 0x2 ADD PUSH1 0x0 DUP3 DUP3 SLOAD PUSH2 0xF49 SWAP2 SWAP1 PUSH2 0x1631 JUMP JUMPDEST SWAP3 POP POP DUP2 SWAP1 SSTORE POP DUP2 PUSH1 0x2 PUSH1 0x0 DUP6 DUP2 MSTORE PUSH1 0x20 ADD SWAP1 DUP2 MSTORE PUSH1 0x20 ADD PUSH1 0x0 KECCAK256 PUSH1 0x0 CALLER PUSH20 0xFFFFFFFFFFFFFFFFFFFFFFFFFFFFFFFFFFFFFFFF AND PUSH20 0xFFFFFFFFFFFFFFFFFFFFFFFFFFFFFFFFFFFFFFFF AND DUP2 MSTORE PUSH1 0x20 ADD SWAP1 DUP2 MSTORE PUSH1 0x20 ADD PUSH1 0x0 KECCAK256 PUSH1 0x0 DUP3 DUP3 SLOAD PUSH2 0xFB0 SWAP2 SWAP1 PUSH2 0x1631 JUMP JUMPDEST SWAP3 POP POP DUP2 SWAP1 SSTORE POP PUSH32 0x0 PUSH20 0xFFFFFFFFFFFFFFFFFFFFFFFFFFFFFFFFFFFFFFFF AND PUSH4 0x23B872DD CALLER ADDRESS DUP6 PUSH1 0x40 MLOAD DUP5 PUSH4 0xFFFFFFFF AND PUSH1 0xE0 SHL DUP2 MSTORE PUSH1 0x4 ADD PUSH2 0x1014 SWAP4 SWAP3 SWAP2 SWAP1 PUSH2 0x1988 JUMP JUMPDEST PUSH1 0x20 PUSH1 0x40 MLOAD DUP1 DUP4 SUB DUP2 PUSH1 0x0 DUP8 GAS CALL ISZERO DUP1 ISZERO PUSH2 0x1033 JUMPI RETURNDATASIZE PUSH1 0x0 DUP1 RETURNDATACOPY RETURNDATASIZE PUSH1 0x0 REVERT JUMPDEST POP POP POP POP PUSH1 0x40 MLOAD RETURNDATASIZE PUSH1 0x1F NOT PUSH1 0x1F DUP3 ADD AND DUP3 ADD DUP1 PUSH1 0x40 MSTORE POP DUP2 ADD SWAP1 PUSH2 0x1057 SWAP2 SWAP1 PUSH2 0x14FD JUMP JUMPDEST POP CALLER PUSH20 0xFFFFFFFFFFFFFFFFFFFFFFFFFFFFFFFFFFFFFFFF AND DUP4 PUSH32 0x6BDB975DF800A73232998E71ED585D536222F1DFEAA622D7F62A23ADA686C82 DUP5 PUSH1 0x40 MLOAD PUSH2 0x109F SWAP2 SWAP1 PUSH2 0x10C5 JUMP JUMPDEST PUSH1 0x40 MLOAD DUP1 SWAP2 SUB SWAP1 LOG3 POP POP POP JUMP JUMPDEST PUSH1 0x0 DUP2 SWAP1 POP SWAP2 SWAP1 POP JUMP JUMPDEST PUSH2 0x10BF DUP2 PUSH2 0x10AC JUMP JUMPDEST DUP3 MSTORE POP POP JUMP JUMPDEST PUSH1 0x0 PUSH1 0x20 DUP3 ADD SWAP1 POP PUSH2 0x10DA PUSH1 0x0 DUP4 ADD DUP5 PUSH2 0x10B6 JUMP JUMPDEST SWAP3 SWAP2 POP POP JUMP JUMPDEST PUSH1 0x0 DUP1 REVERT JUMPDEST PUSH2 0x10EE DUP2 PUSH2 0x10AC JUMP JUMPDEST DUP2 EQ PUSH2 0x10F9 JUMPI PUSH1 0x0 DUP1 REVERT JUMPDEST POP JUMP JUMPDEST PUSH1 0x0 DUP2 CALLDATALOAD SWAP1 POP PUSH2 0x110B DUP2 PUSH2 0x10E5 JUMP JUMPDEST SWAP3 SWAP2 POP POP JUMP JUMPDEST PUSH1 0x0 PUSH1 0x20 DUP3 DUP5 SUB SLT ISZERO PUSH2 0x1127 JUMPI PUSH2 0x1126 PUSH2 0x10E0 JUMP JUMPDEST JUMPDEST PUSH1 0x0 PUSH2 0x1135 DUP5 DUP3 DUP6 ADD PUSH2 0x10FC JUMP JUMPDEST SWAP2 POP POP SWAP3 SWAP2 POP POP JUMP JUMPDEST PUSH1 0x0 PUSH20 0xFFFFFFFFFFFFFFFFFFFFFFFFFFFFFFFFFFFFFFFF DUP3 AND SWAP1 POP SWAP2 SWAP1 POP JUMP JUMPDEST PUSH1 0x0 PUSH2 0x1169 DUP3 PUSH2 0x113E JUMP JUMPDEST SWAP1 POP SWAP2 SWAP1 POP JUMP JUMPDEST PUSH2 0x1179 DUP2 PUSH2 0x115E JUMP JUMPDEST DUP3 MSTORE POP POP JUMP JUMPDEST PUSH1 0x0 PUSH4 0xFFFFFFFF DUP3 AND SWAP1 POP SWAP2 SWAP1 POP JUMP JUMPDEST PUSH2 0x1198 DUP2 PUSH2 0x117F JUMP JUMPDEST DUP3 MSTORE POP POP JUMP JUMPDEST PUSH1 0x0 DUP2 ISZERO ISZERO SWAP1 POP SWAP2 SWAP1 POP JUMP JUMPDEST PUSH2 0x11B3 DUP2 PUSH2 0x119E JUMP JUMPDEST DUP3 MSTORE POP POP JUMP JUMPDEST PUSH1 0x0 PUSH1 0xC0 DUP3 ADD SWAP1 POP PUSH2 0x11CE PUSH1 0x0 DUP4 ADD DUP10 PUSH2 0x1170 JUMP JUMPDEST PUSH2 0x11DB PUSH1 0x20 DUP4 ADD DUP9 PUSH2 0x10B6 JUMP JUMPDEST PUSH2 0x11E8 PUSH1 0x40 DUP4 ADD DUP8 PUSH2 0x10B6 JUMP JUMPDEST PUSH2 0x11F5 PUSH1 0x60 DUP4 ADD DUP7 PUSH2 0x118F JUMP JUMPDEST PUSH2 0x1202 PUSH1 0x80 DUP4 ADD DUP6 PUSH2 0x118F JUMP JUMPDEST PUSH2 0x120F PUSH1 0xA0 DUP4 ADD DUP5 PUSH2 0x11AA JUMP JUMPDEST SWAP8 SWAP7 POP POP POP POP POP POP POP JUMP JUMPDEST PUSH2 0x1223 DUP2 PUSH2 0x117F JUMP JUMPDEST DUP2 EQ PUSH2 0x122E JUMPI PUSH1 0x0 DUP1 REVERT JUMPDEST POP JUMP JUMPDEST PUSH1 0x0 DUP2 CALLDATALOAD SWAP1 POP PUSH2 0x1240 DUP2 PUSH2 0x121A JUMP JUMPDEST SWAP3 SWAP2 POP POP JUMP JUMPDEST PUSH1 0x0 DUP1 PUSH1 0x0 PUSH1 0x60 DUP5 DUP7 SUB SLT ISZERO PUSH2 0x125F JUMPI PUSH2 0x125E PUSH2 0x10E0 JUMP JUMPDEST JUMPDEST PUSH1 0x0 PUSH2 0x126D DUP7 DUP3 DUP8 ADD PUSH2 0x10FC JUMP JUMPDEST SWAP4 POP POP PUSH1 0x20 PUSH2 0x127E DUP7 DUP3 DUP8 ADD PUSH2 0x1231 JUMP JUMPDEST SWAP3 POP POP PUSH1 0x40 PUSH2 0x128F DUP7 DUP3 DUP8 ADD PUSH2 0x1231 JUMP JUMPDEST SWAP2 POP POP SWAP3 POP SWAP3 POP SWAP3 JUMP JUMPDEST PUSH1 0x0 DUP1 PUSH1 0x40 DUP4 DUP6 SUB SLT ISZERO PUSH2 0x12B0 JUMPI PUSH2 0x12AF PUSH2 0x10E0 JUMP JUMPDEST JUMPDEST PUSH1 0x0 PUSH2 0x12BE DUP6 DUP3 DUP7 ADD PUSH2 0x10FC JUMP JUMPDEST SWAP3 POP POP PUSH1 0x20 PUSH2 0x12CF DUP6 DUP3 DUP7 ADD PUSH2 0x10FC JUMP JUMPDEST SWAP2 POP POP SWAP3 POP SWAP3 SWAP1 POP JUMP JUMPDEST PUSH2 0x12E2 DUP2 PUSH2 0x115E JUMP JUMPDEST DUP2 EQ PUSH2 0x12ED JUMPI PUSH1 0x0 DUP1 REVERT JUMPDEST POP JUMP JUMPDEST PUSH1 0x0 DUP2 CALLDATALOAD SWAP1 POP PUSH2 0x12FF DUP2 PUSH2 0x12D9 JUMP JUMPDEST SWAP3 SWAP2 POP POP JUMP JUMPDEST PUSH1 0x0 DUP1 PUSH1 0x40 DUP4 DUP6 SUB SLT ISZERO PUSH2 0x131C JUMPI PUSH2 0x131B PUSH2 0x10E0 JUMP JUMPDEST JUMPDEST PUSH1 0x0 PUSH2 0x132A DUP6 DUP3 DUP7 ADD PUSH2 0x10FC JUMP JUMPDEST SWAP3 POP POP PUSH1 0x20 PUSH2 0x133B DUP6 DUP3 DUP7 ADD PUSH2 0x12F0 JUMP JUMPDEST SWAP2 POP POP SWAP3 POP SWAP3 SWAP1 POP JUMP JUMPDEST PUSH1 0x0 DUP2 SWAP1 POP SWAP2 SWAP1 POP JUMP JUMPDEST PUSH1 0x0 PUSH2 0x136A PUSH2 0x1365 PUSH2 0x1360 DUP5 PUSH2 0x113E JUMP JUMPDEST PUSH2 0x1345 JUMP JUMPDEST PUSH2 0x113E JUMP JUMPDEST SWAP1 POP SWAP2 SWAP1 POP JUMP JUMPDEST PUSH1 0x0 PUSH2 0x137C DUP3 PUSH2 0x134F JUMP JUMPDEST SWAP1 POP SWAP2 SWAP1 POP JUMP JUMPDEST PUSH1 0x0 PUSH2 0x138E DUP3 PUSH2 0x1371 JUMP JUMPDEST SWAP1 POP SWAP2 SWAP1 POP JUMP JUMPDEST PUSH2 0x139E DUP2 PUSH2 0x1383 JUMP JUMPDEST DUP3 MSTORE POP POP JUMP JUMPDEST PUSH1 0x0 PUSH1 0x20 DUP3 ADD SWAP1 POP PUSH2 0x13B9 PUSH1 0x0 DUP4 ADD DUP5 PUSH2 0x1395 JUMP JUMPDEST SWAP3 SWAP2 POP POP JUMP JUMPDEST PUSH1 0x0 DUP3 DUP3 MSTORE PUSH1 0x20 DUP3 ADD SWAP1 POP SWAP3 SWAP2 POP POP JUMP JUMPDEST PUSH32 0x6E6F7420656E6465640000000000000000000000000000000000000000000000 PUSH1 0x0 DUP3 ADD MSTORE POP JUMP JUMPDEST PUSH1 0x0 PUSH2 0x1406 PUSH1 0x9 DUP4 PUSH2 0x13BF JUMP JUMPDEST SWAP2 POP PUSH2 0x1411 DUP3 PUSH2 0x13D0 JUMP JUMPDEST PUSH1 0x20 DUP3 ADD SWAP1 POP SWAP2 SWAP1 POP JUMP JUMPDEST PUSH1 0x0 PUSH1 0x20 DUP3 ADD SWAP1 POP DUP2 DUP2 SUB PUSH1 0x0 DUP4 ADD MSTORE PUSH2 0x1435 DUP2 PUSH2 0x13F9 JUMP JUMPDEST SWAP1 POP SWAP2 SWAP1 POP JUMP JUMPDEST PUSH32 0x706C6564676564203C20676F616C000000000000000000000000000000000000 PUSH1 0x0 DUP3 ADD MSTORE POP JUMP JUMPDEST PUSH1 0x0 PUSH2 0x1472 PUSH1 0xE DUP4 PUSH2 0x13BF JUMP JUMPDEST SWAP2 POP PUSH2 0x147D DUP3 PUSH2 0x143C JUMP JUMPDEST PUSH1 0x20 DUP3 ADD SWAP1 POP SWAP2 SWAP1 POP JUMP JUMPDEST PUSH1 0x0 PUSH1 0x20 DUP3 ADD SWAP1 POP DUP2 DUP2 SUB PUSH1 0x0 DUP4 ADD MSTORE PUSH2 0x14A1 DUP2 PUSH2 0x1465 JUMP JUMPDEST SWAP1 POP SWAP2 SWAP1 POP JUMP JUMPDEST PUSH1 0x0 PUSH1 0x40 DUP3 ADD SWAP1 POP PUSH2 0x14BD PUSH1 0x0 DUP4 ADD DUP6 PUSH2 0x1170 JUMP JUMPDEST PUSH2 0x14CA PUSH1 0x20 DUP4 ADD DUP5 PUSH2 0x10B6 JUMP JUMPDEST SWAP4 SWAP3 POP POP POP JUMP JUMPDEST PUSH2 0x14DA DUP2 PUSH2 0x119E JUMP JUMPDEST DUP2 EQ PUSH2 0x14E5 JUMPI PUSH1 0x0 DUP1 REVERT JUMPDEST POP JUMP JUMPDEST PUSH1 0x0 DUP2 MLOAD SWAP1 POP PUSH2 0x14F7 DUP2 PUSH2 0x14D1 JUMP JUMPDEST SWAP3 SWAP2 POP POP JUMP JUMPDEST PUSH1 0x0 PUSH1 0x20 DUP3 DUP5 SUB SLT ISZERO PUSH2 0x1513 JUMPI PUSH2 0x1512 PUSH2 0x10E0 JUMP JUMPDEST JUMPDEST PUSH1 0x0 PUSH2 0x1521 DUP5 DUP3 DUP6 ADD PUSH2 0x14E8 JUMP JUMPDEST SWAP2 POP POP SWAP3 SWAP2 POP POP JUMP JUMPDEST PUSH32 0x7374617274206174203C206E6F77000000000000000000000000000000000000 PUSH1 0x0 DUP3 ADD MSTORE POP JUMP JUMPDEST PUSH1 0x0 PUSH2 0x1560 PUSH1 0xE DUP4 PUSH2 0x13BF JUMP JUMPDEST SWAP2 POP PUSH2 0x156B DUP3 PUSH2 0x152A JUMP JUMPDEST PUSH1 0x20 DUP3 ADD SWAP1 POP SWAP2 SWAP1 POP JUMP JUMPDEST PUSH1 0x0 PUSH1 0x20 DUP3 ADD SWAP1 POP DUP2 DUP2 SUB PUSH1 0x0 DUP4 ADD MSTORE PUSH2 0x158F DUP2 PUSH2 0x1553 JUMP JUMPDEST SWAP1 POP SWAP2 SWAP1 POP JUMP JUMPDEST PUSH32 0x656E64206174203C207374617274206174000000000000000000000000000000 PUSH1 0x0 DUP3 ADD MSTORE POP JUMP JUMPDEST PUSH1 0x0 PUSH2 0x15CC PUSH1 0x11 DUP4 PUSH2 0x13BF JUMP JUMPDEST SWAP2 POP PUSH2 0x15D7 DUP3 PUSH2 0x1596 JUMP JUMPDEST PUSH1 0x20 DUP3 ADD SWAP1 POP SWAP2 SWAP1 POP JUMP JUMPDEST PUSH1 0x0 PUSH1 0x20 DUP3 ADD SWAP1 POP DUP2 DUP2 SUB PUSH1 0x0 DUP4 ADD MSTORE PUSH2 0x15FB DUP2 PUSH2 0x15BF JUMP JUMPDEST SWAP1 POP SWAP2 SWAP1 POP JUMP JUMPDEST PUSH32 0x4E487B7100000000000000000000000000000000000000000000000000000000 PUSH1 0x0 MSTORE PUSH1 0x11 PUSH1 0x4 MSTORE PUSH1 0x24 PUSH1 0x0 REVERT JUMPDEST PUSH1 0x0 PUSH2 0x163C DUP3 PUSH2 0x10AC JUMP JUMPDEST SWAP2 POP PUSH2 0x1647 DUP4 PUSH2 0x10AC JUMP JUMPDEST SWAP3 POP DUP3 PUSH32 0xFFFFFFFFFFFFFFFFFFFFFFFFFFFFFFFFFFFFFFFFFFFFFFFFFFFFFFFFFFFFFFFF SUB DUP3 GT ISZERO PUSH2 0x167C JUMPI PUSH2 0x167B PUSH2 0x1602 JUMP JUMPDEST JUMPDEST DUP3 DUP3 ADD SWAP1 POP SWAP3 SWAP2 POP POP JUMP JUMPDEST PUSH32 0x656E64206174203E206D6178206475726174696F6E0000000000000000000000 PUSH1 0x0 DUP3 ADD MSTORE POP JUMP JUMPDEST PUSH1 0x0 PUSH2 0x16BD PUSH1 0x15 DUP4 PUSH2 0x13BF JUMP JUMPDEST SWAP2 POP PUSH2 0x16C8 DUP3 PUSH2 0x1687 JUMP JUMPDEST PUSH1 0x20 DUP3 ADD SWAP1 POP SWAP2 SWAP1 POP JUMP JUMPDEST PUSH1 0x0 PUSH1 0x20 DUP3 ADD SWAP1 POP DUP2 DUP2 SUB PUSH1 0x0 DUP4 ADD MSTORE PUSH2 0x16EC DUP2 PUSH2 0x16B0 JUMP JUMPDEST SWAP1 POP SWAP2 SWAP1 POP JUMP JUMPDEST PUSH1 0x0 PUSH1 0x80 DUP3 ADD SWAP1 POP PUSH2 0x1708 PUSH1 0x0 DUP4 ADD DUP8 PUSH2 0x10B6 JUMP JUMPDEST PUSH2 0x1715 PUSH1 0x20 DUP4 ADD DUP7 PUSH2 0x10B6 JUMP JUMPDEST PUSH2 0x1722 PUSH1 0x40 DUP4 ADD DUP6 PUSH2 0x118F JUMP JUMPDEST PUSH2 0x172F PUSH1 0x60 DUP4 ADD DUP5 PUSH2 0x118F JUMP JUMPDEST SWAP6 SWAP5 POP POP POP POP POP JUMP JUMPDEST PUSH32 0x6E6F742063726561746F72000000000000000000000000000000000000000000 PUSH1 0x0 DUP3 ADD MSTORE POP JUMP JUMPDEST PUSH1 0x0 PUSH2 0x176E PUSH1 0xB DUP4 PUSH2 0x13BF JUMP JUMPDEST SWAP2 POP PUSH2 0x1779 DUP3 PUSH2 0x1738 JUMP JUMPDEST PUSH1 0x20 DUP3 ADD SWAP1 POP SWAP2 SWAP1 POP JUMP JUMPDEST PUSH1 0x0 PUSH1 0x20 DUP3 ADD SWAP1 POP DUP2 DUP2 SUB PUSH1 0x0 DUP4 ADD MSTORE PUSH2 0x179D DUP2 PUSH2 0x1761 JUMP JUMPDEST SWAP1 POP SWAP2 SWAP1 POP JUMP JUMPDEST PUSH32 0x636C61696D656400000000000000000000000000000000000000000000000000 PUSH1 0x0 DUP3 ADD MSTORE POP JUMP JUMPDEST PUSH1 0x0 PUSH2 0x17DA PUSH1 0x7 DUP4 PUSH2 0x13BF JUMP JUMPDEST SWAP2 POP PUSH2 0x17E5 DUP3 PUSH2 0x17A4 JUMP JUMPDEST PUSH1 0x20 DUP3 ADD SWAP1 POP SWAP2 SWAP1 POP JUMP JUMPDEST PUSH1 0x0 PUSH1 0x20 DUP3 ADD SWAP1 POP DUP2 DUP2 SUB PUSH1 0x0 DUP4 ADD MSTORE PUSH2 0x1809 DUP2 PUSH2 0x17CD JUMP JUMPDEST SWAP1 POP SWAP2 SWAP1 POP JUMP JUMPDEST PUSH32 0x7374617274656400000000000000000000000000000000000000000000000000 PUSH1 0x0 DUP3 ADD MSTORE POP JUMP JUMPDEST PUSH1 0x0 PUSH2 0x1846 PUSH1 0x7 DUP4 PUSH2 0x13BF JUMP JUMPDEST SWAP2 POP PUSH2 0x1851 DUP3 PUSH2 0x1810 JUMP JUMPDEST PUSH1 0x20 DUP3 ADD SWAP1 POP SWAP2 SWAP1 POP JUMP JUMPDEST PUSH1 0x0 PUSH1 0x20 DUP3 ADD SWAP1 POP DUP2 DUP2 SUB PUSH1 0x0 DUP4 ADD MSTORE PUSH2 0x1875 DUP2 PUSH2 0x1839 JUMP JUMPDEST SWAP1 POP SWAP2 SWAP1 POP JUMP JUMPDEST PUSH32 0x656E646564000000000000000000000000000000000000000000000000000000 PUSH1 0x0 DUP3 ADD MSTORE POP JUMP JUMPDEST PUSH1 0x0 PUSH2 0x18B2 PUSH1 0x5 DUP4 PUSH2 0x13BF JUMP JUMPDEST SWAP2 POP PUSH2 0x18BD DUP3 PUSH2 0x187C JUMP JUMPDEST PUSH1 0x20 DUP3 ADD SWAP1 POP SWAP2 SWAP1 POP JUMP JUMPDEST PUSH1 0x0 PUSH1 0x20 DUP3 ADD SWAP1 POP DUP2 DUP2 SUB PUSH1 0x0 DUP4 ADD MSTORE PUSH2 0x18E1 DUP2 PUSH2 0x18A5 JUMP JUMPDEST SWAP1 POP SWAP2 SWAP1 POP JUMP JUMPDEST PUSH1 0x0 PUSH2 0x18F3 DUP3 PUSH2 0x10AC JUMP JUMPDEST SWAP2 POP PUSH2 0x18FE DUP4 PUSH2 0x10AC JUMP JUMPDEST SWAP3 POP DUP3 DUP3 LT ISZERO PUSH2 0x1911 JUMPI PUSH2 0x1910 PUSH2 0x1602 JUMP JUMPDEST JUMPDEST DUP3 DUP3 SUB SWAP1 POP SWAP3 SWAP2 POP POP JUMP JUMPDEST PUSH32 0x6E6F742073746172746564000000000000000000000000000000000000000000 PUSH1 0x0 DUP3 ADD MSTORE POP JUMP JUMPDEST PUSH1 0x0 PUSH2 0x1952 PUSH1 0xB DUP4 PUSH2 0x13BF JUMP JUMPDEST SWAP2 POP PUSH2 0x195D DUP3 PUSH2 0x191C JUMP JUMPDEST PUSH1 0x20 DUP3 ADD SWAP1 POP SWAP2 SWAP1 POP JUMP JUMPDEST PUSH1 0x0 PUSH1 0x20 DUP3 ADD SWAP1 POP DUP2 DUP2 SUB PUSH1 0x0 DUP4 ADD MSTORE PUSH2 0x1981 DUP2 PUSH2 0x1945 JUMP JUMPDEST SWAP1 POP SWAP2 SWAP1 POP JUMP JUMPDEST PUSH1 0x0 PUSH1 0x60 DUP3 ADD SWAP1 POP PUSH2 0x199D PUSH1 0x0 DUP4 ADD DUP7 PUSH2 0x1170 JUMP JUMPDEST PUSH2 0x19AA PUSH1 0x20 DUP4 ADD DUP6 PUSH2 0x1170 JUMP JUMPDEST PUSH2 0x19B7 PUSH1 0x40 DUP4 ADD DUP5 PUSH2 0x10B6 JUMP JUMPDEST SWAP5 SWAP4 POP POP POP POP JUMP INVALID LOG2 PUSH5 0x6970667358 0x22 SLT KECCAK256 PUSH28 0xF8EAEC8103EAEB787A2103E5B9867FA0BE5E9FC3FDB68D1F7D32585B PUSH11 0x564664736F6C634300080D STOP CALLER "
				},
				"gasEstimates": {
					"creation": {
						"codeDepositCost": "1329000",
						"executionCost": "infinite",
						"totalCost": "infinite"
					},
					"external": {
						"campaigns(uint256)": "infinite",
						"cancel(uint256)": "infinite",
						"claim(uint256)": "infinite",
						"count()": "2430",
						"launch(uint256,uint32,uint32)": "infinite",
						"pledge(uint256,uint256)": "infinite",
						"pledgedAmount(uint256,address)": "infinite",
						"refund(uint256)": "infinite",
						"token()": "infinite",
						"unpledge(uint256,uint256)": "infinite"
					}
				},
				"methodIdentifiers": {
					"campaigns(uint256)": "141961bc",
					"cancel(uint256)": "40e58ee5",
					"claim(uint256)": "379607f5",
					"count()": "06661abd",
					"launch(uint256,uint32,uint32)": "2c63f146",
					"pledge(uint256,uint256)": "fde327be",
					"pledgedAmount(uint256,address)": "aa4fb63a",
					"refund(uint256)": "278ecde1",
					"token()": "fc0c546a",
					"unpledge(uint256,uint256)": "711853ab"
				}
			},
			"storageLayout": {
				"storage": [
					{
						"astId": 64,
						"contract": "CrowdFund.sol:CrowdFund",
						"label": "count",
						"offset": 0,
						"slot": "0",
						"type": "t_uint256"
					},
					{
						"astId": 69,
						"contract": "CrowdFund.sol:CrowdFund",
						"label": "campaigns",
						"offset": 0,
						"slot": "1",
						"type": "t_mapping(t_uint256,t_struct(Campaign)59_storage)"
					},
					{
						"astId": 75,
						"contract": "CrowdFund.sol:CrowdFund",
						"label": "pledgedAmount",
						"offset": 0,
						"slot": "2",
						"type": "t_mapping(t_uint256,t_mapping(t_address,t_uint256))"
					}
				],
				"types": {
					"t_address": {
						"encoding": "inplace",
						"label": "address",
						"numberOfBytes": "20"
					},
					"t_bool": {
						"encoding": "inplace",
						"label": "bool",
						"numberOfBytes": "1"
					},
					"t_mapping(t_address,t_uint256)": {
						"encoding": "mapping",
						"key": "t_address",
						"label": "mapping(address => uint256)",
						"numberOfBytes": "32",
						"value": "t_uint256"
					},
					"t_mapping(t_uint256,t_mapping(t_address,t_uint256))": {
						"encoding": "mapping",
						"key": "t_uint256",
						"label": "mapping(uint256 => mapping(address => uint256))",
						"numberOfBytes": "32",
						"value": "t_mapping(t_address,t_uint256)"
					},
					"t_mapping(t_uint256,t_struct(Campaign)59_storage)": {
						"encoding": "mapping",
						"key": "t_uint256",
						"label": "mapping(uint256 => struct CrowdFund.Campaign)",
						"numberOfBytes": "32",
						"value": "t_struct(Campaign)59_storage"
					},
					"t_struct(Campaign)59_storage": {
						"encoding": "inplace",
						"label": "struct CrowdFund.Campaign",
						"members": [
							{
								"astId": 48,
								"contract": "CrowdFund.sol:CrowdFund",
								"label": "creator",
								"offset": 0,
								"slot": "0",
								"type": "t_address"
							},
							{
								"astId": 50,
								"contract": "CrowdFund.sol:CrowdFund",
								"label": "goal",
								"offset": 0,
								"slot": "1",
								"type": "t_uint256"
							},
							{
								"astId": 52,
								"contract": "CrowdFund.sol:CrowdFund",
								"label": "pledged",
								"offset": 0,
								"slot": "2",
								"type": "t_uint256"
							},
							{
								"astId": 54,
								"contract": "CrowdFund.sol:CrowdFund",
								"label": "startAt",
								"offset": 0,
								"slot": "3",
								"type": "t_uint32"
							},
							{
								"astId": 56,
								"contract": "CrowdFund.sol:CrowdFund",
								"label": "endAt",
								"offset": 4,
								"slot": "3",
								"type": "t_uint32"
							},
							{
								"astId": 58,
								"contract": "CrowdFund.sol:CrowdFund",
								"label": "claimed",
								"offset": 8,
								"slot": "3",
								"type": "t_bool"
							}
						],
						"numberOfBytes": "128"
					},
					"t_uint256": {
						"encoding": "inplace",
						"label": "uint256",
						"numberOfBytes": "32"
					},
					"t_uint32": {
						"encoding": "inplace",
						"label": "uint32",
						"numberOfBytes": "4"
					}
				}
			},
			"userdoc": {
				"kind": "user",
				"methods": {},
				"version": 1
			}
		}
	}
}